{
	"data": {
		"bytecode": {
			"linkReferences": {},
			"object": "6101406040523480156200001257600080fd5b506040518060400160405280600e81526020016d23b7bb32b936b2b73a2a37b5b2b760911b81525080604051806040016040528060018152602001603160f81b8152506040518060400160405280600e81526020016d23b7bb32b936b2b73a2a37b5b2b760911b8152506040518060400160405280600381526020016211d59560ea1b8152508160039080519060200190620000b092919062000ab7565b508051620000c690600490602084019062000ab7565b5050600a805460ff1916905550815160208084019190912082518383012060e08290526101008190524660a0818152604080517f8b73c3c69bb8fe3d512ecc4cf759cc79239f7b179b0ffacaa9a75d522b39400f81880181905281830187905260608201869052608082019490945230818401528151808203909301835260c00190528051940193909320919290916080523060601b60c0526101205250620001789350600092503391505062000218565b620001a47f5fdbd35e8da83ee755d5e62a539e5ed7f47126abede0b8b10f9ea43dc6eed07f3362000218565b620001d07f65d7a28e3265b37a6474929f336521b332c1681b933f6cb9f3376673440d862a3362000218565b620001fc7f9f2df0fed2c77648de5860a4cc508cd0818c85b8b8a1ab4ceeef8d981c8956a63362000218565b620002123369152d02c7e14af6800000620002bd565b62000bf1565b60008281526009602090815260408083206001600160a01b038516845290915290205460ff16620002b95760008281526009602090815260408083206001600160a01b03851684529091529020805460ff19166001179055620002783390565b6001600160a01b0316816001600160a01b0316837f2f8788117e7eff1d82e926ec794901d17c78024a50270940304540a733656f0d60405160405180910390a45b5050565b620002b98282620002d460201b6200106d1760201c565b620002eb82826200038b60201b6200110a1760201c565b6001600160e01b03620002ff620004888216565b11156200036c5760405162461bcd60e51b815260206004820152603060248201527f4552433230566f7465733a20746f74616c20737570706c79207269736b73206f60448201526f766572666c6f77696e6720766f74657360801b60648201526084015b60405180910390fd5b62000385600f620011fd6200048e60201b1783620004a3565b50505050565b6001600160a01b038216620003e35760405162461bcd60e51b815260206004820152601f60248201527f45524332303a206d696e7420746f20746865207a65726f206164647265737300604482015260640162000363565b620003f16000838362000655565b806002600082825462000405919062000b53565b90915550506001600160a01b038216600090815260208190526040812080548392906200043490849062000b53565b90915550506040518181526001600160a01b038316906000907fddf252ad1be2c89b69c2b068fc378daa952ba7f163c4a11628f55a4df523b3ef9060200160405180910390a3620002b9600083836200067c565b60025490565b60006200049c828462000b53565b9392505050565b825460009081908015620004f55785620004bf60018362000b6e565b81548110620004d257620004d262000bdb565b60009182526020909120015464010000000090046001600160e01b0316620004f8565b60005b6001600160e01b031692506200050f83858760201c565b915060008111801562000553575043866200052c60018462000b6e565b815481106200053f576200053f62000bdb565b60009182526020909120015463ffffffff16145b15620005c7576200056f826200069460201b620012091760201c565b866200057d60018462000b6e565b8154811062000590576200059062000bdb565b9060005260206000200160000160046101000a8154816001600160e01b0302191690836001600160e01b031602179055506200064c565b856040518060400160405280620005e9436200070360201b6200128c1760201c565b63ffffffff1681526020016200060a856200069460201b620012091760201c565b6001600160e01b0390811690915282546001810184556000938452602093849020835194909301519091166401000000000263ffffffff909316929092179101555b50935093915050565b6200065f6200076a565b62000677838383620007b460201b620013081760201c565b505050565b620006778383836200082060201b620013501760201c565b60006001600160e01b03821115620006ff5760405162461bcd60e51b815260206004820152602760248201527f53616665436173743a2076616c756520646f65736e27742066697420696e20326044820152663234206269747360c81b606482015260840162000363565b5090565b600063ffffffff821115620006ff5760405162461bcd60e51b815260206004820152602660248201527f53616665436173743a2076616c756520646f65736e27742066697420696e203360448201526532206269747360d01b606482015260840162000363565b600a5460ff1615620007b25760405162461bcd60e51b815260206004820152601060248201526f14185d5cd8589b194e881c185d5cd95960821b604482015260640162000363565b565b620007cc8383836200067760201b620008681760201c565b6001600160a01b038316620007f057620007e6826200086c565b62000677620008a4565b6001600160a01b0382166200080a57620007e6836200086c565b62000815836200086c565b62000677826200086c565b620008388383836200067760201b620008681760201c565b6001600160a01b038381166000908152600d60205260408082205485841683529120546200067792918216911683620008b4565b6001600160a01b03811660009081526005602090815260408083209183905290912054620008a19190620009ef565b620009ef565b50565b620007b260066200089b60025490565b816001600160a01b0316836001600160a01b031614158015620008d75750600081115b1562000677576001600160a01b0383161562000964576001600160a01b0383166000908152600e602090815260408220829162000921919062000a3e901b620013821785620004a3565b91509150846001600160a01b031660008051602062003af7833981519152838360405162000959929190918252602082015260400190565b60405180910390a250505b6001600160a01b0382161562000677576001600160a01b0382166000908152600e6020908152604082208291620009a891906200048e901b620011fd1785620004a3565b91509150836001600160a01b031660008051602062003af78339815191528383604051620009e0929190918252602082015260400190565b60405180910390a25050505050565b6000620009fb62000a4c565b90508062000a098462000a6a565b101562000677578254600180820185556000858152602080822090930193909355938401805494850181558252902090910155565b60006200049c828462000b6e565b600062000a65600862000ab360201b6200138e1760201c565b905090565b805460009062000a7c57506000919050565b8154829062000a8e9060019062000b6e565b8154811062000aa15762000aa162000bdb565b90600052602060002001549050919050565b5490565b82805462000ac59062000b88565b90600052602060002090601f01602090048101928262000ae9576000855562000b34565b82601f1062000b0457805160ff191683800117855562000b34565b8280016001018555821562000b34579182015b8281111562000b3457825182559160200191906001019062000b17565b50620006ff9291505b80821115620006ff576000815560010162000b3d565b6000821982111562000b695762000b6962000bc5565b500190565b60008282101562000b835762000b8362000bc5565b500390565b600181811c9082168062000b9d57607f821691505b6020821081141562000bbf57634e487b7160e01b600052602260045260246000fd5b50919050565b634e487b7160e01b600052601160045260246000fd5b634e487b7160e01b600052603260045260246000fd5b60805160a05160c05160601c60e0516101005161012051612eb362000c4460003960006118d401526000611923015260006118fe0152600061185701526000611881015260006118ab0152612eb36000f3fe608060405234801561001057600080fd5b50600436106102de5760003560e01c806370a08231116101865780639ab24eb0116100e3578063d505accf11610097578063dd62ed3e11610071578063dd62ed3e1461063f578063e63ab1e914610678578063f1127ed81461069f57600080fd5b8063d505accf146105f2578063d539139314610605578063d547741f1461062c57600080fd5b8063a457c2d7116100c8578063a457c2d7146105b9578063a9059cbb146105cc578063c3cda520146105df57600080fd5b80639ab24eb01461059e578063a217fddf146105b157600080fd5b80638e539e8c1161013a57806395d89b411161011f57806395d89b411461057b5780639711715a14610583578063981b24d01461058b57600080fd5b80638e539e8c1461052f57806391d148541461054257600080fd5b80637ecebe001161016b5780637ecebe001461050e5780638456cb59146105215780638da5cb5b1461052957600080fd5b806370a08231146104d257806379cc6790146104fb57600080fd5b8063395093511161023f5780634ee2cd7e116101f35780635c975abb116101cd5780635c975abb146104785780636fcfff45146104835780637028e2cd146104ab57600080fd5b80634ee2cd7e1461040e578063587cde1e146104215780635c19a95c1461046557600080fd5b80633f4ba83a116102245780633f4ba83a146103e057806340c10f19146103e857806342966c68146103fb57600080fd5b806339509351146103ba5780633a46b1a8146103cd57600080fd5b8063248a9ca311610296578063313ce5671161027b578063313ce567146103905780633644e5151461039f57806336568abe146103a757600080fd5b8063248a9ca3146103585780632f2ff15d1461037b57600080fd5b8063095ea7b3116102c7578063095ea7b31461032057806318160ddd1461033357806323b872dd1461034557600080fd5b806301ffc9a7146102e357806306fdde031461030b575b600080fd5b6102f66102f1366004612c47565b6106dc565b60405190151581526020015b60405180910390f35b610313610775565b6040516103029190612d0a565b6102f661032e366004612b49565b610807565b6002545b604051908152602001610302565b6102f6610353366004612aa3565b61081f565b610337610366366004612c0b565b60009081526009602052604090206001015490565b61038e610389366004612c24565b610843565b005b60405160128152602001610302565b61033761086d565b61038e6103b5366004612c24565b61087c565b6102f66103c8366004612b49565b61090d565b6103376103db366004612b49565b61094c565b61038e6109c6565b61038e6103f6366004612b49565b6109fb565b61038e610409366004612c0b565b610a2f565b61033761041c366004612b49565b610a39565b61044d61042f366004612a55565b6001600160a01b039081166000908152600d60205260409020541690565b6040516001600160a01b039091168152602001610302565b61038e610473366004612a55565b610a92565b600a5460ff166102f6565b610496610491366004612a55565b610a9c565b60405163ffffffff9091168152602001610302565b6103377f5fdbd35e8da83ee755d5e62a539e5ed7f47126abede0b8b10f9ea43dc6eed07f81565b6103376104e0366004612a55565b6001600160a01b031660009081526020819052604090205490565b61038e610509366004612b49565b610abe565b61033761051c366004612a55565b610ad3565b61038e610af1565b3361044d565b61033761053d366004612c0b565b610b23565b6102f6610550366004612c24565b60009182526009602090815260408084206001600160a01b0393909316845291905290205460ff1690565b610313610b7f565b61038e610b8e565b610337610599366004612c0b565b610bc0565b6103376105ac366004612a55565b610beb565b610337600081565b6102f66105c7366004612b49565b610c72565b6102f66105da366004612b49565b610d1c565b61038e6105ed366004612b73565b610d2a565b61038e610600366004612adf565b610e60565b6103377f9f2df0fed2c77648de5860a4cc508cd0818c85b8b8a1ab4ceeef8d981c8956a681565b61038e61063a366004612c24565b610fc4565b61033761064d366004612a70565b6001600160a01b03918216600090815260016020908152604080832093909416825291909152205490565b6103377f65d7a28e3265b37a6474929f336521b332c1681b933f6cb9f3376673440d862a81565b6106b26106ad366004612bcb565b610fe9565b60408051825163ffffffff1681526020928301516001600160e01b03169281019290925201610302565b60007fffffffff0000000000000000000000000000000000000000000000000000000082167f7965db0b00000000000000000000000000000000000000000000000000000000148061076f57507f01ffc9a7000000000000000000000000000000000000000000000000000000007fffffffff000000000000000000000000000000000000000000000000000000008316145b92915050565b60606003805461078490612df0565b80601f01602080910402602001604051908101604052809291908181526020018280546107b090612df0565b80156107fd5780601f106107d2576101008083540402835291602001916107fd565b820191906000526020600020905b8154815290600101906020018083116107e057829003601f168201915b5050505050905090565b600033610815818585611392565b5060019392505050565b60003361082d8582856114ea565b610838858585611576565b506001949350505050565b60008281526009602052604090206001015461085e8161179e565b61086883836117a8565b505050565b600061087761184a565b905090565b6001600160a01b03811633146108ff5760405162461bcd60e51b815260206004820152602f60248201527f416363657373436f6e74726f6c3a2063616e206f6e6c792072656e6f756e636560448201527f20726f6c657320666f722073656c66000000000000000000000000000000000060648201526084015b60405180910390fd5b6109098282611971565b5050565b3360008181526001602090815260408083206001600160a01b03871684529091528120549091906108159082908690610947908790612d3d565b611392565b600043821061099d5760405162461bcd60e51b815260206004820152601f60248201527f4552433230566f7465733a20626c6f636b206e6f7420796574206d696e65640060448201526064016108f6565b6001600160a01b0383166000908152600e602052604090206109bf90836119f4565b9392505050565b7f65d7a28e3265b37a6474929f336521b332c1681b933f6cb9f3376673440d862a6109f08161179e565b6109f8611ab1565b50565b7f9f2df0fed2c77648de5860a4cc508cd0818c85b8b8a1ab4ceeef8d981c8956a6610a258161179e565b6108688383611b03565b6109f83382611b0d565b6001600160a01b038216600090815260056020526040812081908190610a60908590611b17565b9150915081610a87576001600160a01b038516600090815260208190526040902054610a89565b805b95945050505050565b6109f83382611c15565b6001600160a01b0381166000908152600e602052604081205461076f9061128c565b610ac98233836114ea565b6109098282611b0d565b6001600160a01b0381166000908152600b602052604081205461076f565b7f65d7a28e3265b37a6474929f336521b332c1681b933f6cb9f3376673440d862a610b1b8161179e565b6109f8611ca6565b6000438210610b745760405162461bcd60e51b815260206004820152601f60248201527f4552433230566f7465733a20626c6f636b206e6f7420796574206d696e65640060448201526064016108f6565b61076f600f836119f4565b60606004805461078490612df0565b7f5fdbd35e8da83ee755d5e62a539e5ed7f47126abede0b8b10f9ea43dc6eed07f610bb88161179e565b610909611ce3565b6000806000610bd0846006611b17565b9150915081610be157600254610be3565b805b949350505050565b6001600160a01b0381166000908152600e60205260408120548015610c5f576001600160a01b0383166000908152600e60205260409020610c2d600183612d96565b81548110610c3d57610c3d612e51565b60009182526020909120015464010000000090046001600160e01b0316610c62565b60005b6001600160e01b03169392505050565b3360008181526001602090815260408083206001600160a01b038716845290915281205490919083811015610d0f5760405162461bcd60e51b815260206004820152602560248201527f45524332303a2064656372656173656420616c6c6f77616e63652062656c6f7760448201527f207a65726f00000000000000000000000000000000000000000000000000000060648201526084016108f6565b6108388286868403611392565b600033610815818585611576565b83421115610d7a5760405162461bcd60e51b815260206004820152601d60248201527f4552433230566f7465733a207369676e6174757265206578706972656400000060448201526064016108f6565b604080517fe48329057bfd03d55e49b547132e39cffd9c1820ad7b9d4c5307691425d15adf60208201526001600160a01b038816918101919091526060810186905260808101859052600090610df490610dec9060a00160405160208183030381529060405280519060200120611d3d565b858585611da6565b9050610dff81611dce565b8614610e4d5760405162461bcd60e51b815260206004820152601960248201527f4552433230566f7465733a20696e76616c6964206e6f6e63650000000000000060448201526064016108f6565b610e578188611c15565b50505050505050565b83421115610eb05760405162461bcd60e51b815260206004820152601d60248201527f45524332305065726d69743a206578706972656420646561646c696e6500000060448201526064016108f6565b60007f6e71edae12b1b97f4d1f60370fef10105fa2faae0126114a169c64845d6126c9888888610edf8c611dce565b6040805160208101969096526001600160a01b0394851690860152929091166060840152608083015260a082015260c0810186905260e0016040516020818303038152906040528051906020012090506000610f3a82611d3d565b90506000610f4a82878787611da6565b9050896001600160a01b0316816001600160a01b031614610fad5760405162461bcd60e51b815260206004820152601e60248201527f45524332305065726d69743a20696e76616c6964207369676e6174757265000060448201526064016108f6565b610fb88a8a8a611392565b50505050505050505050565b600082815260096020526040902060010154610fdf8161179e565b6108688383611971565b60408051808201909152600080825260208201526001600160a01b0383166000908152600e60205260409020805463ffffffff841690811061102d5761102d612e51565b60009182526020918290206040805180820190915291015463ffffffff8116825264010000000090046001600160e01b0316918101919091529392505050565b611077828261110a565b6002546001600160e01b0310156110f65760405162461bcd60e51b815260206004820152603060248201527f4552433230566f7465733a20746f74616c20737570706c79207269736b73206f60448201527f766572666c6f77696e6720766f7465730000000000000000000000000000000060648201526084016108f6565b611104600f6111fd83611df6565b50505050565b6001600160a01b0382166111605760405162461bcd60e51b815260206004820152601f60248201527f45524332303a206d696e7420746f20746865207a65726f20616464726573730060448201526064016108f6565b61116c60008383611f6f565b806002600082825461117e9190612d3d565b90915550506001600160a01b038216600090815260208190526040812080548392906111ab908490612d3d565b90915550506040518181526001600160a01b038316906000907fddf252ad1be2c89b69c2b068fc378daa952ba7f163c4a11628f55a4df523b3ef9060200160405180910390a361090960008383611f82565b60006109bf8284612d3d565b60006001600160e01b038211156112885760405162461bcd60e51b815260206004820152602760248201527f53616665436173743a2076616c756520646f65736e27742066697420696e203260448201527f323420626974730000000000000000000000000000000000000000000000000060648201526084016108f6565b5090565b600063ffffffff8211156112885760405162461bcd60e51b815260206004820152602660248201527f53616665436173743a2076616c756520646f65736e27742066697420696e203360448201527f322062697473000000000000000000000000000000000000000000000000000060648201526084016108f6565b6001600160a01b0383166113275761131f82611f8d565b610868611fbf565b6001600160a01b03821661133e5761131f83611f8d565b61134783611f8d565b61086882611f8d565b6001600160a01b038381166000908152600d602052604080822054858416835291205461086892918216911683611fcf565b60006109bf8284612d96565b5490565b6001600160a01b03831661140d5760405162461bcd60e51b8152602060048201526024808201527f45524332303a20617070726f76652066726f6d20746865207a65726f2061646460448201527f726573730000000000000000000000000000000000000000000000000000000060648201526084016108f6565b6001600160a01b0382166114895760405162461bcd60e51b815260206004820152602260248201527f45524332303a20617070726f766520746f20746865207a65726f20616464726560448201527f737300000000000000000000000000000000000000000000000000000000000060648201526084016108f6565b6001600160a01b0383811660008181526001602090815260408083209487168084529482529182902085905590518481527f8c5be1e5ebec7d5bd14f71427d1e84f3dd0314c0f7b2291e5b200ac8c7c3b925910160405180910390a3505050565b6001600160a01b03838116600090815260016020908152604080832093861683529290522054600019811461110457818110156115695760405162461bcd60e51b815260206004820152601d60248201527f45524332303a20696e73756666696369656e7420616c6c6f77616e636500000060448201526064016108f6565b6111048484848403611392565b6001600160a01b0383166115f25760405162461bcd60e51b815260206004820152602560248201527f45524332303a207472616e736665722066726f6d20746865207a65726f20616460448201527f647265737300000000000000000000000000000000000000000000000000000060648201526084016108f6565b6001600160a01b03821661166e5760405162461bcd60e51b815260206004820152602360248201527f45524332303a207472616e7366657220746f20746865207a65726f206164647260448201527f657373000000000000000000000000000000000000000000000000000000000060648201526084016108f6565b611679838383611f6f565b6001600160a01b038316600090815260208190526040902054818110156117085760405162461bcd60e51b815260206004820152602660248201527f45524332303a207472616e7366657220616d6f756e742065786365656473206260448201527f616c616e6365000000000000000000000000000000000000000000000000000060648201526084016108f6565b6001600160a01b0380851660009081526020819052604080822085850390559185168152908120805484929061173f908490612d3d565b92505081905550826001600160a01b0316846001600160a01b03167fddf252ad1be2c89b69c2b068fc378daa952ba7f163c4a11628f55a4df523b3ef8460405161178b91815260200190565b60405180910390a3611104848484611f82565b6109f8813361210c565b60008281526009602090815260408083206001600160a01b038516845290915290205460ff166109095760008281526009602090815260408083206001600160a01b03851684529091529020805460ff191660011790556118063390565b6001600160a01b0316816001600160a01b0316837f2f8788117e7eff1d82e926ec794901d17c78024a50270940304540a733656f0d60405160405180910390a45050565b6000306001600160a01b037f0000000000000000000000000000000000000000000000000000000000000000161480156118a357507f000000000000000000000000000000000000000000000000000000000000000046145b156118cd57507f000000000000000000000000000000000000000000000000000000000000000090565b50604080517f00000000000000000000000000000000000000000000000000000000000000006020808301919091527f0000000000000000000000000000000000000000000000000000000000000000828401527f000000000000000000000000000000000000000000000000000000000000000060608301524660808301523060a0808401919091528351808403909101815260c0909201909252805191012090565b60008281526009602090815260408083206001600160a01b038516845290915290205460ff16156109095760008281526009602090815260408083206001600160a01b0385168085529252808320805460ff1916905551339285917ff6391f5c32d9c69d2a47ea670b442974b53935d1edc7fd64eb21e047a839171b9190a45050565b8154600090815b81811015611a58576000611a0f828461218c565b905084868281548110611a2457611a24612e51565b60009182526020909120015463ffffffff161115611a4457809250611a52565b611a4f816001612d3d565b91505b506119fb565b8115611a9c5784611a6a600184612d96565b81548110611a7a57611a7a612e51565b60009182526020909120015464010000000090046001600160e01b0316611a9f565b60005b6001600160e01b031695945050505050565b611ab96121a7565b600a805460ff191690557f5db9ee0a495bf2e6ff9c91a7834c1ba4fdd244a5e8aa4e537bd38aeae4b073aa335b6040516001600160a01b03909116815260200160405180910390a1565b610909828261106d565b61090982826121f9565b60008060008411611b6a5760405162461bcd60e51b815260206004820152601660248201527f4552433230536e617073686f743a20696420697320300000000000000000000060448201526064016108f6565b611b72612211565b841115611bc15760405162461bcd60e51b815260206004820152601d60248201527f4552433230536e617073686f743a206e6f6e6578697374656e7420696400000060448201526064016108f6565b6000611bcd848661221c565b8454909150811415611be6576000809250925050611c0e565b6001846001018281548110611bfd57611bfd612e51565b906000526020600020015492509250505b9250929050565b6001600160a01b038281166000818152600d60208181526040808420805485845282862054949093528787167fffffffffffffffffffffffff00000000000000000000000000000000000000008416811790915590519190951694919391928592917f3134e8a2e6d97e929a7e54011ea5485d7d196dd5f0ba4d4ef95803e8e3fc257f9190a4611104828483611fcf565b611cae6122df565b600a805460ff191660011790557f62e78cea01bee320cd4e420270b5ea74000d11b0c9f74754ebdbfc544b05a258611ae63390565b6000611cf3600880546001019055565b6000611cfd612211565b90507f8030e83b04d87bef53480e26263266d6ca66863aa8506aca6f2559d18aa1cb6781604051611d3091815260200190565b60405180910390a1919050565b600061076f611d4a61184a565b836040517f19010000000000000000000000000000000000000000000000000000000000006020820152602281018390526042810182905260009060620160405160208183030381529060405280519060200120905092915050565b6000806000611db787878787612332565b91509150611dc48161241f565b5095945050505050565b6001600160a01b0381166000908152600b602052604090208054600181018255905b50919050565b825460009081908015611e415785611e0f600183612d96565b81548110611e1f57611e1f612e51565b60009182526020909120015464010000000090046001600160e01b0316611e44565b60005b6001600160e01b03169250611e5d83858763ffffffff16565b9150600081118015611e9b57504386611e77600184612d96565b81548110611e8757611e87612e51565b60009182526020909120015463ffffffff16145b15611efb57611ea982611209565b86611eb5600184612d96565b81548110611ec557611ec5612e51565b9060005260206000200160000160046101000a8154816001600160e01b0302191690836001600160e01b03160217905550611f66565b856040518060400160405280611f104361128c565b63ffffffff168152602001611f2485611209565b6001600160e01b0390811690915282546001810184556000938452602093849020835194909301519091166401000000000263ffffffff909316929092179101555b50935093915050565b611f776122df565b610868838383611308565b610868838383611350565b6001600160a01b038116600090815260056020908152604080832091839052909120546109f891906125da565b6125da565b611fcd6006611fba60025490565b565b816001600160a01b0316836001600160a01b031614158015611ff15750600081115b15610868576001600160a01b0383161561207f576001600160a01b0383166000908152600e60205260408120819061202c9061138285611df6565b91509150846001600160a01b03167fdec2bacdd2f05b59de34da9b523dff8be42e5e38e818c82fdb0bae774387a7248383604051612074929190918252602082015260400190565b60405180910390a250505b6001600160a01b03821615610868576001600160a01b0382166000908152600e6020526040812081906120b5906111fd85611df6565b91509150836001600160a01b03167fdec2bacdd2f05b59de34da9b523dff8be42e5e38e818c82fdb0bae774387a72483836040516120fd929190918252602082015260400190565b60405180910390a25050505050565b60008281526009602090815260408083206001600160a01b038516845290915290205460ff166109095761214a816001600160a01b03166014612624565b612155836020612624565b604051602001612166929190612c89565b60408051601f198184030181529082905262461bcd60e51b82526108f691600401612d0a565b600061219b6002848418612d55565b6109bf90848416612d3d565b600a5460ff16611fcd5760405162461bcd60e51b815260206004820152601460248201527f5061757361626c653a206e6f742070617573656400000000000000000000000060448201526064016108f6565b612203828261284d565b611104600f61138283611df6565b600061087760085490565b815460009061222d5750600061076f565b82546000905b80821015612289576000612247838361218c565b90508486828154811061225c5761225c612e51565b9060005260206000200154111561227557809150612283565b612280816001612d3d565b92505b50612233565b6000821180156122be575083856122a1600185612d96565b815481106122b1576122b1612e51565b9060005260206000200154145b156122d7576122ce600183612d96565b9250505061076f565b50905061076f565b600a5460ff1615611fcd5760405162461bcd60e51b815260206004820152601060248201527f5061757361626c653a207061757365640000000000000000000000000000000060448201526064016108f6565b6000807f7fffffffffffffffffffffffffffffff5d576e7357a4501ddfe92f46681b20a08311156123695750600090506003612416565b8460ff16601b1415801561238157508460ff16601c14155b156123925750600090506004612416565b6040805160008082526020820180845289905260ff881692820192909252606081018690526080810185905260019060a0016020604051602081039080840390855afa1580156123e6573d6000803e3d6000fd5b5050604051601f1901519150506001600160a01b03811661240f57600060019250925050612416565b9150600090505b94509492505050565b600081600481111561243357612433612e3b565b141561243c5750565b600181600481111561245057612450612e3b565b141561249e5760405162461bcd60e51b815260206004820152601860248201527f45434453413a20696e76616c6964207369676e6174757265000000000000000060448201526064016108f6565b60028160048111156124b2576124b2612e3b565b14156125005760405162461bcd60e51b815260206004820152601f60248201527f45434453413a20696e76616c6964207369676e6174757265206c656e6774680060448201526064016108f6565b600381600481111561251457612514612e3b565b141561256d5760405162461bcd60e51b815260206004820152602260248201527f45434453413a20696e76616c6964207369676e6174757265202773272076616c604482015261756560f01b60648201526084016108f6565b600481600481111561258157612581612e3b565b14156109f85760405162461bcd60e51b815260206004820152602260248201527f45434453413a20696e76616c6964207369676e6174757265202776272076616c604482015261756560f01b60648201526084016108f6565b60006125e4612211565b9050806125f0846129e5565b1015610868578254600180820185556000858152602080822090930193909355938401805494850181558252902090910155565b60606000612633836002612d77565b61263e906002612d3d565b67ffffffffffffffff81111561265657612656612e67565b6040519080825280601f01601f191660200182016040528015612680576020820181803683370190505b5090507f3000000000000000000000000000000000000000000000000000000000000000816000815181106126b7576126b7612e51565b60200101907effffffffffffffffffffffffffffffffffffffffffffffffffffffffffffff1916908160001a9053507f78000000000000000000000000000000000000000000000000000000000000008160018151811061271a5761271a612e51565b60200101907effffffffffffffffffffffffffffffffffffffffffffffffffffffffffffff1916908160001a9053506000612756846002612d77565b612761906001612d3d565b90505b60018111156127fe577f303132333435363738396162636465660000000000000000000000000000000085600f16601081106127a2576127a2612e51565b1a60f81b8282815181106127b8576127b8612e51565b60200101907effffffffffffffffffffffffffffffffffffffffffffffffffffffffffffff1916908160001a90535060049490941c936127f781612dd9565b9050612764565b5083156109bf5760405162461bcd60e51b815260206004820181905260248201527f537472696e67733a20686578206c656e67746820696e73756666696369656e7460448201526064016108f6565b6001600160a01b0382166128c95760405162461bcd60e51b815260206004820152602160248201527f45524332303a206275726e2066726f6d20746865207a65726f2061646472657360448201527f730000000000000000000000000000000000000000000000000000000000000060648201526084016108f6565b6128d582600083611f6f565b6001600160a01b038216600090815260208190526040902054818110156129645760405162461bcd60e51b815260206004820152602260248201527f45524332303a206275726e20616d6f756e7420657863656564732062616c616e60448201527f636500000000000000000000000000000000000000000000000000000000000060648201526084016108f6565b6001600160a01b0383166000908152602081905260408120838303905560028054849290612993908490612d96565b90915550506040518281526000906001600160a01b038516907fddf252ad1be2c89b69c2b068fc378daa952ba7f163c4a11628f55a4df523b3ef9060200160405180910390a361086883600084611f82565b80546000906129f657506000919050565b81548290612a0690600190612d96565b81548110612a1657612a16612e51565b90600052602060002001549050919050565b919050565b80356001600160a01b0381168114612a2857600080fd5b803560ff81168114612a2857600080fd5b600060208284031215612a6757600080fd5b6109bf82612a2d565b60008060408385031215612a8357600080fd5b612a8c83612a2d565b9150612a9a60208401612a2d565b90509250929050565b600080600060608486031215612ab857600080fd5b612ac184612a2d565b9250612acf60208501612a2d565b9150604084013590509250925092565b600080600080600080600060e0888a031215612afa57600080fd5b612b0388612a2d565b9650612b1160208901612a2d565b95506040880135945060608801359350612b2d60808901612a44565b925060a0880135915060c0880135905092959891949750929550565b60008060408385031215612b5c57600080fd5b612b6583612a2d565b946020939093013593505050565b60008060008060008060c08789031215612b8c57600080fd5b612b9587612a2d565b95506020870135945060408701359350612bb160608801612a44565b92506080870135915060a087013590509295509295509295565b60008060408385031215612bde57600080fd5b612be783612a2d565b9150602083013563ffffffff81168114612c0057600080fd5b809150509250929050565b600060208284031215612c1d57600080fd5b5035919050565b60008060408385031215612c3757600080fd5b82359150612a9a60208401612a2d565b600060208284031215612c5957600080fd5b81357fffffffff00000000000000000000000000000000000000000000000000000000811681146109bf57600080fd5b7f416363657373436f6e74726f6c3a206163636f756e7420000000000000000000815260008351612cc1816017850160208801612dad565b7f206973206d697373696e6720726f6c65200000000000000000000000000000006017918401918201528351612cfe816028840160208801612dad565b01602801949350505050565b6020815260008251806020840152612d29816040850160208701612dad565b601f01601f19169190910160400192915050565b60008219821115612d5057612d50612e25565b500190565b600082612d7257634e487b7160e01b600052601260045260246000fd5b500490565b6000816000190483118215151615612d9157612d91612e25565b500290565b600082821015612da857612da8612e25565b500390565b60005b83811015612dc8578181015183820152602001612db0565b838111156111045750506000910152565b600081612de857612de8612e25565b506000190190565b600181811c90821680612e0457607f821691505b60208210811415611df057634e487b7160e01b600052602260045260246000fd5b634e487b7160e01b600052601160045260246000fd5b634e487b7160e01b600052602160045260246000fd5b634e487b7160e01b600052603260045260246000fd5b634e487b7160e01b600052604160045260246000fdfea2646970667358221220f870b64ef3cfed23e3dacc21109f5af2c9e2d42dc270e352e4a819522c35170364736f6c63430008070033dec2bacdd2f05b59de34da9b523dff8be42e5e38e818c82fdb0bae774387a724",
			"opcodes": "PUSH2 0x140 PUSH1 0x40 MSTORE CALLVALUE DUP1 ISZERO PUSH3 0x12 JUMPI PUSH1 0x0 DUP1 REVERT JUMPDEST POP PUSH1 0x40 MLOAD DUP1 PUSH1 0x40 ADD PUSH1 0x40 MSTORE DUP1 PUSH1 0xE DUP2 MSTORE PUSH1 0x20 ADD PUSH14 0x23B7BB32B936B2B73A2A37B5B2B7 PUSH1 0x91 SHL DUP2 MSTORE POP DUP1 PUSH1 0x40 MLOAD DUP1 PUSH1 0x40 ADD PUSH1 0x40 MSTORE DUP1 PUSH1 0x1 DUP2 MSTORE PUSH1 0x20 ADD PUSH1 0x31 PUSH1 0xF8 SHL DUP2 MSTORE POP PUSH1 0x40 MLOAD DUP1 PUSH1 0x40 ADD PUSH1 0x40 MSTORE DUP1 PUSH1 0xE DUP2 MSTORE PUSH1 0x20 ADD PUSH14 0x23B7BB32B936B2B73A2A37B5B2B7 PUSH1 0x91 SHL DUP2 MSTORE POP PUSH1 0x40 MLOAD DUP1 PUSH1 0x40 ADD PUSH1 0x40 MSTORE DUP1 PUSH1 0x3 DUP2 MSTORE PUSH1 0x20 ADD PUSH3 0x11D595 PUSH1 0xEA SHL DUP2 MSTORE POP DUP2 PUSH1 0x3 SWAP1 DUP1 MLOAD SWAP1 PUSH1 0x20 ADD SWAP1 PUSH3 0xB0 SWAP3 SWAP2 SWAP1 PUSH3 0xAB7 JUMP JUMPDEST POP DUP1 MLOAD PUSH3 0xC6 SWAP1 PUSH1 0x4 SWAP1 PUSH1 0x20 DUP5 ADD SWAP1 PUSH3 0xAB7 JUMP JUMPDEST POP POP PUSH1 0xA DUP1 SLOAD PUSH1 0xFF NOT AND SWAP1 SSTORE POP DUP2 MLOAD PUSH1 0x20 DUP1 DUP5 ADD SWAP2 SWAP1 SWAP2 KECCAK256 DUP3 MLOAD DUP4 DUP4 ADD KECCAK256 PUSH1 0xE0 DUP3 SWAP1 MSTORE PUSH2 0x100 DUP2 SWAP1 MSTORE CHAINID PUSH1 0xA0 DUP2 DUP2 MSTORE PUSH1 0x40 DUP1 MLOAD PUSH32 0x8B73C3C69BB8FE3D512ECC4CF759CC79239F7B179B0FFACAA9A75D522B39400F DUP2 DUP9 ADD DUP2 SWAP1 MSTORE DUP2 DUP4 ADD DUP8 SWAP1 MSTORE PUSH1 0x60 DUP3 ADD DUP7 SWAP1 MSTORE PUSH1 0x80 DUP3 ADD SWAP5 SWAP1 SWAP5 MSTORE ADDRESS DUP2 DUP5 ADD MSTORE DUP2 MLOAD DUP1 DUP3 SUB SWAP1 SWAP4 ADD DUP4 MSTORE PUSH1 0xC0 ADD SWAP1 MSTORE DUP1 MLOAD SWAP5 ADD SWAP4 SWAP1 SWAP4 KECCAK256 SWAP2 SWAP3 SWAP1 SWAP2 PUSH1 0x80 MSTORE ADDRESS PUSH1 0x60 SHL PUSH1 0xC0 MSTORE PUSH2 0x120 MSTORE POP PUSH3 0x178 SWAP4 POP PUSH1 0x0 SWAP3 POP CALLER SWAP2 POP POP PUSH3 0x218 JUMP JUMPDEST PUSH3 0x1A4 PUSH32 0x5FDBD35E8DA83EE755D5E62A539E5ED7F47126ABEDE0B8B10F9EA43DC6EED07F CALLER PUSH3 0x218 JUMP JUMPDEST PUSH3 0x1D0 PUSH32 0x65D7A28E3265B37A6474929F336521B332C1681B933F6CB9F3376673440D862A CALLER PUSH3 0x218 JUMP JUMPDEST PUSH3 0x1FC PUSH32 0x9F2DF0FED2C77648DE5860A4CC508CD0818C85B8B8A1AB4CEEEF8D981C8956A6 CALLER PUSH3 0x218 JUMP JUMPDEST PUSH3 0x212 CALLER PUSH10 0x152D02C7E14AF6800000 PUSH3 0x2BD JUMP JUMPDEST PUSH3 0xBF1 JUMP JUMPDEST PUSH1 0x0 DUP3 DUP2 MSTORE PUSH1 0x9 PUSH1 0x20 SWAP1 DUP2 MSTORE PUSH1 0x40 DUP1 DUP4 KECCAK256 PUSH1 0x1 PUSH1 0x1 PUSH1 0xA0 SHL SUB DUP6 AND DUP5 MSTORE SWAP1 SWAP2 MSTORE SWAP1 KECCAK256 SLOAD PUSH1 0xFF AND PUSH3 0x2B9 JUMPI PUSH1 0x0 DUP3 DUP2 MSTORE PUSH1 0x9 PUSH1 0x20 SWAP1 DUP2 MSTORE PUSH1 0x40 DUP1 DUP4 KECCAK256 PUSH1 0x1 PUSH1 0x1 PUSH1 0xA0 SHL SUB DUP6 AND DUP5 MSTORE SWAP1 SWAP2 MSTORE SWAP1 KECCAK256 DUP1 SLOAD PUSH1 0xFF NOT AND PUSH1 0x1 OR SWAP1 SSTORE PUSH3 0x278 CALLER SWAP1 JUMP JUMPDEST PUSH1 0x1 PUSH1 0x1 PUSH1 0xA0 SHL SUB AND DUP2 PUSH1 0x1 PUSH1 0x1 PUSH1 0xA0 SHL SUB AND DUP4 PUSH32 0x2F8788117E7EFF1D82E926EC794901D17C78024A50270940304540A733656F0D PUSH1 0x40 MLOAD PUSH1 0x40 MLOAD DUP1 SWAP2 SUB SWAP1 LOG4 JUMPDEST POP POP JUMP JUMPDEST PUSH3 0x2B9 DUP3 DUP3 PUSH3 0x2D4 PUSH1 0x20 SHL PUSH3 0x106D OR PUSH1 0x20 SHR JUMP JUMPDEST PUSH3 0x2EB DUP3 DUP3 PUSH3 0x38B PUSH1 0x20 SHL PUSH3 0x110A OR PUSH1 0x20 SHR JUMP JUMPDEST PUSH1 0x1 PUSH1 0x1 PUSH1 0xE0 SHL SUB PUSH3 0x2FF PUSH3 0x488 DUP3 AND JUMP JUMPDEST GT ISZERO PUSH3 0x36C JUMPI PUSH1 0x40 MLOAD PUSH3 0x461BCD PUSH1 0xE5 SHL DUP2 MSTORE PUSH1 0x20 PUSH1 0x4 DUP3 ADD MSTORE PUSH1 0x30 PUSH1 0x24 DUP3 ADD MSTORE PUSH32 0x4552433230566F7465733A20746F74616C20737570706C79207269736B73206F PUSH1 0x44 DUP3 ADD MSTORE PUSH16 0x766572666C6F77696E6720766F746573 PUSH1 0x80 SHL PUSH1 0x64 DUP3 ADD MSTORE PUSH1 0x84 ADD JUMPDEST PUSH1 0x40 MLOAD DUP1 SWAP2 SUB SWAP1 REVERT JUMPDEST PUSH3 0x385 PUSH1 0xF PUSH3 0x11FD PUSH3 0x48E PUSH1 0x20 SHL OR DUP4 PUSH3 0x4A3 JUMP JUMPDEST POP POP POP POP JUMP JUMPDEST PUSH1 0x1 PUSH1 0x1 PUSH1 0xA0 SHL SUB DUP3 AND PUSH3 0x3E3 JUMPI PUSH1 0x40 MLOAD PUSH3 0x461BCD PUSH1 0xE5 SHL DUP2 MSTORE PUSH1 0x20 PUSH1 0x4 DUP3 ADD MSTORE PUSH1 0x1F PUSH1 0x24 DUP3 ADD MSTORE PUSH32 0x45524332303A206D696E7420746F20746865207A65726F206164647265737300 PUSH1 0x44 DUP3 ADD MSTORE PUSH1 0x64 ADD PUSH3 0x363 JUMP JUMPDEST PUSH3 0x3F1 PUSH1 0x0 DUP4 DUP4 PUSH3 0x655 JUMP JUMPDEST DUP1 PUSH1 0x2 PUSH1 0x0 DUP3 DUP3 SLOAD PUSH3 0x405 SWAP2 SWAP1 PUSH3 0xB53 JUMP JUMPDEST SWAP1 SWAP2 SSTORE POP POP PUSH1 0x1 PUSH1 0x1 PUSH1 0xA0 SHL SUB DUP3 AND PUSH1 0x0 SWAP1 DUP2 MSTORE PUSH1 0x20 DUP2 SWAP1 MSTORE PUSH1 0x40 DUP2 KECCAK256 DUP1 SLOAD DUP4 SWAP3 SWAP1 PUSH3 0x434 SWAP1 DUP5 SWAP1 PUSH3 0xB53 JUMP JUMPDEST SWAP1 SWAP2 SSTORE POP POP PUSH1 0x40 MLOAD DUP2 DUP2 MSTORE PUSH1 0x1 PUSH1 0x1 PUSH1 0xA0 SHL SUB DUP4 AND SWAP1 PUSH1 0x0 SWAP1 PUSH32 0xDDF252AD1BE2C89B69C2B068FC378DAA952BA7F163C4A11628F55A4DF523B3EF SWAP1 PUSH1 0x20 ADD PUSH1 0x40 MLOAD DUP1 SWAP2 SUB SWAP1 LOG3 PUSH3 0x2B9 PUSH1 0x0 DUP4 DUP4 PUSH3 0x67C JUMP JUMPDEST PUSH1 0x2 SLOAD SWAP1 JUMP JUMPDEST PUSH1 0x0 PUSH3 0x49C DUP3 DUP5 PUSH3 0xB53 JUMP JUMPDEST SWAP4 SWAP3 POP POP POP JUMP JUMPDEST DUP3 SLOAD PUSH1 0x0 SWAP1 DUP2 SWAP1 DUP1 ISZERO PUSH3 0x4F5 JUMPI DUP6 PUSH3 0x4BF PUSH1 0x1 DUP4 PUSH3 0xB6E JUMP JUMPDEST DUP2 SLOAD DUP2 LT PUSH3 0x4D2 JUMPI PUSH3 0x4D2 PUSH3 0xBDB JUMP JUMPDEST PUSH1 0x0 SWAP2 DUP3 MSTORE PUSH1 0x20 SWAP1 SWAP2 KECCAK256 ADD SLOAD PUSH5 0x100000000 SWAP1 DIV PUSH1 0x1 PUSH1 0x1 PUSH1 0xE0 SHL SUB AND PUSH3 0x4F8 JUMP JUMPDEST PUSH1 0x0 JUMPDEST PUSH1 0x1 PUSH1 0x1 PUSH1 0xE0 SHL SUB AND SWAP3 POP PUSH3 0x50F DUP4 DUP6 DUP8 PUSH1 0x20 SHR JUMP JUMPDEST SWAP2 POP PUSH1 0x0 DUP2 GT DUP1 ISZERO PUSH3 0x553 JUMPI POP NUMBER DUP7 PUSH3 0x52C PUSH1 0x1 DUP5 PUSH3 0xB6E JUMP JUMPDEST DUP2 SLOAD DUP2 LT PUSH3 0x53F JUMPI PUSH3 0x53F PUSH3 0xBDB JUMP JUMPDEST PUSH1 0x0 SWAP2 DUP3 MSTORE PUSH1 0x20 SWAP1 SWAP2 KECCAK256 ADD SLOAD PUSH4 0xFFFFFFFF AND EQ JUMPDEST ISZERO PUSH3 0x5C7 JUMPI PUSH3 0x56F DUP3 PUSH3 0x694 PUSH1 0x20 SHL PUSH3 0x1209 OR PUSH1 0x20 SHR JUMP JUMPDEST DUP7 PUSH3 0x57D PUSH1 0x1 DUP5 PUSH3 0xB6E JUMP JUMPDEST DUP2 SLOAD DUP2 LT PUSH3 0x590 JUMPI PUSH3 0x590 PUSH3 0xBDB JUMP JUMPDEST SWAP1 PUSH1 0x0 MSTORE PUSH1 0x20 PUSH1 0x0 KECCAK256 ADD PUSH1 0x0 ADD PUSH1 0x4 PUSH2 0x100 EXP DUP2 SLOAD DUP2 PUSH1 0x1 PUSH1 0x1 PUSH1 0xE0 SHL SUB MUL NOT AND SWAP1 DUP4 PUSH1 0x1 PUSH1 0x1 PUSH1 0xE0 SHL SUB AND MUL OR SWAP1 SSTORE POP PUSH3 0x64C JUMP JUMPDEST DUP6 PUSH1 0x40 MLOAD DUP1 PUSH1 0x40 ADD PUSH1 0x40 MSTORE DUP1 PUSH3 0x5E9 NUMBER PUSH3 0x703 PUSH1 0x20 SHL PUSH3 0x128C OR PUSH1 0x20 SHR JUMP JUMPDEST PUSH4 0xFFFFFFFF AND DUP2 MSTORE PUSH1 0x20 ADD PUSH3 0x60A DUP6 PUSH3 0x694 PUSH1 0x20 SHL PUSH3 0x1209 OR PUSH1 0x20 SHR JUMP JUMPDEST PUSH1 0x1 PUSH1 0x1 PUSH1 0xE0 SHL SUB SWAP1 DUP2 AND SWAP1 SWAP2 MSTORE DUP3 SLOAD PUSH1 0x1 DUP2 ADD DUP5 SSTORE PUSH1 0x0 SWAP4 DUP5 MSTORE PUSH1 0x20 SWAP4 DUP5 SWAP1 KECCAK256 DUP4 MLOAD SWAP5 SWAP1 SWAP4 ADD MLOAD SWAP1 SWAP2 AND PUSH5 0x100000000 MUL PUSH4 0xFFFFFFFF SWAP1 SWAP4 AND SWAP3 SWAP1 SWAP3 OR SWAP2 ADD SSTORE JUMPDEST POP SWAP4 POP SWAP4 SWAP2 POP POP JUMP JUMPDEST PUSH3 0x65F PUSH3 0x76A JUMP JUMPDEST PUSH3 0x677 DUP4 DUP4 DUP4 PUSH3 0x7B4 PUSH1 0x20 SHL PUSH3 0x1308 OR PUSH1 0x20 SHR JUMP JUMPDEST POP POP POP JUMP JUMPDEST PUSH3 0x677 DUP4 DUP4 DUP4 PUSH3 0x820 PUSH1 0x20 SHL PUSH3 0x1350 OR PUSH1 0x20 SHR JUMP JUMPDEST PUSH1 0x0 PUSH1 0x1 PUSH1 0x1 PUSH1 0xE0 SHL SUB DUP3 GT ISZERO PUSH3 0x6FF JUMPI PUSH1 0x40 MLOAD PUSH3 0x461BCD PUSH1 0xE5 SHL DUP2 MSTORE PUSH1 0x20 PUSH1 0x4 DUP3 ADD MSTORE PUSH1 0x27 PUSH1 0x24 DUP3 ADD MSTORE PUSH32 0x53616665436173743A2076616C756520646F65736E27742066697420696E2032 PUSH1 0x44 DUP3 ADD MSTORE PUSH7 0x32342062697473 PUSH1 0xC8 SHL PUSH1 0x64 DUP3 ADD MSTORE PUSH1 0x84 ADD PUSH3 0x363 JUMP JUMPDEST POP SWAP1 JUMP JUMPDEST PUSH1 0x0 PUSH4 0xFFFFFFFF DUP3 GT ISZERO PUSH3 0x6FF JUMPI PUSH1 0x40 MLOAD PUSH3 0x461BCD PUSH1 0xE5 SHL DUP2 MSTORE PUSH1 0x20 PUSH1 0x4 DUP3 ADD MSTORE PUSH1 0x26 PUSH1 0x24 DUP3 ADD MSTORE PUSH32 0x53616665436173743A2076616C756520646F65736E27742066697420696E2033 PUSH1 0x44 DUP3 ADD MSTORE PUSH6 0x322062697473 PUSH1 0xD0 SHL PUSH1 0x64 DUP3 ADD MSTORE PUSH1 0x84 ADD PUSH3 0x363 JUMP JUMPDEST PUSH1 0xA SLOAD PUSH1 0xFF AND ISZERO PUSH3 0x7B2 JUMPI PUSH1 0x40 MLOAD PUSH3 0x461BCD PUSH1 0xE5 SHL DUP2 MSTORE PUSH1 0x20 PUSH1 0x4 DUP3 ADD MSTORE PUSH1 0x10 PUSH1 0x24 DUP3 ADD MSTORE PUSH16 0x14185D5CD8589B194E881C185D5CD959 PUSH1 0x82 SHL PUSH1 0x44 DUP3 ADD MSTORE PUSH1 0x64 ADD PUSH3 0x363 JUMP JUMPDEST JUMP JUMPDEST PUSH3 0x7CC DUP4 DUP4 DUP4 PUSH3 0x677 PUSH1 0x20 SHL PUSH3 0x868 OR PUSH1 0x20 SHR JUMP JUMPDEST PUSH1 0x1 PUSH1 0x1 PUSH1 0xA0 SHL SUB DUP4 AND PUSH3 0x7F0 JUMPI PUSH3 0x7E6 DUP3 PUSH3 0x86C JUMP JUMPDEST PUSH3 0x677 PUSH3 0x8A4 JUMP JUMPDEST PUSH1 0x1 PUSH1 0x1 PUSH1 0xA0 SHL SUB DUP3 AND PUSH3 0x80A JUMPI PUSH3 0x7E6 DUP4 PUSH3 0x86C JUMP JUMPDEST PUSH3 0x815 DUP4 PUSH3 0x86C JUMP JUMPDEST PUSH3 0x677 DUP3 PUSH3 0x86C JUMP JUMPDEST PUSH3 0x838 DUP4 DUP4 DUP4 PUSH3 0x677 PUSH1 0x20 SHL PUSH3 0x868 OR PUSH1 0x20 SHR JUMP JUMPDEST PUSH1 0x1 PUSH1 0x1 PUSH1 0xA0 SHL SUB DUP4 DUP2 AND PUSH1 0x0 SWAP1 DUP2 MSTORE PUSH1 0xD PUSH1 0x20 MSTORE PUSH1 0x40 DUP1 DUP3 KECCAK256 SLOAD DUP6 DUP5 AND DUP4 MSTORE SWAP2 KECCAK256 SLOAD PUSH3 0x677 SWAP3 SWAP2 DUP3 AND SWAP2 AND DUP4 PUSH3 0x8B4 JUMP JUMPDEST PUSH1 0x1 PUSH1 0x1 PUSH1 0xA0 SHL SUB DUP2 AND PUSH1 0x0 SWAP1 DUP2 MSTORE PUSH1 0x5 PUSH1 0x20 SWAP1 DUP2 MSTORE PUSH1 0x40 DUP1 DUP4 KECCAK256 SWAP2 DUP4 SWAP1 MSTORE SWAP1 SWAP2 KECCAK256 SLOAD PUSH3 0x8A1 SWAP2 SWAP1 PUSH3 0x9EF JUMP JUMPDEST PUSH3 0x9EF JUMP JUMPDEST POP JUMP JUMPDEST PUSH3 0x7B2 PUSH1 0x6 PUSH3 0x89B PUSH1 0x2 SLOAD SWAP1 JUMP JUMPDEST DUP2 PUSH1 0x1 PUSH1 0x1 PUSH1 0xA0 SHL SUB AND DUP4 PUSH1 0x1 PUSH1 0x1 PUSH1 0xA0 SHL SUB AND EQ ISZERO DUP1 ISZERO PUSH3 0x8D7 JUMPI POP PUSH1 0x0 DUP2 GT JUMPDEST ISZERO PUSH3 0x677 JUMPI PUSH1 0x1 PUSH1 0x1 PUSH1 0xA0 SHL SUB DUP4 AND ISZERO PUSH3 0x964 JUMPI PUSH1 0x1 PUSH1 0x1 PUSH1 0xA0 SHL SUB DUP4 AND PUSH1 0x0 SWAP1 DUP2 MSTORE PUSH1 0xE PUSH1 0x20 SWAP1 DUP2 MSTORE PUSH1 0x40 DUP3 KECCAK256 DUP3 SWAP2 PUSH3 0x921 SWAP2 SWAP1 PUSH3 0xA3E SWAP1 SHL PUSH3 0x1382 OR DUP6 PUSH3 0x4A3 JUMP JUMPDEST SWAP2 POP SWAP2 POP DUP5 PUSH1 0x1 PUSH1 0x1 PUSH1 0xA0 SHL SUB AND PUSH1 0x0 DUP1 MLOAD PUSH1 0x20 PUSH3 0x3AF7 DUP4 CODECOPY DUP2 MLOAD SWAP2 MSTORE DUP4 DUP4 PUSH1 0x40 MLOAD PUSH3 0x959 SWAP3 SWAP2 SWAP1 SWAP2 DUP3 MSTORE PUSH1 0x20 DUP3 ADD MSTORE PUSH1 0x40 ADD SWAP1 JUMP JUMPDEST PUSH1 0x40 MLOAD DUP1 SWAP2 SUB SWAP1 LOG2 POP POP JUMPDEST PUSH1 0x1 PUSH1 0x1 PUSH1 0xA0 SHL SUB DUP3 AND ISZERO PUSH3 0x677 JUMPI PUSH1 0x1 PUSH1 0x1 PUSH1 0xA0 SHL SUB DUP3 AND PUSH1 0x0 SWAP1 DUP2 MSTORE PUSH1 0xE PUSH1 0x20 SWAP1 DUP2 MSTORE PUSH1 0x40 DUP3 KECCAK256 DUP3 SWAP2 PUSH3 0x9A8 SWAP2 SWAP1 PUSH3 0x48E SWAP1 SHL PUSH3 0x11FD OR DUP6 PUSH3 0x4A3 JUMP JUMPDEST SWAP2 POP SWAP2 POP DUP4 PUSH1 0x1 PUSH1 0x1 PUSH1 0xA0 SHL SUB AND PUSH1 0x0 DUP1 MLOAD PUSH1 0x20 PUSH3 0x3AF7 DUP4 CODECOPY DUP2 MLOAD SWAP2 MSTORE DUP4 DUP4 PUSH1 0x40 MLOAD PUSH3 0x9E0 SWAP3 SWAP2 SWAP1 SWAP2 DUP3 MSTORE PUSH1 0x20 DUP3 ADD MSTORE PUSH1 0x40 ADD SWAP1 JUMP JUMPDEST PUSH1 0x40 MLOAD DUP1 SWAP2 SUB SWAP1 LOG2 POP POP POP POP POP JUMP JUMPDEST PUSH1 0x0 PUSH3 0x9FB PUSH3 0xA4C JUMP JUMPDEST SWAP1 POP DUP1 PUSH3 0xA09 DUP5 PUSH3 0xA6A JUMP JUMPDEST LT ISZERO PUSH3 0x677 JUMPI DUP3 SLOAD PUSH1 0x1 DUP1 DUP3 ADD DUP6 SSTORE PUSH1 0x0 DUP6 DUP2 MSTORE PUSH1 0x20 DUP1 DUP3 KECCAK256 SWAP1 SWAP4 ADD SWAP4 SWAP1 SWAP4 SSTORE SWAP4 DUP5 ADD DUP1 SLOAD SWAP5 DUP6 ADD DUP2 SSTORE DUP3 MSTORE SWAP1 KECCAK256 SWAP1 SWAP2 ADD SSTORE JUMP JUMPDEST PUSH1 0x0 PUSH3 0x49C DUP3 DUP5 PUSH3 0xB6E JUMP JUMPDEST PUSH1 0x0 PUSH3 0xA65 PUSH1 0x8 PUSH3 0xAB3 PUSH1 0x20 SHL PUSH3 0x138E OR PUSH1 0x20 SHR JUMP JUMPDEST SWAP1 POP SWAP1 JUMP JUMPDEST DUP1 SLOAD PUSH1 0x0 SWAP1 PUSH3 0xA7C JUMPI POP PUSH1 0x0 SWAP2 SWAP1 POP JUMP JUMPDEST DUP2 SLOAD DUP3 SWAP1 PUSH3 0xA8E SWAP1 PUSH1 0x1 SWAP1 PUSH3 0xB6E JUMP JUMPDEST DUP2 SLOAD DUP2 LT PUSH3 0xAA1 JUMPI PUSH3 0xAA1 PUSH3 0xBDB JUMP JUMPDEST SWAP1 PUSH1 0x0 MSTORE PUSH1 0x20 PUSH1 0x0 KECCAK256 ADD SLOAD SWAP1 POP SWAP2 SWAP1 POP JUMP JUMPDEST SLOAD SWAP1 JUMP JUMPDEST DUP3 DUP1 SLOAD PUSH3 0xAC5 SWAP1 PUSH3 0xB88 JUMP JUMPDEST SWAP1 PUSH1 0x0 MSTORE PUSH1 0x20 PUSH1 0x0 KECCAK256 SWAP1 PUSH1 0x1F ADD PUSH1 0x20 SWAP1 DIV DUP2 ADD SWAP3 DUP3 PUSH3 0xAE9 JUMPI PUSH1 0x0 DUP6 SSTORE PUSH3 0xB34 JUMP JUMPDEST DUP3 PUSH1 0x1F LT PUSH3 0xB04 JUMPI DUP1 MLOAD PUSH1 0xFF NOT AND DUP4 DUP1 ADD OR DUP6 SSTORE PUSH3 0xB34 JUMP JUMPDEST DUP3 DUP1 ADD PUSH1 0x1 ADD DUP6 SSTORE DUP3 ISZERO PUSH3 0xB34 JUMPI SWAP2 DUP3 ADD JUMPDEST DUP3 DUP2 GT ISZERO PUSH3 0xB34 JUMPI DUP3 MLOAD DUP3 SSTORE SWAP2 PUSH1 0x20 ADD SWAP2 SWAP1 PUSH1 0x1 ADD SWAP1 PUSH3 0xB17 JUMP JUMPDEST POP PUSH3 0x6FF SWAP3 SWAP2 POP JUMPDEST DUP1 DUP3 GT ISZERO PUSH3 0x6FF JUMPI PUSH1 0x0 DUP2 SSTORE PUSH1 0x1 ADD PUSH3 0xB3D JUMP JUMPDEST PUSH1 0x0 DUP3 NOT DUP3 GT ISZERO PUSH3 0xB69 JUMPI PUSH3 0xB69 PUSH3 0xBC5 JUMP JUMPDEST POP ADD SWAP1 JUMP JUMPDEST PUSH1 0x0 DUP3 DUP3 LT ISZERO PUSH3 0xB83 JUMPI PUSH3 0xB83 PUSH3 0xBC5 JUMP JUMPDEST POP SUB SWAP1 JUMP JUMPDEST PUSH1 0x1 DUP2 DUP2 SHR SWAP1 DUP3 AND DUP1 PUSH3 0xB9D JUMPI PUSH1 0x7F DUP3 AND SWAP2 POP JUMPDEST PUSH1 0x20 DUP3 LT DUP2 EQ ISZERO PUSH3 0xBBF JUMPI PUSH4 0x4E487B71 PUSH1 0xE0 SHL PUSH1 0x0 MSTORE PUSH1 0x22 PUSH1 0x4 MSTORE PUSH1 0x24 PUSH1 0x0 REVERT JUMPDEST POP SWAP2 SWAP1 POP JUMP JUMPDEST PUSH4 0x4E487B71 PUSH1 0xE0 SHL PUSH1 0x0 MSTORE PUSH1 0x11 PUSH1 0x4 MSTORE PUSH1 0x24 PUSH1 0x0 REVERT JUMPDEST PUSH4 0x4E487B71 PUSH1 0xE0 SHL PUSH1 0x0 MSTORE PUSH1 0x32 PUSH1 0x4 MSTORE PUSH1 0x24 PUSH1 0x0 REVERT JUMPDEST PUSH1 0x80 MLOAD PUSH1 0xA0 MLOAD PUSH1 0xC0 MLOAD PUSH1 0x60 SHR PUSH1 0xE0 MLOAD PUSH2 0x100 MLOAD PUSH2 0x120 MLOAD PUSH2 0x2EB3 PUSH3 0xC44 PUSH1 0x0 CODECOPY PUSH1 0x0 PUSH2 0x18D4 ADD MSTORE PUSH1 0x0 PUSH2 0x1923 ADD MSTORE PUSH1 0x0 PUSH2 0x18FE ADD MSTORE PUSH1 0x0 PUSH2 0x1857 ADD MSTORE PUSH1 0x0 PUSH2 0x1881 ADD MSTORE PUSH1 0x0 PUSH2 0x18AB ADD MSTORE PUSH2 0x2EB3 PUSH1 0x0 RETURN INVALID PUSH1 0x80 PUSH1 0x40 MSTORE CALLVALUE DUP1 ISZERO PUSH2 0x10 JUMPI PUSH1 0x0 DUP1 REVERT JUMPDEST POP PUSH1 0x4 CALLDATASIZE LT PUSH2 0x2DE JUMPI PUSH1 0x0 CALLDATALOAD PUSH1 0xE0 SHR DUP1 PUSH4 0x70A08231 GT PUSH2 0x186 JUMPI DUP1 PUSH4 0x9AB24EB0 GT PUSH2 0xE3 JUMPI DUP1 PUSH4 0xD505ACCF GT PUSH2 0x97 JUMPI DUP1 PUSH4 0xDD62ED3E GT PUSH2 0x71 JUMPI DUP1 PUSH4 0xDD62ED3E EQ PUSH2 0x63F JUMPI DUP1 PUSH4 0xE63AB1E9 EQ PUSH2 0x678 JUMPI DUP1 PUSH4 0xF1127ED8 EQ PUSH2 0x69F JUMPI PUSH1 0x0 DUP1 REVERT JUMPDEST DUP1 PUSH4 0xD505ACCF EQ PUSH2 0x5F2 JUMPI DUP1 PUSH4 0xD5391393 EQ PUSH2 0x605 JUMPI DUP1 PUSH4 0xD547741F EQ PUSH2 0x62C JUMPI PUSH1 0x0 DUP1 REVERT JUMPDEST DUP1 PUSH4 0xA457C2D7 GT PUSH2 0xC8 JUMPI DUP1 PUSH4 0xA457C2D7 EQ PUSH2 0x5B9 JUMPI DUP1 PUSH4 0xA9059CBB EQ PUSH2 0x5CC JUMPI DUP1 PUSH4 0xC3CDA520 EQ PUSH2 0x5DF JUMPI PUSH1 0x0 DUP1 REVERT JUMPDEST DUP1 PUSH4 0x9AB24EB0 EQ PUSH2 0x59E JUMPI DUP1 PUSH4 0xA217FDDF EQ PUSH2 0x5B1 JUMPI PUSH1 0x0 DUP1 REVERT JUMPDEST DUP1 PUSH4 0x8E539E8C GT PUSH2 0x13A JUMPI DUP1 PUSH4 0x95D89B41 GT PUSH2 0x11F JUMPI DUP1 PUSH4 0x95D89B41 EQ PUSH2 0x57B JUMPI DUP1 PUSH4 0x9711715A EQ PUSH2 0x583 JUMPI DUP1 PUSH4 0x981B24D0 EQ PUSH2 0x58B JUMPI PUSH1 0x0 DUP1 REVERT JUMPDEST DUP1 PUSH4 0x8E539E8C EQ PUSH2 0x52F JUMPI DUP1 PUSH4 0x91D14854 EQ PUSH2 0x542 JUMPI PUSH1 0x0 DUP1 REVERT JUMPDEST DUP1 PUSH4 0x7ECEBE00 GT PUSH2 0x16B JUMPI DUP1 PUSH4 0x7ECEBE00 EQ PUSH2 0x50E JUMPI DUP1 PUSH4 0x8456CB59 EQ PUSH2 0x521 JUMPI DUP1 PUSH4 0x8DA5CB5B EQ PUSH2 0x529 JUMPI PUSH1 0x0 DUP1 REVERT JUMPDEST DUP1 PUSH4 0x70A08231 EQ PUSH2 0x4D2 JUMPI DUP1 PUSH4 0x79CC6790 EQ PUSH2 0x4FB JUMPI PUSH1 0x0 DUP1 REVERT JUMPDEST DUP1 PUSH4 0x39509351 GT PUSH2 0x23F JUMPI DUP1 PUSH4 0x4EE2CD7E GT PUSH2 0x1F3 JUMPI DUP1 PUSH4 0x5C975ABB GT PUSH2 0x1CD JUMPI DUP1 PUSH4 0x5C975ABB EQ PUSH2 0x478 JUMPI DUP1 PUSH4 0x6FCFFF45 EQ PUSH2 0x483 JUMPI DUP1 PUSH4 0x7028E2CD EQ PUSH2 0x4AB JUMPI PUSH1 0x0 DUP1 REVERT JUMPDEST DUP1 PUSH4 0x4EE2CD7E EQ PUSH2 0x40E JUMPI DUP1 PUSH4 0x587CDE1E EQ PUSH2 0x421 JUMPI DUP1 PUSH4 0x5C19A95C EQ PUSH2 0x465 JUMPI PUSH1 0x0 DUP1 REVERT JUMPDEST DUP1 PUSH4 0x3F4BA83A GT PUSH2 0x224 JUMPI DUP1 PUSH4 0x3F4BA83A EQ PUSH2 0x3E0 JUMPI DUP1 PUSH4 0x40C10F19 EQ PUSH2 0x3E8 JUMPI DUP1 PUSH4 0x42966C68 EQ PUSH2 0x3FB JUMPI PUSH1 0x0 DUP1 REVERT JUMPDEST DUP1 PUSH4 0x39509351 EQ PUSH2 0x3BA JUMPI DUP1 PUSH4 0x3A46B1A8 EQ PUSH2 0x3CD JUMPI PUSH1 0x0 DUP1 REVERT JUMPDEST DUP1 PUSH4 0x248A9CA3 GT PUSH2 0x296 JUMPI DUP1 PUSH4 0x313CE567 GT PUSH2 0x27B JUMPI DUP1 PUSH4 0x313CE567 EQ PUSH2 0x390 JUMPI DUP1 PUSH4 0x3644E515 EQ PUSH2 0x39F JUMPI DUP1 PUSH4 0x36568ABE EQ PUSH2 0x3A7 JUMPI PUSH1 0x0 DUP1 REVERT JUMPDEST DUP1 PUSH4 0x248A9CA3 EQ PUSH2 0x358 JUMPI DUP1 PUSH4 0x2F2FF15D EQ PUSH2 0x37B JUMPI PUSH1 0x0 DUP1 REVERT JUMPDEST DUP1 PUSH4 0x95EA7B3 GT PUSH2 0x2C7 JUMPI DUP1 PUSH4 0x95EA7B3 EQ PUSH2 0x320 JUMPI DUP1 PUSH4 0x18160DDD EQ PUSH2 0x333 JUMPI DUP1 PUSH4 0x23B872DD EQ PUSH2 0x345 JUMPI PUSH1 0x0 DUP1 REVERT JUMPDEST DUP1 PUSH4 0x1FFC9A7 EQ PUSH2 0x2E3 JUMPI DUP1 PUSH4 0x6FDDE03 EQ PUSH2 0x30B JUMPI JUMPDEST PUSH1 0x0 DUP1 REVERT JUMPDEST PUSH2 0x2F6 PUSH2 0x2F1 CALLDATASIZE PUSH1 0x4 PUSH2 0x2C47 JUMP JUMPDEST PUSH2 0x6DC JUMP JUMPDEST PUSH1 0x40 MLOAD SWAP1 ISZERO ISZERO DUP2 MSTORE PUSH1 0x20 ADD JUMPDEST PUSH1 0x40 MLOAD DUP1 SWAP2 SUB SWAP1 RETURN JUMPDEST PUSH2 0x313 PUSH2 0x775 JUMP JUMPDEST PUSH1 0x40 MLOAD PUSH2 0x302 SWAP2 SWAP1 PUSH2 0x2D0A JUMP JUMPDEST PUSH2 0x2F6 PUSH2 0x32E CALLDATASIZE PUSH1 0x4 PUSH2 0x2B49 JUMP JUMPDEST PUSH2 0x807 JUMP JUMPDEST PUSH1 0x2 SLOAD JUMPDEST PUSH1 0x40 MLOAD SWAP1 DUP2 MSTORE PUSH1 0x20 ADD PUSH2 0x302 JUMP JUMPDEST PUSH2 0x2F6 PUSH2 0x353 CALLDATASIZE PUSH1 0x4 PUSH2 0x2AA3 JUMP JUMPDEST PUSH2 0x81F JUMP JUMPDEST PUSH2 0x337 PUSH2 0x366 CALLDATASIZE PUSH1 0x4 PUSH2 0x2C0B JUMP JUMPDEST PUSH1 0x0 SWAP1 DUP2 MSTORE PUSH1 0x9 PUSH1 0x20 MSTORE PUSH1 0x40 SWAP1 KECCAK256 PUSH1 0x1 ADD SLOAD SWAP1 JUMP JUMPDEST PUSH2 0x38E PUSH2 0x389 CALLDATASIZE PUSH1 0x4 PUSH2 0x2C24 JUMP JUMPDEST PUSH2 0x843 JUMP JUMPDEST STOP JUMPDEST PUSH1 0x40 MLOAD PUSH1 0x12 DUP2 MSTORE PUSH1 0x20 ADD PUSH2 0x302 JUMP JUMPDEST PUSH2 0x337 PUSH2 0x86D JUMP JUMPDEST PUSH2 0x38E PUSH2 0x3B5 CALLDATASIZE PUSH1 0x4 PUSH2 0x2C24 JUMP JUMPDEST PUSH2 0x87C JUMP JUMPDEST PUSH2 0x2F6 PUSH2 0x3C8 CALLDATASIZE PUSH1 0x4 PUSH2 0x2B49 JUMP JUMPDEST PUSH2 0x90D JUMP JUMPDEST PUSH2 0x337 PUSH2 0x3DB CALLDATASIZE PUSH1 0x4 PUSH2 0x2B49 JUMP JUMPDEST PUSH2 0x94C JUMP JUMPDEST PUSH2 0x38E PUSH2 0x9C6 JUMP JUMPDEST PUSH2 0x38E PUSH2 0x3F6 CALLDATASIZE PUSH1 0x4 PUSH2 0x2B49 JUMP JUMPDEST PUSH2 0x9FB JUMP JUMPDEST PUSH2 0x38E PUSH2 0x409 CALLDATASIZE PUSH1 0x4 PUSH2 0x2C0B JUMP JUMPDEST PUSH2 0xA2F JUMP JUMPDEST PUSH2 0x337 PUSH2 0x41C CALLDATASIZE PUSH1 0x4 PUSH2 0x2B49 JUMP JUMPDEST PUSH2 0xA39 JUMP JUMPDEST PUSH2 0x44D PUSH2 0x42F CALLDATASIZE PUSH1 0x4 PUSH2 0x2A55 JUMP JUMPDEST PUSH1 0x1 PUSH1 0x1 PUSH1 0xA0 SHL SUB SWAP1 DUP2 AND PUSH1 0x0 SWAP1 DUP2 MSTORE PUSH1 0xD PUSH1 0x20 MSTORE PUSH1 0x40 SWAP1 KECCAK256 SLOAD AND SWAP1 JUMP JUMPDEST PUSH1 0x40 MLOAD PUSH1 0x1 PUSH1 0x1 PUSH1 0xA0 SHL SUB SWAP1 SWAP2 AND DUP2 MSTORE PUSH1 0x20 ADD PUSH2 0x302 JUMP JUMPDEST PUSH2 0x38E PUSH2 0x473 CALLDATASIZE PUSH1 0x4 PUSH2 0x2A55 JUMP JUMPDEST PUSH2 0xA92 JUMP JUMPDEST PUSH1 0xA SLOAD PUSH1 0xFF AND PUSH2 0x2F6 JUMP JUMPDEST PUSH2 0x496 PUSH2 0x491 CALLDATASIZE PUSH1 0x4 PUSH2 0x2A55 JUMP JUMPDEST PUSH2 0xA9C JUMP JUMPDEST PUSH1 0x40 MLOAD PUSH4 0xFFFFFFFF SWAP1 SWAP2 AND DUP2 MSTORE PUSH1 0x20 ADD PUSH2 0x302 JUMP JUMPDEST PUSH2 0x337 PUSH32 0x5FDBD35E8DA83EE755D5E62A539E5ED7F47126ABEDE0B8B10F9EA43DC6EED07F DUP2 JUMP JUMPDEST PUSH2 0x337 PUSH2 0x4E0 CALLDATASIZE PUSH1 0x4 PUSH2 0x2A55 JUMP JUMPDEST PUSH1 0x1 PUSH1 0x1 PUSH1 0xA0 SHL SUB AND PUSH1 0x0 SWAP1 DUP2 MSTORE PUSH1 0x20 DUP2 SWAP1 MSTORE PUSH1 0x40 SWAP1 KECCAK256 SLOAD SWAP1 JUMP JUMPDEST PUSH2 0x38E PUSH2 0x509 CALLDATASIZE PUSH1 0x4 PUSH2 0x2B49 JUMP JUMPDEST PUSH2 0xABE JUMP JUMPDEST PUSH2 0x337 PUSH2 0x51C CALLDATASIZE PUSH1 0x4 PUSH2 0x2A55 JUMP JUMPDEST PUSH2 0xAD3 JUMP JUMPDEST PUSH2 0x38E PUSH2 0xAF1 JUMP JUMPDEST CALLER PUSH2 0x44D JUMP JUMPDEST PUSH2 0x337 PUSH2 0x53D CALLDATASIZE PUSH1 0x4 PUSH2 0x2C0B JUMP JUMPDEST PUSH2 0xB23 JUMP JUMPDEST PUSH2 0x2F6 PUSH2 0x550 CALLDATASIZE PUSH1 0x4 PUSH2 0x2C24 JUMP JUMPDEST PUSH1 0x0 SWAP2 DUP3 MSTORE PUSH1 0x9 PUSH1 0x20 SWAP1 DUP2 MSTORE PUSH1 0x40 DUP1 DUP5 KECCAK256 PUSH1 0x1 PUSH1 0x1 PUSH1 0xA0 SHL SUB SWAP4 SWAP1 SWAP4 AND DUP5 MSTORE SWAP2 SWAP1 MSTORE SWAP1 KECCAK256 SLOAD PUSH1 0xFF AND SWAP1 JUMP JUMPDEST PUSH2 0x313 PUSH2 0xB7F JUMP JUMPDEST PUSH2 0x38E PUSH2 0xB8E JUMP JUMPDEST PUSH2 0x337 PUSH2 0x599 CALLDATASIZE PUSH1 0x4 PUSH2 0x2C0B JUMP JUMPDEST PUSH2 0xBC0 JUMP JUMPDEST PUSH2 0x337 PUSH2 0x5AC CALLDATASIZE PUSH1 0x4 PUSH2 0x2A55 JUMP JUMPDEST PUSH2 0xBEB JUMP JUMPDEST PUSH2 0x337 PUSH1 0x0 DUP2 JUMP JUMPDEST PUSH2 0x2F6 PUSH2 0x5C7 CALLDATASIZE PUSH1 0x4 PUSH2 0x2B49 JUMP JUMPDEST PUSH2 0xC72 JUMP JUMPDEST PUSH2 0x2F6 PUSH2 0x5DA CALLDATASIZE PUSH1 0x4 PUSH2 0x2B49 JUMP JUMPDEST PUSH2 0xD1C JUMP JUMPDEST PUSH2 0x38E PUSH2 0x5ED CALLDATASIZE PUSH1 0x4 PUSH2 0x2B73 JUMP JUMPDEST PUSH2 0xD2A JUMP JUMPDEST PUSH2 0x38E PUSH2 0x600 CALLDATASIZE PUSH1 0x4 PUSH2 0x2ADF JUMP JUMPDEST PUSH2 0xE60 JUMP JUMPDEST PUSH2 0x337 PUSH32 0x9F2DF0FED2C77648DE5860A4CC508CD0818C85B8B8A1AB4CEEEF8D981C8956A6 DUP2 JUMP JUMPDEST PUSH2 0x38E PUSH2 0x63A CALLDATASIZE PUSH1 0x4 PUSH2 0x2C24 JUMP JUMPDEST PUSH2 0xFC4 JUMP JUMPDEST PUSH2 0x337 PUSH2 0x64D CALLDATASIZE PUSH1 0x4 PUSH2 0x2A70 JUMP JUMPDEST PUSH1 0x1 PUSH1 0x1 PUSH1 0xA0 SHL SUB SWAP2 DUP3 AND PUSH1 0x0 SWAP1 DUP2 MSTORE PUSH1 0x1 PUSH1 0x20 SWAP1 DUP2 MSTORE PUSH1 0x40 DUP1 DUP4 KECCAK256 SWAP4 SWAP1 SWAP5 AND DUP3 MSTORE SWAP2 SWAP1 SWAP2 MSTORE KECCAK256 SLOAD SWAP1 JUMP JUMPDEST PUSH2 0x337 PUSH32 0x65D7A28E3265B37A6474929F336521B332C1681B933F6CB9F3376673440D862A DUP2 JUMP JUMPDEST PUSH2 0x6B2 PUSH2 0x6AD CALLDATASIZE PUSH1 0x4 PUSH2 0x2BCB JUMP JUMPDEST PUSH2 0xFE9 JUMP JUMPDEST PUSH1 0x40 DUP1 MLOAD DUP3 MLOAD PUSH4 0xFFFFFFFF AND DUP2 MSTORE PUSH1 0x20 SWAP3 DUP4 ADD MLOAD PUSH1 0x1 PUSH1 0x1 PUSH1 0xE0 SHL SUB AND SWAP3 DUP2 ADD SWAP3 SWAP1 SWAP3 MSTORE ADD PUSH2 0x302 JUMP JUMPDEST PUSH1 0x0 PUSH32 0xFFFFFFFF00000000000000000000000000000000000000000000000000000000 DUP3 AND PUSH32 0x7965DB0B00000000000000000000000000000000000000000000000000000000 EQ DUP1 PUSH2 0x76F JUMPI POP PUSH32 0x1FFC9A700000000000000000000000000000000000000000000000000000000 PUSH32 0xFFFFFFFF00000000000000000000000000000000000000000000000000000000 DUP4 AND EQ JUMPDEST SWAP3 SWAP2 POP POP JUMP JUMPDEST PUSH1 0x60 PUSH1 0x3 DUP1 SLOAD PUSH2 0x784 SWAP1 PUSH2 0x2DF0 JUMP JUMPDEST DUP1 PUSH1 0x1F ADD PUSH1 0x20 DUP1 SWAP2 DIV MUL PUSH1 0x20 ADD PUSH1 0x40 MLOAD SWAP1 DUP2 ADD PUSH1 0x40 MSTORE DUP1 SWAP3 SWAP2 SWAP1 DUP2 DUP2 MSTORE PUSH1 0x20 ADD DUP3 DUP1 SLOAD PUSH2 0x7B0 SWAP1 PUSH2 0x2DF0 JUMP JUMPDEST DUP1 ISZERO PUSH2 0x7FD JUMPI DUP1 PUSH1 0x1F LT PUSH2 0x7D2 JUMPI PUSH2 0x100 DUP1 DUP4 SLOAD DIV MUL DUP4 MSTORE SWAP2 PUSH1 0x20 ADD SWAP2 PUSH2 0x7FD JUMP JUMPDEST DUP3 ADD SWAP2 SWAP1 PUSH1 0x0 MSTORE PUSH1 0x20 PUSH1 0x0 KECCAK256 SWAP1 JUMPDEST DUP2 SLOAD DUP2 MSTORE SWAP1 PUSH1 0x1 ADD SWAP1 PUSH1 0x20 ADD DUP1 DUP4 GT PUSH2 0x7E0 JUMPI DUP3 SWAP1 SUB PUSH1 0x1F AND DUP3 ADD SWAP2 JUMPDEST POP POP POP POP POP SWAP1 POP SWAP1 JUMP JUMPDEST PUSH1 0x0 CALLER PUSH2 0x815 DUP2 DUP6 DUP6 PUSH2 0x1392 JUMP JUMPDEST POP PUSH1 0x1 SWAP4 SWAP3 POP POP POP JUMP JUMPDEST PUSH1 0x0 CALLER PUSH2 0x82D DUP6 DUP3 DUP6 PUSH2 0x14EA JUMP JUMPDEST PUSH2 0x838 DUP6 DUP6 DUP6 PUSH2 0x1576 JUMP JUMPDEST POP PUSH1 0x1 SWAP5 SWAP4 POP POP POP POP JUMP JUMPDEST PUSH1 0x0 DUP3 DUP2 MSTORE PUSH1 0x9 PUSH1 0x20 MSTORE PUSH1 0x40 SWAP1 KECCAK256 PUSH1 0x1 ADD SLOAD PUSH2 0x85E DUP2 PUSH2 0x179E JUMP JUMPDEST PUSH2 0x868 DUP4 DUP4 PUSH2 0x17A8 JUMP JUMPDEST POP POP POP JUMP JUMPDEST PUSH1 0x0 PUSH2 0x877 PUSH2 0x184A JUMP JUMPDEST SWAP1 POP SWAP1 JUMP JUMPDEST PUSH1 0x1 PUSH1 0x1 PUSH1 0xA0 SHL SUB DUP2 AND CALLER EQ PUSH2 0x8FF JUMPI PUSH1 0x40 MLOAD PUSH3 0x461BCD PUSH1 0xE5 SHL DUP2 MSTORE PUSH1 0x20 PUSH1 0x4 DUP3 ADD MSTORE PUSH1 0x2F PUSH1 0x24 DUP3 ADD MSTORE PUSH32 0x416363657373436F6E74726F6C3A2063616E206F6E6C792072656E6F756E6365 PUSH1 0x44 DUP3 ADD MSTORE PUSH32 0x20726F6C657320666F722073656C660000000000000000000000000000000000 PUSH1 0x64 DUP3 ADD MSTORE PUSH1 0x84 ADD JUMPDEST PUSH1 0x40 MLOAD DUP1 SWAP2 SUB SWAP1 REVERT JUMPDEST PUSH2 0x909 DUP3 DUP3 PUSH2 0x1971 JUMP JUMPDEST POP POP JUMP JUMPDEST CALLER PUSH1 0x0 DUP2 DUP2 MSTORE PUSH1 0x1 PUSH1 0x20 SWAP1 DUP2 MSTORE PUSH1 0x40 DUP1 DUP4 KECCAK256 PUSH1 0x1 PUSH1 0x1 PUSH1 0xA0 SHL SUB DUP8 AND DUP5 MSTORE SWAP1 SWAP2 MSTORE DUP2 KECCAK256 SLOAD SWAP1 SWAP2 SWAP1 PUSH2 0x815 SWAP1 DUP3 SWAP1 DUP7 SWAP1 PUSH2 0x947 SWAP1 DUP8 SWAP1 PUSH2 0x2D3D JUMP JUMPDEST PUSH2 0x1392 JUMP JUMPDEST PUSH1 0x0 NUMBER DUP3 LT PUSH2 0x99D JUMPI PUSH1 0x40 MLOAD PUSH3 0x461BCD PUSH1 0xE5 SHL DUP2 MSTORE PUSH1 0x20 PUSH1 0x4 DUP3 ADD MSTORE PUSH1 0x1F PUSH1 0x24 DUP3 ADD MSTORE PUSH32 0x4552433230566F7465733A20626C6F636B206E6F7420796574206D696E656400 PUSH1 0x44 DUP3 ADD MSTORE PUSH1 0x64 ADD PUSH2 0x8F6 JUMP JUMPDEST PUSH1 0x1 PUSH1 0x1 PUSH1 0xA0 SHL SUB DUP4 AND PUSH1 0x0 SWAP1 DUP2 MSTORE PUSH1 0xE PUSH1 0x20 MSTORE PUSH1 0x40 SWAP1 KECCAK256 PUSH2 0x9BF SWAP1 DUP4 PUSH2 0x19F4 JUMP JUMPDEST SWAP4 SWAP3 POP POP POP JUMP JUMPDEST PUSH32 0x65D7A28E3265B37A6474929F336521B332C1681B933F6CB9F3376673440D862A PUSH2 0x9F0 DUP2 PUSH2 0x179E JUMP JUMPDEST PUSH2 0x9F8 PUSH2 0x1AB1 JUMP JUMPDEST POP JUMP JUMPDEST PUSH32 0x9F2DF0FED2C77648DE5860A4CC508CD0818C85B8B8A1AB4CEEEF8D981C8956A6 PUSH2 0xA25 DUP2 PUSH2 0x179E JUMP JUMPDEST PUSH2 0x868 DUP4 DUP4 PUSH2 0x1B03 JUMP JUMPDEST PUSH2 0x9F8 CALLER DUP3 PUSH2 0x1B0D JUMP JUMPDEST PUSH1 0x1 PUSH1 0x1 PUSH1 0xA0 SHL SUB DUP3 AND PUSH1 0x0 SWAP1 DUP2 MSTORE PUSH1 0x5 PUSH1 0x20 MSTORE PUSH1 0x40 DUP2 KECCAK256 DUP2 SWAP1 DUP2 SWAP1 PUSH2 0xA60 SWAP1 DUP6 SWAP1 PUSH2 0x1B17 JUMP JUMPDEST SWAP2 POP SWAP2 POP DUP2 PUSH2 0xA87 JUMPI PUSH1 0x1 PUSH1 0x1 PUSH1 0xA0 SHL SUB DUP6 AND PUSH1 0x0 SWAP1 DUP2 MSTORE PUSH1 0x20 DUP2 SWAP1 MSTORE PUSH1 0x40 SWAP1 KECCAK256 SLOAD PUSH2 0xA89 JUMP JUMPDEST DUP1 JUMPDEST SWAP6 SWAP5 POP POP POP POP POP JUMP JUMPDEST PUSH2 0x9F8 CALLER DUP3 PUSH2 0x1C15 JUMP JUMPDEST PUSH1 0x1 PUSH1 0x1 PUSH1 0xA0 SHL SUB DUP2 AND PUSH1 0x0 SWAP1 DUP2 MSTORE PUSH1 0xE PUSH1 0x20 MSTORE PUSH1 0x40 DUP2 KECCAK256 SLOAD PUSH2 0x76F SWAP1 PUSH2 0x128C JUMP JUMPDEST PUSH2 0xAC9 DUP3 CALLER DUP4 PUSH2 0x14EA JUMP JUMPDEST PUSH2 0x909 DUP3 DUP3 PUSH2 0x1B0D JUMP JUMPDEST PUSH1 0x1 PUSH1 0x1 PUSH1 0xA0 SHL SUB DUP2 AND PUSH1 0x0 SWAP1 DUP2 MSTORE PUSH1 0xB PUSH1 0x20 MSTORE PUSH1 0x40 DUP2 KECCAK256 SLOAD PUSH2 0x76F JUMP JUMPDEST PUSH32 0x65D7A28E3265B37A6474929F336521B332C1681B933F6CB9F3376673440D862A PUSH2 0xB1B DUP2 PUSH2 0x179E JUMP JUMPDEST PUSH2 0x9F8 PUSH2 0x1CA6 JUMP JUMPDEST PUSH1 0x0 NUMBER DUP3 LT PUSH2 0xB74 JUMPI PUSH1 0x40 MLOAD PUSH3 0x461BCD PUSH1 0xE5 SHL DUP2 MSTORE PUSH1 0x20 PUSH1 0x4 DUP3 ADD MSTORE PUSH1 0x1F PUSH1 0x24 DUP3 ADD MSTORE PUSH32 0x4552433230566F7465733A20626C6F636B206E6F7420796574206D696E656400 PUSH1 0x44 DUP3 ADD MSTORE PUSH1 0x64 ADD PUSH2 0x8F6 JUMP JUMPDEST PUSH2 0x76F PUSH1 0xF DUP4 PUSH2 0x19F4 JUMP JUMPDEST PUSH1 0x60 PUSH1 0x4 DUP1 SLOAD PUSH2 0x784 SWAP1 PUSH2 0x2DF0 JUMP JUMPDEST PUSH32 0x5FDBD35E8DA83EE755D5E62A539E5ED7F47126ABEDE0B8B10F9EA43DC6EED07F PUSH2 0xBB8 DUP2 PUSH2 0x179E JUMP JUMPDEST PUSH2 0x909 PUSH2 0x1CE3 JUMP JUMPDEST PUSH1 0x0 DUP1 PUSH1 0x0 PUSH2 0xBD0 DUP5 PUSH1 0x6 PUSH2 0x1B17 JUMP JUMPDEST SWAP2 POP SWAP2 POP DUP2 PUSH2 0xBE1 JUMPI PUSH1 0x2 SLOAD PUSH2 0xBE3 JUMP JUMPDEST DUP1 JUMPDEST SWAP5 SWAP4 POP POP POP POP JUMP JUMPDEST PUSH1 0x1 PUSH1 0x1 PUSH1 0xA0 SHL SUB DUP2 AND PUSH1 0x0 SWAP1 DUP2 MSTORE PUSH1 0xE PUSH1 0x20 MSTORE PUSH1 0x40 DUP2 KECCAK256 SLOAD DUP1 ISZERO PUSH2 0xC5F JUMPI PUSH1 0x1 PUSH1 0x1 PUSH1 0xA0 SHL SUB DUP4 AND PUSH1 0x0 SWAP1 DUP2 MSTORE PUSH1 0xE PUSH1 0x20 MSTORE PUSH1 0x40 SWAP1 KECCAK256 PUSH2 0xC2D PUSH1 0x1 DUP4 PUSH2 0x2D96 JUMP JUMPDEST DUP2 SLOAD DUP2 LT PUSH2 0xC3D JUMPI PUSH2 0xC3D PUSH2 0x2E51 JUMP JUMPDEST PUSH1 0x0 SWAP2 DUP3 MSTORE PUSH1 0x20 SWAP1 SWAP2 KECCAK256 ADD SLOAD PUSH5 0x100000000 SWAP1 DIV PUSH1 0x1 PUSH1 0x1 PUSH1 0xE0 SHL SUB AND PUSH2 0xC62 JUMP JUMPDEST PUSH1 0x0 JUMPDEST PUSH1 0x1 PUSH1 0x1 PUSH1 0xE0 SHL SUB AND SWAP4 SWAP3 POP POP POP JUMP JUMPDEST CALLER PUSH1 0x0 DUP2 DUP2 MSTORE PUSH1 0x1 PUSH1 0x20 SWAP1 DUP2 MSTORE PUSH1 0x40 DUP1 DUP4 KECCAK256 PUSH1 0x1 PUSH1 0x1 PUSH1 0xA0 SHL SUB DUP8 AND DUP5 MSTORE SWAP1 SWAP2 MSTORE DUP2 KECCAK256 SLOAD SWAP1 SWAP2 SWAP1 DUP4 DUP2 LT ISZERO PUSH2 0xD0F JUMPI PUSH1 0x40 MLOAD PUSH3 0x461BCD PUSH1 0xE5 SHL DUP2 MSTORE PUSH1 0x20 PUSH1 0x4 DUP3 ADD MSTORE PUSH1 0x25 PUSH1 0x24 DUP3 ADD MSTORE PUSH32 0x45524332303A2064656372656173656420616C6C6F77616E63652062656C6F77 PUSH1 0x44 DUP3 ADD MSTORE PUSH32 0x207A65726F000000000000000000000000000000000000000000000000000000 PUSH1 0x64 DUP3 ADD MSTORE PUSH1 0x84 ADD PUSH2 0x8F6 JUMP JUMPDEST PUSH2 0x838 DUP3 DUP7 DUP7 DUP5 SUB PUSH2 0x1392 JUMP JUMPDEST PUSH1 0x0 CALLER PUSH2 0x815 DUP2 DUP6 DUP6 PUSH2 0x1576 JUMP JUMPDEST DUP4 TIMESTAMP GT ISZERO PUSH2 0xD7A JUMPI PUSH1 0x40 MLOAD PUSH3 0x461BCD PUSH1 0xE5 SHL DUP2 MSTORE PUSH1 0x20 PUSH1 0x4 DUP3 ADD MSTORE PUSH1 0x1D PUSH1 0x24 DUP3 ADD MSTORE PUSH32 0x4552433230566F7465733A207369676E61747572652065787069726564000000 PUSH1 0x44 DUP3 ADD MSTORE PUSH1 0x64 ADD PUSH2 0x8F6 JUMP JUMPDEST PUSH1 0x40 DUP1 MLOAD PUSH32 0xE48329057BFD03D55E49B547132E39CFFD9C1820AD7B9D4C5307691425D15ADF PUSH1 0x20 DUP3 ADD MSTORE PUSH1 0x1 PUSH1 0x1 PUSH1 0xA0 SHL SUB DUP9 AND SWAP2 DUP2 ADD SWAP2 SWAP1 SWAP2 MSTORE PUSH1 0x60 DUP2 ADD DUP7 SWAP1 MSTORE PUSH1 0x80 DUP2 ADD DUP6 SWAP1 MSTORE PUSH1 0x0 SWAP1 PUSH2 0xDF4 SWAP1 PUSH2 0xDEC SWAP1 PUSH1 0xA0 ADD PUSH1 0x40 MLOAD PUSH1 0x20 DUP2 DUP4 SUB SUB DUP2 MSTORE SWAP1 PUSH1 0x40 MSTORE DUP1 MLOAD SWAP1 PUSH1 0x20 ADD KECCAK256 PUSH2 0x1D3D JUMP JUMPDEST DUP6 DUP6 DUP6 PUSH2 0x1DA6 JUMP JUMPDEST SWAP1 POP PUSH2 0xDFF DUP2 PUSH2 0x1DCE JUMP JUMPDEST DUP7 EQ PUSH2 0xE4D JUMPI PUSH1 0x40 MLOAD PUSH3 0x461BCD PUSH1 0xE5 SHL DUP2 MSTORE PUSH1 0x20 PUSH1 0x4 DUP3 ADD MSTORE PUSH1 0x19 PUSH1 0x24 DUP3 ADD MSTORE PUSH32 0x4552433230566F7465733A20696E76616C6964206E6F6E636500000000000000 PUSH1 0x44 DUP3 ADD MSTORE PUSH1 0x64 ADD PUSH2 0x8F6 JUMP JUMPDEST PUSH2 0xE57 DUP2 DUP9 PUSH2 0x1C15 JUMP JUMPDEST POP POP POP POP POP POP POP JUMP JUMPDEST DUP4 TIMESTAMP GT ISZERO PUSH2 0xEB0 JUMPI PUSH1 0x40 MLOAD PUSH3 0x461BCD PUSH1 0xE5 SHL DUP2 MSTORE PUSH1 0x20 PUSH1 0x4 DUP3 ADD MSTORE PUSH1 0x1D PUSH1 0x24 DUP3 ADD MSTORE PUSH32 0x45524332305065726D69743A206578706972656420646561646C696E65000000 PUSH1 0x44 DUP3 ADD MSTORE PUSH1 0x64 ADD PUSH2 0x8F6 JUMP JUMPDEST PUSH1 0x0 PUSH32 0x6E71EDAE12B1B97F4D1F60370FEF10105FA2FAAE0126114A169C64845D6126C9 DUP9 DUP9 DUP9 PUSH2 0xEDF DUP13 PUSH2 0x1DCE JUMP JUMPDEST PUSH1 0x40 DUP1 MLOAD PUSH1 0x20 DUP2 ADD SWAP7 SWAP1 SWAP7 MSTORE PUSH1 0x1 PUSH1 0x1 PUSH1 0xA0 SHL SUB SWAP5 DUP6 AND SWAP1 DUP7 ADD MSTORE SWAP3 SWAP1 SWAP2 AND PUSH1 0x60 DUP5 ADD MSTORE PUSH1 0x80 DUP4 ADD MSTORE PUSH1 0xA0 DUP3 ADD MSTORE PUSH1 0xC0 DUP2 ADD DUP7 SWAP1 MSTORE PUSH1 0xE0 ADD PUSH1 0x40 MLOAD PUSH1 0x20 DUP2 DUP4 SUB SUB DUP2 MSTORE SWAP1 PUSH1 0x40 MSTORE DUP1 MLOAD SWAP1 PUSH1 0x20 ADD KECCAK256 SWAP1 POP PUSH1 0x0 PUSH2 0xF3A DUP3 PUSH2 0x1D3D JUMP JUMPDEST SWAP1 POP PUSH1 0x0 PUSH2 0xF4A DUP3 DUP8 DUP8 DUP8 PUSH2 0x1DA6 JUMP JUMPDEST SWAP1 POP DUP10 PUSH1 0x1 PUSH1 0x1 PUSH1 0xA0 SHL SUB AND DUP2 PUSH1 0x1 PUSH1 0x1 PUSH1 0xA0 SHL SUB AND EQ PUSH2 0xFAD JUMPI PUSH1 0x40 MLOAD PUSH3 0x461BCD PUSH1 0xE5 SHL DUP2 MSTORE PUSH1 0x20 PUSH1 0x4 DUP3 ADD MSTORE PUSH1 0x1E PUSH1 0x24 DUP3 ADD MSTORE PUSH32 0x45524332305065726D69743A20696E76616C6964207369676E61747572650000 PUSH1 0x44 DUP3 ADD MSTORE PUSH1 0x64 ADD PUSH2 0x8F6 JUMP JUMPDEST PUSH2 0xFB8 DUP11 DUP11 DUP11 PUSH2 0x1392 JUMP JUMPDEST POP POP POP POP POP POP POP POP POP POP JUMP JUMPDEST PUSH1 0x0 DUP3 DUP2 MSTORE PUSH1 0x9 PUSH1 0x20 MSTORE PUSH1 0x40 SWAP1 KECCAK256 PUSH1 0x1 ADD SLOAD PUSH2 0xFDF DUP2 PUSH2 0x179E JUMP JUMPDEST PUSH2 0x868 DUP4 DUP4 PUSH2 0x1971 JUMP JUMPDEST PUSH1 0x40 DUP1 MLOAD DUP1 DUP3 ADD SWAP1 SWAP2 MSTORE PUSH1 0x0 DUP1 DUP3 MSTORE PUSH1 0x20 DUP3 ADD MSTORE PUSH1 0x1 PUSH1 0x1 PUSH1 0xA0 SHL SUB DUP4 AND PUSH1 0x0 SWAP1 DUP2 MSTORE PUSH1 0xE PUSH1 0x20 MSTORE PUSH1 0x40 SWAP1 KECCAK256 DUP1 SLOAD PUSH4 0xFFFFFFFF DUP5 AND SWAP1 DUP2 LT PUSH2 0x102D JUMPI PUSH2 0x102D PUSH2 0x2E51 JUMP JUMPDEST PUSH1 0x0 SWAP2 DUP3 MSTORE PUSH1 0x20 SWAP2 DUP3 SWAP1 KECCAK256 PUSH1 0x40 DUP1 MLOAD DUP1 DUP3 ADD SWAP1 SWAP2 MSTORE SWAP2 ADD SLOAD PUSH4 0xFFFFFFFF DUP2 AND DUP3 MSTORE PUSH5 0x100000000 SWAP1 DIV PUSH1 0x1 PUSH1 0x1 PUSH1 0xE0 SHL SUB AND SWAP2 DUP2 ADD SWAP2 SWAP1 SWAP2 MSTORE SWAP4 SWAP3 POP POP POP JUMP JUMPDEST PUSH2 0x1077 DUP3 DUP3 PUSH2 0x110A JUMP JUMPDEST PUSH1 0x2 SLOAD PUSH1 0x1 PUSH1 0x1 PUSH1 0xE0 SHL SUB LT ISZERO PUSH2 0x10F6 JUMPI PUSH1 0x40 MLOAD PUSH3 0x461BCD PUSH1 0xE5 SHL DUP2 MSTORE PUSH1 0x20 PUSH1 0x4 DUP3 ADD MSTORE PUSH1 0x30 PUSH1 0x24 DUP3 ADD MSTORE PUSH32 0x4552433230566F7465733A20746F74616C20737570706C79207269736B73206F PUSH1 0x44 DUP3 ADD MSTORE PUSH32 0x766572666C6F77696E6720766F74657300000000000000000000000000000000 PUSH1 0x64 DUP3 ADD MSTORE PUSH1 0x84 ADD PUSH2 0x8F6 JUMP JUMPDEST PUSH2 0x1104 PUSH1 0xF PUSH2 0x11FD DUP4 PUSH2 0x1DF6 JUMP JUMPDEST POP POP POP POP JUMP JUMPDEST PUSH1 0x1 PUSH1 0x1 PUSH1 0xA0 SHL SUB DUP3 AND PUSH2 0x1160 JUMPI PUSH1 0x40 MLOAD PUSH3 0x461BCD PUSH1 0xE5 SHL DUP2 MSTORE PUSH1 0x20 PUSH1 0x4 DUP3 ADD MSTORE PUSH1 0x1F PUSH1 0x24 DUP3 ADD MSTORE PUSH32 0x45524332303A206D696E7420746F20746865207A65726F206164647265737300 PUSH1 0x44 DUP3 ADD MSTORE PUSH1 0x64 ADD PUSH2 0x8F6 JUMP JUMPDEST PUSH2 0x116C PUSH1 0x0 DUP4 DUP4 PUSH2 0x1F6F JUMP JUMPDEST DUP1 PUSH1 0x2 PUSH1 0x0 DUP3 DUP3 SLOAD PUSH2 0x117E SWAP2 SWAP1 PUSH2 0x2D3D JUMP JUMPDEST SWAP1 SWAP2 SSTORE POP POP PUSH1 0x1 PUSH1 0x1 PUSH1 0xA0 SHL SUB DUP3 AND PUSH1 0x0 SWAP1 DUP2 MSTORE PUSH1 0x20 DUP2 SWAP1 MSTORE PUSH1 0x40 DUP2 KECCAK256 DUP1 SLOAD DUP4 SWAP3 SWAP1 PUSH2 0x11AB SWAP1 DUP5 SWAP1 PUSH2 0x2D3D JUMP JUMPDEST SWAP1 SWAP2 SSTORE POP POP PUSH1 0x40 MLOAD DUP2 DUP2 MSTORE PUSH1 0x1 PUSH1 0x1 PUSH1 0xA0 SHL SUB DUP4 AND SWAP1 PUSH1 0x0 SWAP1 PUSH32 0xDDF252AD1BE2C89B69C2B068FC378DAA952BA7F163C4A11628F55A4DF523B3EF SWAP1 PUSH1 0x20 ADD PUSH1 0x40 MLOAD DUP1 SWAP2 SUB SWAP1 LOG3 PUSH2 0x909 PUSH1 0x0 DUP4 DUP4 PUSH2 0x1F82 JUMP JUMPDEST PUSH1 0x0 PUSH2 0x9BF DUP3 DUP5 PUSH2 0x2D3D JUMP JUMPDEST PUSH1 0x0 PUSH1 0x1 PUSH1 0x1 PUSH1 0xE0 SHL SUB DUP3 GT ISZERO PUSH2 0x1288 JUMPI PUSH1 0x40 MLOAD PUSH3 0x461BCD PUSH1 0xE5 SHL DUP2 MSTORE PUSH1 0x20 PUSH1 0x4 DUP3 ADD MSTORE PUSH1 0x27 PUSH1 0x24 DUP3 ADD MSTORE PUSH32 0x53616665436173743A2076616C756520646F65736E27742066697420696E2032 PUSH1 0x44 DUP3 ADD MSTORE PUSH32 0x3234206269747300000000000000000000000000000000000000000000000000 PUSH1 0x64 DUP3 ADD MSTORE PUSH1 0x84 ADD PUSH2 0x8F6 JUMP JUMPDEST POP SWAP1 JUMP JUMPDEST PUSH1 0x0 PUSH4 0xFFFFFFFF DUP3 GT ISZERO PUSH2 0x1288 JUMPI PUSH1 0x40 MLOAD PUSH3 0x461BCD PUSH1 0xE5 SHL DUP2 MSTORE PUSH1 0x20 PUSH1 0x4 DUP3 ADD MSTORE PUSH1 0x26 PUSH1 0x24 DUP3 ADD MSTORE PUSH32 0x53616665436173743A2076616C756520646F65736E27742066697420696E2033 PUSH1 0x44 DUP3 ADD MSTORE PUSH32 0x3220626974730000000000000000000000000000000000000000000000000000 PUSH1 0x64 DUP3 ADD MSTORE PUSH1 0x84 ADD PUSH2 0x8F6 JUMP JUMPDEST PUSH1 0x1 PUSH1 0x1 PUSH1 0xA0 SHL SUB DUP4 AND PUSH2 0x1327 JUMPI PUSH2 0x131F DUP3 PUSH2 0x1F8D JUMP JUMPDEST PUSH2 0x868 PUSH2 0x1FBF JUMP JUMPDEST PUSH1 0x1 PUSH1 0x1 PUSH1 0xA0 SHL SUB DUP3 AND PUSH2 0x133E JUMPI PUSH2 0x131F DUP4 PUSH2 0x1F8D JUMP JUMPDEST PUSH2 0x1347 DUP4 PUSH2 0x1F8D JUMP JUMPDEST PUSH2 0x868 DUP3 PUSH2 0x1F8D JUMP JUMPDEST PUSH1 0x1 PUSH1 0x1 PUSH1 0xA0 SHL SUB DUP4 DUP2 AND PUSH1 0x0 SWAP1 DUP2 MSTORE PUSH1 0xD PUSH1 0x20 MSTORE PUSH1 0x40 DUP1 DUP3 KECCAK256 SLOAD DUP6 DUP5 AND DUP4 MSTORE SWAP2 KECCAK256 SLOAD PUSH2 0x868 SWAP3 SWAP2 DUP3 AND SWAP2 AND DUP4 PUSH2 0x1FCF JUMP JUMPDEST PUSH1 0x0 PUSH2 0x9BF DUP3 DUP5 PUSH2 0x2D96 JUMP JUMPDEST SLOAD SWAP1 JUMP JUMPDEST PUSH1 0x1 PUSH1 0x1 PUSH1 0xA0 SHL SUB DUP4 AND PUSH2 0x140D JUMPI PUSH1 0x40 MLOAD PUSH3 0x461BCD PUSH1 0xE5 SHL DUP2 MSTORE PUSH1 0x20 PUSH1 0x4 DUP3 ADD MSTORE PUSH1 0x24 DUP1 DUP3 ADD MSTORE PUSH32 0x45524332303A20617070726F76652066726F6D20746865207A65726F20616464 PUSH1 0x44 DUP3 ADD MSTORE PUSH32 0x7265737300000000000000000000000000000000000000000000000000000000 PUSH1 0x64 DUP3 ADD MSTORE PUSH1 0x84 ADD PUSH2 0x8F6 JUMP JUMPDEST PUSH1 0x1 PUSH1 0x1 PUSH1 0xA0 SHL SUB DUP3 AND PUSH2 0x1489 JUMPI PUSH1 0x40 MLOAD PUSH3 0x461BCD PUSH1 0xE5 SHL DUP2 MSTORE PUSH1 0x20 PUSH1 0x4 DUP3 ADD MSTORE PUSH1 0x22 PUSH1 0x24 DUP3 ADD MSTORE PUSH32 0x45524332303A20617070726F766520746F20746865207A65726F206164647265 PUSH1 0x44 DUP3 ADD MSTORE PUSH32 0x7373000000000000000000000000000000000000000000000000000000000000 PUSH1 0x64 DUP3 ADD MSTORE PUSH1 0x84 ADD PUSH2 0x8F6 JUMP JUMPDEST PUSH1 0x1 PUSH1 0x1 PUSH1 0xA0 SHL SUB DUP4 DUP2 AND PUSH1 0x0 DUP2 DUP2 MSTORE PUSH1 0x1 PUSH1 0x20 SWAP1 DUP2 MSTORE PUSH1 0x40 DUP1 DUP4 KECCAK256 SWAP5 DUP8 AND DUP1 DUP5 MSTORE SWAP5 DUP3 MSTORE SWAP2 DUP3 SWAP1 KECCAK256 DUP6 SWAP1 SSTORE SWAP1 MLOAD DUP5 DUP2 MSTORE PUSH32 0x8C5BE1E5EBEC7D5BD14F71427D1E84F3DD0314C0F7B2291E5B200AC8C7C3B925 SWAP2 ADD PUSH1 0x40 MLOAD DUP1 SWAP2 SUB SWAP1 LOG3 POP POP POP JUMP JUMPDEST PUSH1 0x1 PUSH1 0x1 PUSH1 0xA0 SHL SUB DUP4 DUP2 AND PUSH1 0x0 SWAP1 DUP2 MSTORE PUSH1 0x1 PUSH1 0x20 SWAP1 DUP2 MSTORE PUSH1 0x40 DUP1 DUP4 KECCAK256 SWAP4 DUP7 AND DUP4 MSTORE SWAP3 SWAP1 MSTORE KECCAK256 SLOAD PUSH1 0x0 NOT DUP2 EQ PUSH2 0x1104 JUMPI DUP2 DUP2 LT ISZERO PUSH2 0x1569 JUMPI PUSH1 0x40 MLOAD PUSH3 0x461BCD PUSH1 0xE5 SHL DUP2 MSTORE PUSH1 0x20 PUSH1 0x4 DUP3 ADD MSTORE PUSH1 0x1D PUSH1 0x24 DUP3 ADD MSTORE PUSH32 0x45524332303A20696E73756666696369656E7420616C6C6F77616E6365000000 PUSH1 0x44 DUP3 ADD MSTORE PUSH1 0x64 ADD PUSH2 0x8F6 JUMP JUMPDEST PUSH2 0x1104 DUP5 DUP5 DUP5 DUP5 SUB PUSH2 0x1392 JUMP JUMPDEST PUSH1 0x1 PUSH1 0x1 PUSH1 0xA0 SHL SUB DUP4 AND PUSH2 0x15F2 JUMPI PUSH1 0x40 MLOAD PUSH3 0x461BCD PUSH1 0xE5 SHL DUP2 MSTORE PUSH1 0x20 PUSH1 0x4 DUP3 ADD MSTORE PUSH1 0x25 PUSH1 0x24 DUP3 ADD MSTORE PUSH32 0x45524332303A207472616E736665722066726F6D20746865207A65726F206164 PUSH1 0x44 DUP3 ADD MSTORE PUSH32 0x6472657373000000000000000000000000000000000000000000000000000000 PUSH1 0x64 DUP3 ADD MSTORE PUSH1 0x84 ADD PUSH2 0x8F6 JUMP JUMPDEST PUSH1 0x1 PUSH1 0x1 PUSH1 0xA0 SHL SUB DUP3 AND PUSH2 0x166E JUMPI PUSH1 0x40 MLOAD PUSH3 0x461BCD PUSH1 0xE5 SHL DUP2 MSTORE PUSH1 0x20 PUSH1 0x4 DUP3 ADD MSTORE PUSH1 0x23 PUSH1 0x24 DUP3 ADD MSTORE PUSH32 0x45524332303A207472616E7366657220746F20746865207A65726F2061646472 PUSH1 0x44 DUP3 ADD MSTORE PUSH32 0x6573730000000000000000000000000000000000000000000000000000000000 PUSH1 0x64 DUP3 ADD MSTORE PUSH1 0x84 ADD PUSH2 0x8F6 JUMP JUMPDEST PUSH2 0x1679 DUP4 DUP4 DUP4 PUSH2 0x1F6F JUMP JUMPDEST PUSH1 0x1 PUSH1 0x1 PUSH1 0xA0 SHL SUB DUP4 AND PUSH1 0x0 SWAP1 DUP2 MSTORE PUSH1 0x20 DUP2 SWAP1 MSTORE PUSH1 0x40 SWAP1 KECCAK256 SLOAD DUP2 DUP2 LT ISZERO PUSH2 0x1708 JUMPI PUSH1 0x40 MLOAD PUSH3 0x461BCD PUSH1 0xE5 SHL DUP2 MSTORE PUSH1 0x20 PUSH1 0x4 DUP3 ADD MSTORE PUSH1 0x26 PUSH1 0x24 DUP3 ADD MSTORE PUSH32 0x45524332303A207472616E7366657220616D6F756E7420657863656564732062 PUSH1 0x44 DUP3 ADD MSTORE PUSH32 0x616C616E63650000000000000000000000000000000000000000000000000000 PUSH1 0x64 DUP3 ADD MSTORE PUSH1 0x84 ADD PUSH2 0x8F6 JUMP JUMPDEST PUSH1 0x1 PUSH1 0x1 PUSH1 0xA0 SHL SUB DUP1 DUP6 AND PUSH1 0x0 SWAP1 DUP2 MSTORE PUSH1 0x20 DUP2 SWAP1 MSTORE PUSH1 0x40 DUP1 DUP3 KECCAK256 DUP6 DUP6 SUB SWAP1 SSTORE SWAP2 DUP6 AND DUP2 MSTORE SWAP1 DUP2 KECCAK256 DUP1 SLOAD DUP5 SWAP3 SWAP1 PUSH2 0x173F SWAP1 DUP5 SWAP1 PUSH2 0x2D3D JUMP JUMPDEST SWAP3 POP POP DUP2 SWAP1 SSTORE POP DUP3 PUSH1 0x1 PUSH1 0x1 PUSH1 0xA0 SHL SUB AND DUP5 PUSH1 0x1 PUSH1 0x1 PUSH1 0xA0 SHL SUB AND PUSH32 0xDDF252AD1BE2C89B69C2B068FC378DAA952BA7F163C4A11628F55A4DF523B3EF DUP5 PUSH1 0x40 MLOAD PUSH2 0x178B SWAP2 DUP2 MSTORE PUSH1 0x20 ADD SWAP1 JUMP JUMPDEST PUSH1 0x40 MLOAD DUP1 SWAP2 SUB SWAP1 LOG3 PUSH2 0x1104 DUP5 DUP5 DUP5 PUSH2 0x1F82 JUMP JUMPDEST PUSH2 0x9F8 DUP2 CALLER PUSH2 0x210C JUMP JUMPDEST PUSH1 0x0 DUP3 DUP2 MSTORE PUSH1 0x9 PUSH1 0x20 SWAP1 DUP2 MSTORE PUSH1 0x40 DUP1 DUP4 KECCAK256 PUSH1 0x1 PUSH1 0x1 PUSH1 0xA0 SHL SUB DUP6 AND DUP5 MSTORE SWAP1 SWAP2 MSTORE SWAP1 KECCAK256 SLOAD PUSH1 0xFF AND PUSH2 0x909 JUMPI PUSH1 0x0 DUP3 DUP2 MSTORE PUSH1 0x9 PUSH1 0x20 SWAP1 DUP2 MSTORE PUSH1 0x40 DUP1 DUP4 KECCAK256 PUSH1 0x1 PUSH1 0x1 PUSH1 0xA0 SHL SUB DUP6 AND DUP5 MSTORE SWAP1 SWAP2 MSTORE SWAP1 KECCAK256 DUP1 SLOAD PUSH1 0xFF NOT AND PUSH1 0x1 OR SWAP1 SSTORE PUSH2 0x1806 CALLER SWAP1 JUMP JUMPDEST PUSH1 0x1 PUSH1 0x1 PUSH1 0xA0 SHL SUB AND DUP2 PUSH1 0x1 PUSH1 0x1 PUSH1 0xA0 SHL SUB AND DUP4 PUSH32 0x2F8788117E7EFF1D82E926EC794901D17C78024A50270940304540A733656F0D PUSH1 0x40 MLOAD PUSH1 0x40 MLOAD DUP1 SWAP2 SUB SWAP1 LOG4 POP POP JUMP JUMPDEST PUSH1 0x0 ADDRESS PUSH1 0x1 PUSH1 0x1 PUSH1 0xA0 SHL SUB PUSH32 0x0 AND EQ DUP1 ISZERO PUSH2 0x18A3 JUMPI POP PUSH32 0x0 CHAINID EQ JUMPDEST ISZERO PUSH2 0x18CD JUMPI POP PUSH32 0x0 SWAP1 JUMP JUMPDEST POP PUSH1 0x40 DUP1 MLOAD PUSH32 0x0 PUSH1 0x20 DUP1 DUP4 ADD SWAP2 SWAP1 SWAP2 MSTORE PUSH32 0x0 DUP3 DUP5 ADD MSTORE PUSH32 0x0 PUSH1 0x60 DUP4 ADD MSTORE CHAINID PUSH1 0x80 DUP4 ADD MSTORE ADDRESS PUSH1 0xA0 DUP1 DUP5 ADD SWAP2 SWAP1 SWAP2 MSTORE DUP4 MLOAD DUP1 DUP5 SUB SWAP1 SWAP2 ADD DUP2 MSTORE PUSH1 0xC0 SWAP1 SWAP3 ADD SWAP1 SWAP3 MSTORE DUP1 MLOAD SWAP2 ADD KECCAK256 SWAP1 JUMP JUMPDEST PUSH1 0x0 DUP3 DUP2 MSTORE PUSH1 0x9 PUSH1 0x20 SWAP1 DUP2 MSTORE PUSH1 0x40 DUP1 DUP4 KECCAK256 PUSH1 0x1 PUSH1 0x1 PUSH1 0xA0 SHL SUB DUP6 AND DUP5 MSTORE SWAP1 SWAP2 MSTORE SWAP1 KECCAK256 SLOAD PUSH1 0xFF AND ISZERO PUSH2 0x909 JUMPI PUSH1 0x0 DUP3 DUP2 MSTORE PUSH1 0x9 PUSH1 0x20 SWAP1 DUP2 MSTORE PUSH1 0x40 DUP1 DUP4 KECCAK256 PUSH1 0x1 PUSH1 0x1 PUSH1 0xA0 SHL SUB DUP6 AND DUP1 DUP6 MSTORE SWAP3 MSTORE DUP1 DUP4 KECCAK256 DUP1 SLOAD PUSH1 0xFF NOT AND SWAP1 SSTORE MLOAD CALLER SWAP3 DUP6 SWAP2 PUSH32 0xF6391F5C32D9C69D2A47EA670B442974B53935D1EDC7FD64EB21E047A839171B SWAP2 SWAP1 LOG4 POP POP JUMP JUMPDEST DUP2 SLOAD PUSH1 0x0 SWAP1 DUP2 JUMPDEST DUP2 DUP2 LT ISZERO PUSH2 0x1A58 JUMPI PUSH1 0x0 PUSH2 0x1A0F DUP3 DUP5 PUSH2 0x218C JUMP JUMPDEST SWAP1 POP DUP5 DUP7 DUP3 DUP2 SLOAD DUP2 LT PUSH2 0x1A24 JUMPI PUSH2 0x1A24 PUSH2 0x2E51 JUMP JUMPDEST PUSH1 0x0 SWAP2 DUP3 MSTORE PUSH1 0x20 SWAP1 SWAP2 KECCAK256 ADD SLOAD PUSH4 0xFFFFFFFF AND GT ISZERO PUSH2 0x1A44 JUMPI DUP1 SWAP3 POP PUSH2 0x1A52 JUMP JUMPDEST PUSH2 0x1A4F DUP2 PUSH1 0x1 PUSH2 0x2D3D JUMP JUMPDEST SWAP2 POP JUMPDEST POP PUSH2 0x19FB JUMP JUMPDEST DUP2 ISZERO PUSH2 0x1A9C JUMPI DUP5 PUSH2 0x1A6A PUSH1 0x1 DUP5 PUSH2 0x2D96 JUMP JUMPDEST DUP2 SLOAD DUP2 LT PUSH2 0x1A7A JUMPI PUSH2 0x1A7A PUSH2 0x2E51 JUMP JUMPDEST PUSH1 0x0 SWAP2 DUP3 MSTORE PUSH1 0x20 SWAP1 SWAP2 KECCAK256 ADD SLOAD PUSH5 0x100000000 SWAP1 DIV PUSH1 0x1 PUSH1 0x1 PUSH1 0xE0 SHL SUB AND PUSH2 0x1A9F JUMP JUMPDEST PUSH1 0x0 JUMPDEST PUSH1 0x1 PUSH1 0x1 PUSH1 0xE0 SHL SUB AND SWAP6 SWAP5 POP POP POP POP POP JUMP JUMPDEST PUSH2 0x1AB9 PUSH2 0x21A7 JUMP JUMPDEST PUSH1 0xA DUP1 SLOAD PUSH1 0xFF NOT AND SWAP1 SSTORE PUSH32 0x5DB9EE0A495BF2E6FF9C91A7834C1BA4FDD244A5E8AA4E537BD38AEAE4B073AA CALLER JUMPDEST PUSH1 0x40 MLOAD PUSH1 0x1 PUSH1 0x1 PUSH1 0xA0 SHL SUB SWAP1 SWAP2 AND DUP2 MSTORE PUSH1 0x20 ADD PUSH1 0x40 MLOAD DUP1 SWAP2 SUB SWAP1 LOG1 JUMP JUMPDEST PUSH2 0x909 DUP3 DUP3 PUSH2 0x106D JUMP JUMPDEST PUSH2 0x909 DUP3 DUP3 PUSH2 0x21F9 JUMP JUMPDEST PUSH1 0x0 DUP1 PUSH1 0x0 DUP5 GT PUSH2 0x1B6A JUMPI PUSH1 0x40 MLOAD PUSH3 0x461BCD PUSH1 0xE5 SHL DUP2 MSTORE PUSH1 0x20 PUSH1 0x4 DUP3 ADD MSTORE PUSH1 0x16 PUSH1 0x24 DUP3 ADD MSTORE PUSH32 0x4552433230536E617073686F743A206964206973203000000000000000000000 PUSH1 0x44 DUP3 ADD MSTORE PUSH1 0x64 ADD PUSH2 0x8F6 JUMP JUMPDEST PUSH2 0x1B72 PUSH2 0x2211 JUMP JUMPDEST DUP5 GT ISZERO PUSH2 0x1BC1 JUMPI PUSH1 0x40 MLOAD PUSH3 0x461BCD PUSH1 0xE5 SHL DUP2 MSTORE PUSH1 0x20 PUSH1 0x4 DUP3 ADD MSTORE PUSH1 0x1D PUSH1 0x24 DUP3 ADD MSTORE PUSH32 0x4552433230536E617073686F743A206E6F6E6578697374656E74206964000000 PUSH1 0x44 DUP3 ADD MSTORE PUSH1 0x64 ADD PUSH2 0x8F6 JUMP JUMPDEST PUSH1 0x0 PUSH2 0x1BCD DUP5 DUP7 PUSH2 0x221C JUMP JUMPDEST DUP5 SLOAD SWAP1 SWAP2 POP DUP2 EQ ISZERO PUSH2 0x1BE6 JUMPI PUSH1 0x0 DUP1 SWAP3 POP SWAP3 POP POP PUSH2 0x1C0E JUMP JUMPDEST PUSH1 0x1 DUP5 PUSH1 0x1 ADD DUP3 DUP2 SLOAD DUP2 LT PUSH2 0x1BFD JUMPI PUSH2 0x1BFD PUSH2 0x2E51 JUMP JUMPDEST SWAP1 PUSH1 0x0 MSTORE PUSH1 0x20 PUSH1 0x0 KECCAK256 ADD SLOAD SWAP3 POP SWAP3 POP POP JUMPDEST SWAP3 POP SWAP3 SWAP1 POP JUMP JUMPDEST PUSH1 0x1 PUSH1 0x1 PUSH1 0xA0 SHL SUB DUP3 DUP2 AND PUSH1 0x0 DUP2 DUP2 MSTORE PUSH1 0xD PUSH1 0x20 DUP2 DUP2 MSTORE PUSH1 0x40 DUP1 DUP5 KECCAK256 DUP1 SLOAD DUP6 DUP5 MSTORE DUP3 DUP7 KECCAK256 SLOAD SWAP5 SWAP1 SWAP4 MSTORE DUP8 DUP8 AND PUSH32 0xFFFFFFFFFFFFFFFFFFFFFFFF0000000000000000000000000000000000000000 DUP5 AND DUP2 OR SWAP1 SWAP2 SSTORE SWAP1 MLOAD SWAP2 SWAP1 SWAP6 AND SWAP5 SWAP2 SWAP4 SWAP2 SWAP3 DUP6 SWAP3 SWAP2 PUSH32 0x3134E8A2E6D97E929A7E54011EA5485D7D196DD5F0BA4D4EF95803E8E3FC257F SWAP2 SWAP1 LOG4 PUSH2 0x1104 DUP3 DUP5 DUP4 PUSH2 0x1FCF JUMP JUMPDEST PUSH2 0x1CAE PUSH2 0x22DF JUMP JUMPDEST PUSH1 0xA DUP1 SLOAD PUSH1 0xFF NOT AND PUSH1 0x1 OR SWAP1 SSTORE PUSH32 0x62E78CEA01BEE320CD4E420270B5EA74000D11B0C9F74754EBDBFC544B05A258 PUSH2 0x1AE6 CALLER SWAP1 JUMP JUMPDEST PUSH1 0x0 PUSH2 0x1CF3 PUSH1 0x8 DUP1 SLOAD PUSH1 0x1 ADD SWAP1 SSTORE JUMP JUMPDEST PUSH1 0x0 PUSH2 0x1CFD PUSH2 0x2211 JUMP JUMPDEST SWAP1 POP PUSH32 0x8030E83B04D87BEF53480E26263266D6CA66863AA8506ACA6F2559D18AA1CB67 DUP2 PUSH1 0x40 MLOAD PUSH2 0x1D30 SWAP2 DUP2 MSTORE PUSH1 0x20 ADD SWAP1 JUMP JUMPDEST PUSH1 0x40 MLOAD DUP1 SWAP2 SUB SWAP1 LOG1 SWAP2 SWAP1 POP JUMP JUMPDEST PUSH1 0x0 PUSH2 0x76F PUSH2 0x1D4A PUSH2 0x184A JUMP JUMPDEST DUP4 PUSH1 0x40 MLOAD PUSH32 0x1901000000000000000000000000000000000000000000000000000000000000 PUSH1 0x20 DUP3 ADD MSTORE PUSH1 0x22 DUP2 ADD DUP4 SWAP1 MSTORE PUSH1 0x42 DUP2 ADD DUP3 SWAP1 MSTORE PUSH1 0x0 SWAP1 PUSH1 0x62 ADD PUSH1 0x40 MLOAD PUSH1 0x20 DUP2 DUP4 SUB SUB DUP2 MSTORE SWAP1 PUSH1 0x40 MSTORE DUP1 MLOAD SWAP1 PUSH1 0x20 ADD KECCAK256 SWAP1 POP SWAP3 SWAP2 POP POP JUMP JUMPDEST PUSH1 0x0 DUP1 PUSH1 0x0 PUSH2 0x1DB7 DUP8 DUP8 DUP8 DUP8 PUSH2 0x2332 JUMP JUMPDEST SWAP2 POP SWAP2 POP PUSH2 0x1DC4 DUP2 PUSH2 0x241F JUMP JUMPDEST POP SWAP6 SWAP5 POP POP POP POP POP JUMP JUMPDEST PUSH1 0x1 PUSH1 0x1 PUSH1 0xA0 SHL SUB DUP2 AND PUSH1 0x0 SWAP1 DUP2 MSTORE PUSH1 0xB PUSH1 0x20 MSTORE PUSH1 0x40 SWAP1 KECCAK256 DUP1 SLOAD PUSH1 0x1 DUP2 ADD DUP3 SSTORE SWAP1 JUMPDEST POP SWAP2 SWAP1 POP JUMP JUMPDEST DUP3 SLOAD PUSH1 0x0 SWAP1 DUP2 SWAP1 DUP1 ISZERO PUSH2 0x1E41 JUMPI DUP6 PUSH2 0x1E0F PUSH1 0x1 DUP4 PUSH2 0x2D96 JUMP JUMPDEST DUP2 SLOAD DUP2 LT PUSH2 0x1E1F JUMPI PUSH2 0x1E1F PUSH2 0x2E51 JUMP JUMPDEST PUSH1 0x0 SWAP2 DUP3 MSTORE PUSH1 0x20 SWAP1 SWAP2 KECCAK256 ADD SLOAD PUSH5 0x100000000 SWAP1 DIV PUSH1 0x1 PUSH1 0x1 PUSH1 0xE0 SHL SUB AND PUSH2 0x1E44 JUMP JUMPDEST PUSH1 0x0 JUMPDEST PUSH1 0x1 PUSH1 0x1 PUSH1 0xE0 SHL SUB AND SWAP3 POP PUSH2 0x1E5D DUP4 DUP6 DUP8 PUSH4 0xFFFFFFFF AND JUMP JUMPDEST SWAP2 POP PUSH1 0x0 DUP2 GT DUP1 ISZERO PUSH2 0x1E9B JUMPI POP NUMBER DUP7 PUSH2 0x1E77 PUSH1 0x1 DUP5 PUSH2 0x2D96 JUMP JUMPDEST DUP2 SLOAD DUP2 LT PUSH2 0x1E87 JUMPI PUSH2 0x1E87 PUSH2 0x2E51 JUMP JUMPDEST PUSH1 0x0 SWAP2 DUP3 MSTORE PUSH1 0x20 SWAP1 SWAP2 KECCAK256 ADD SLOAD PUSH4 0xFFFFFFFF AND EQ JUMPDEST ISZERO PUSH2 0x1EFB JUMPI PUSH2 0x1EA9 DUP3 PUSH2 0x1209 JUMP JUMPDEST DUP7 PUSH2 0x1EB5 PUSH1 0x1 DUP5 PUSH2 0x2D96 JUMP JUMPDEST DUP2 SLOAD DUP2 LT PUSH2 0x1EC5 JUMPI PUSH2 0x1EC5 PUSH2 0x2E51 JUMP JUMPDEST SWAP1 PUSH1 0x0 MSTORE PUSH1 0x20 PUSH1 0x0 KECCAK256 ADD PUSH1 0x0 ADD PUSH1 0x4 PUSH2 0x100 EXP DUP2 SLOAD DUP2 PUSH1 0x1 PUSH1 0x1 PUSH1 0xE0 SHL SUB MUL NOT AND SWAP1 DUP4 PUSH1 0x1 PUSH1 0x1 PUSH1 0xE0 SHL SUB AND MUL OR SWAP1 SSTORE POP PUSH2 0x1F66 JUMP JUMPDEST DUP6 PUSH1 0x40 MLOAD DUP1 PUSH1 0x40 ADD PUSH1 0x40 MSTORE DUP1 PUSH2 0x1F10 NUMBER PUSH2 0x128C JUMP JUMPDEST PUSH4 0xFFFFFFFF AND DUP2 MSTORE PUSH1 0x20 ADD PUSH2 0x1F24 DUP6 PUSH2 0x1209 JUMP JUMPDEST PUSH1 0x1 PUSH1 0x1 PUSH1 0xE0 SHL SUB SWAP1 DUP2 AND SWAP1 SWAP2 MSTORE DUP3 SLOAD PUSH1 0x1 DUP2 ADD DUP5 SSTORE PUSH1 0x0 SWAP4 DUP5 MSTORE PUSH1 0x20 SWAP4 DUP5 SWAP1 KECCAK256 DUP4 MLOAD SWAP5 SWAP1 SWAP4 ADD MLOAD SWAP1 SWAP2 AND PUSH5 0x100000000 MUL PUSH4 0xFFFFFFFF SWAP1 SWAP4 AND SWAP3 SWAP1 SWAP3 OR SWAP2 ADD SSTORE JUMPDEST POP SWAP4 POP SWAP4 SWAP2 POP POP JUMP JUMPDEST PUSH2 0x1F77 PUSH2 0x22DF JUMP JUMPDEST PUSH2 0x868 DUP4 DUP4 DUP4 PUSH2 0x1308 JUMP JUMPDEST PUSH2 0x868 DUP4 DUP4 DUP4 PUSH2 0x1350 JUMP JUMPDEST PUSH1 0x1 PUSH1 0x1 PUSH1 0xA0 SHL SUB DUP2 AND PUSH1 0x0 SWAP1 DUP2 MSTORE PUSH1 0x5 PUSH1 0x20 SWAP1 DUP2 MSTORE PUSH1 0x40 DUP1 DUP4 KECCAK256 SWAP2 DUP4 SWAP1 MSTORE SWAP1 SWAP2 KECCAK256 SLOAD PUSH2 0x9F8 SWAP2 SWAP1 PUSH2 0x25DA JUMP JUMPDEST PUSH2 0x25DA JUMP JUMPDEST PUSH2 0x1FCD PUSH1 0x6 PUSH2 0x1FBA PUSH1 0x2 SLOAD SWAP1 JUMP JUMPDEST JUMP JUMPDEST DUP2 PUSH1 0x1 PUSH1 0x1 PUSH1 0xA0 SHL SUB AND DUP4 PUSH1 0x1 PUSH1 0x1 PUSH1 0xA0 SHL SUB AND EQ ISZERO DUP1 ISZERO PUSH2 0x1FF1 JUMPI POP PUSH1 0x0 DUP2 GT JUMPDEST ISZERO PUSH2 0x868 JUMPI PUSH1 0x1 PUSH1 0x1 PUSH1 0xA0 SHL SUB DUP4 AND ISZERO PUSH2 0x207F JUMPI PUSH1 0x1 PUSH1 0x1 PUSH1 0xA0 SHL SUB DUP4 AND PUSH1 0x0 SWAP1 DUP2 MSTORE PUSH1 0xE PUSH1 0x20 MSTORE PUSH1 0x40 DUP2 KECCAK256 DUP2 SWAP1 PUSH2 0x202C SWAP1 PUSH2 0x1382 DUP6 PUSH2 0x1DF6 JUMP JUMPDEST SWAP2 POP SWAP2 POP DUP5 PUSH1 0x1 PUSH1 0x1 PUSH1 0xA0 SHL SUB AND PUSH32 0xDEC2BACDD2F05B59DE34DA9B523DFF8BE42E5E38E818C82FDB0BAE774387A724 DUP4 DUP4 PUSH1 0x40 MLOAD PUSH2 0x2074 SWAP3 SWAP2 SWAP1 SWAP2 DUP3 MSTORE PUSH1 0x20 DUP3 ADD MSTORE PUSH1 0x40 ADD SWAP1 JUMP JUMPDEST PUSH1 0x40 MLOAD DUP1 SWAP2 SUB SWAP1 LOG2 POP POP JUMPDEST PUSH1 0x1 PUSH1 0x1 PUSH1 0xA0 SHL SUB DUP3 AND ISZERO PUSH2 0x868 JUMPI PUSH1 0x1 PUSH1 0x1 PUSH1 0xA0 SHL SUB DUP3 AND PUSH1 0x0 SWAP1 DUP2 MSTORE PUSH1 0xE PUSH1 0x20 MSTORE PUSH1 0x40 DUP2 KECCAK256 DUP2 SWAP1 PUSH2 0x20B5 SWAP1 PUSH2 0x11FD DUP6 PUSH2 0x1DF6 JUMP JUMPDEST SWAP2 POP SWAP2 POP DUP4 PUSH1 0x1 PUSH1 0x1 PUSH1 0xA0 SHL SUB AND PUSH32 0xDEC2BACDD2F05B59DE34DA9B523DFF8BE42E5E38E818C82FDB0BAE774387A724 DUP4 DUP4 PUSH1 0x40 MLOAD PUSH2 0x20FD SWAP3 SWAP2 SWAP1 SWAP2 DUP3 MSTORE PUSH1 0x20 DUP3 ADD MSTORE PUSH1 0x40 ADD SWAP1 JUMP JUMPDEST PUSH1 0x40 MLOAD DUP1 SWAP2 SUB SWAP1 LOG2 POP POP POP POP POP JUMP JUMPDEST PUSH1 0x0 DUP3 DUP2 MSTORE PUSH1 0x9 PUSH1 0x20 SWAP1 DUP2 MSTORE PUSH1 0x40 DUP1 DUP4 KECCAK256 PUSH1 0x1 PUSH1 0x1 PUSH1 0xA0 SHL SUB DUP6 AND DUP5 MSTORE SWAP1 SWAP2 MSTORE SWAP1 KECCAK256 SLOAD PUSH1 0xFF AND PUSH2 0x909 JUMPI PUSH2 0x214A DUP2 PUSH1 0x1 PUSH1 0x1 PUSH1 0xA0 SHL SUB AND PUSH1 0x14 PUSH2 0x2624 JUMP JUMPDEST PUSH2 0x2155 DUP4 PUSH1 0x20 PUSH2 0x2624 JUMP JUMPDEST PUSH1 0x40 MLOAD PUSH1 0x20 ADD PUSH2 0x2166 SWAP3 SWAP2 SWAP1 PUSH2 0x2C89 JUMP JUMPDEST PUSH1 0x40 DUP1 MLOAD PUSH1 0x1F NOT DUP2 DUP5 SUB ADD DUP2 MSTORE SWAP1 DUP3 SWAP1 MSTORE PUSH3 0x461BCD PUSH1 0xE5 SHL DUP3 MSTORE PUSH2 0x8F6 SWAP2 PUSH1 0x4 ADD PUSH2 0x2D0A JUMP JUMPDEST PUSH1 0x0 PUSH2 0x219B PUSH1 0x2 DUP5 DUP5 XOR PUSH2 0x2D55 JUMP JUMPDEST PUSH2 0x9BF SWAP1 DUP5 DUP5 AND PUSH2 0x2D3D JUMP JUMPDEST PUSH1 0xA SLOAD PUSH1 0xFF AND PUSH2 0x1FCD JUMPI PUSH1 0x40 MLOAD PUSH3 0x461BCD PUSH1 0xE5 SHL DUP2 MSTORE PUSH1 0x20 PUSH1 0x4 DUP3 ADD MSTORE PUSH1 0x14 PUSH1 0x24 DUP3 ADD MSTORE PUSH32 0x5061757361626C653A206E6F7420706175736564000000000000000000000000 PUSH1 0x44 DUP3 ADD MSTORE PUSH1 0x64 ADD PUSH2 0x8F6 JUMP JUMPDEST PUSH2 0x2203 DUP3 DUP3 PUSH2 0x284D JUMP JUMPDEST PUSH2 0x1104 PUSH1 0xF PUSH2 0x1382 DUP4 PUSH2 0x1DF6 JUMP JUMPDEST PUSH1 0x0 PUSH2 0x877 PUSH1 0x8 SLOAD SWAP1 JUMP JUMPDEST DUP2 SLOAD PUSH1 0x0 SWAP1 PUSH2 0x222D JUMPI POP PUSH1 0x0 PUSH2 0x76F JUMP JUMPDEST DUP3 SLOAD PUSH1 0x0 SWAP1 JUMPDEST DUP1 DUP3 LT ISZERO PUSH2 0x2289 JUMPI PUSH1 0x0 PUSH2 0x2247 DUP4 DUP4 PUSH2 0x218C JUMP JUMPDEST SWAP1 POP DUP5 DUP7 DUP3 DUP2 SLOAD DUP2 LT PUSH2 0x225C JUMPI PUSH2 0x225C PUSH2 0x2E51 JUMP JUMPDEST SWAP1 PUSH1 0x0 MSTORE PUSH1 0x20 PUSH1 0x0 KECCAK256 ADD SLOAD GT ISZERO PUSH2 0x2275 JUMPI DUP1 SWAP2 POP PUSH2 0x2283 JUMP JUMPDEST PUSH2 0x2280 DUP2 PUSH1 0x1 PUSH2 0x2D3D JUMP JUMPDEST SWAP3 POP JUMPDEST POP PUSH2 0x2233 JUMP JUMPDEST PUSH1 0x0 DUP3 GT DUP1 ISZERO PUSH2 0x22BE JUMPI POP DUP4 DUP6 PUSH2 0x22A1 PUSH1 0x1 DUP6 PUSH2 0x2D96 JUMP JUMPDEST DUP2 SLOAD DUP2 LT PUSH2 0x22B1 JUMPI PUSH2 0x22B1 PUSH2 0x2E51 JUMP JUMPDEST SWAP1 PUSH1 0x0 MSTORE PUSH1 0x20 PUSH1 0x0 KECCAK256 ADD SLOAD EQ JUMPDEST ISZERO PUSH2 0x22D7 JUMPI PUSH2 0x22CE PUSH1 0x1 DUP4 PUSH2 0x2D96 JUMP JUMPDEST SWAP3 POP POP POP PUSH2 0x76F JUMP JUMPDEST POP SWAP1 POP PUSH2 0x76F JUMP JUMPDEST PUSH1 0xA SLOAD PUSH1 0xFF AND ISZERO PUSH2 0x1FCD JUMPI PUSH1 0x40 MLOAD PUSH3 0x461BCD PUSH1 0xE5 SHL DUP2 MSTORE PUSH1 0x20 PUSH1 0x4 DUP3 ADD MSTORE PUSH1 0x10 PUSH1 0x24 DUP3 ADD MSTORE PUSH32 0x5061757361626C653A2070617573656400000000000000000000000000000000 PUSH1 0x44 DUP3 ADD MSTORE PUSH1 0x64 ADD PUSH2 0x8F6 JUMP JUMPDEST PUSH1 0x0 DUP1 PUSH32 0x7FFFFFFFFFFFFFFFFFFFFFFFFFFFFFFF5D576E7357A4501DDFE92F46681B20A0 DUP4 GT ISZERO PUSH2 0x2369 JUMPI POP PUSH1 0x0 SWAP1 POP PUSH1 0x3 PUSH2 0x2416 JUMP JUMPDEST DUP5 PUSH1 0xFF AND PUSH1 0x1B EQ ISZERO DUP1 ISZERO PUSH2 0x2381 JUMPI POP DUP5 PUSH1 0xFF AND PUSH1 0x1C EQ ISZERO JUMPDEST ISZERO PUSH2 0x2392 JUMPI POP PUSH1 0x0 SWAP1 POP PUSH1 0x4 PUSH2 0x2416 JUMP JUMPDEST PUSH1 0x40 DUP1 MLOAD PUSH1 0x0 DUP1 DUP3 MSTORE PUSH1 0x20 DUP3 ADD DUP1 DUP5 MSTORE DUP10 SWAP1 MSTORE PUSH1 0xFF DUP9 AND SWAP3 DUP3 ADD SWAP3 SWAP1 SWAP3 MSTORE PUSH1 0x60 DUP2 ADD DUP7 SWAP1 MSTORE PUSH1 0x80 DUP2 ADD DUP6 SWAP1 MSTORE PUSH1 0x1 SWAP1 PUSH1 0xA0 ADD PUSH1 0x20 PUSH1 0x40 MLOAD PUSH1 0x20 DUP2 SUB SWAP1 DUP1 DUP5 SUB SWAP1 DUP6 GAS STATICCALL ISZERO DUP1 ISZERO PUSH2 0x23E6 JUMPI RETURNDATASIZE PUSH1 0x0 DUP1 RETURNDATACOPY RETURNDATASIZE PUSH1 0x0 REVERT JUMPDEST POP POP PUSH1 0x40 MLOAD PUSH1 0x1F NOT ADD MLOAD SWAP2 POP POP PUSH1 0x1 PUSH1 0x1 PUSH1 0xA0 SHL SUB DUP2 AND PUSH2 0x240F JUMPI PUSH1 0x0 PUSH1 0x1 SWAP3 POP SWAP3 POP POP PUSH2 0x2416 JUMP JUMPDEST SWAP2 POP PUSH1 0x0 SWAP1 POP JUMPDEST SWAP5 POP SWAP5 SWAP3 POP POP POP JUMP JUMPDEST PUSH1 0x0 DUP2 PUSH1 0x4 DUP2 GT ISZERO PUSH2 0x2433 JUMPI PUSH2 0x2433 PUSH2 0x2E3B JUMP JUMPDEST EQ ISZERO PUSH2 0x243C JUMPI POP JUMP JUMPDEST PUSH1 0x1 DUP2 PUSH1 0x4 DUP2 GT ISZERO PUSH2 0x2450 JUMPI PUSH2 0x2450 PUSH2 0x2E3B JUMP JUMPDEST EQ ISZERO PUSH2 0x249E JUMPI PUSH1 0x40 MLOAD PUSH3 0x461BCD PUSH1 0xE5 SHL DUP2 MSTORE PUSH1 0x20 PUSH1 0x4 DUP3 ADD MSTORE PUSH1 0x18 PUSH1 0x24 DUP3 ADD MSTORE PUSH32 0x45434453413A20696E76616C6964207369676E61747572650000000000000000 PUSH1 0x44 DUP3 ADD MSTORE PUSH1 0x64 ADD PUSH2 0x8F6 JUMP JUMPDEST PUSH1 0x2 DUP2 PUSH1 0x4 DUP2 GT ISZERO PUSH2 0x24B2 JUMPI PUSH2 0x24B2 PUSH2 0x2E3B JUMP JUMPDEST EQ ISZERO PUSH2 0x2500 JUMPI PUSH1 0x40 MLOAD PUSH3 0x461BCD PUSH1 0xE5 SHL DUP2 MSTORE PUSH1 0x20 PUSH1 0x4 DUP3 ADD MSTORE PUSH1 0x1F PUSH1 0x24 DUP3 ADD MSTORE PUSH32 0x45434453413A20696E76616C6964207369676E6174757265206C656E67746800 PUSH1 0x44 DUP3 ADD MSTORE PUSH1 0x64 ADD PUSH2 0x8F6 JUMP JUMPDEST PUSH1 0x3 DUP2 PUSH1 0x4 DUP2 GT ISZERO PUSH2 0x2514 JUMPI PUSH2 0x2514 PUSH2 0x2E3B JUMP JUMPDEST EQ ISZERO PUSH2 0x256D JUMPI PUSH1 0x40 MLOAD PUSH3 0x461BCD PUSH1 0xE5 SHL DUP2 MSTORE PUSH1 0x20 PUSH1 0x4 DUP3 ADD MSTORE PUSH1 0x22 PUSH1 0x24 DUP3 ADD MSTORE PUSH32 0x45434453413A20696E76616C6964207369676E6174757265202773272076616C PUSH1 0x44 DUP3 ADD MSTORE PUSH2 0x7565 PUSH1 0xF0 SHL PUSH1 0x64 DUP3 ADD MSTORE PUSH1 0x84 ADD PUSH2 0x8F6 JUMP JUMPDEST PUSH1 0x4 DUP2 PUSH1 0x4 DUP2 GT ISZERO PUSH2 0x2581 JUMPI PUSH2 0x2581 PUSH2 0x2E3B JUMP JUMPDEST EQ ISZERO PUSH2 0x9F8 JUMPI PUSH1 0x40 MLOAD PUSH3 0x461BCD PUSH1 0xE5 SHL DUP2 MSTORE PUSH1 0x20 PUSH1 0x4 DUP3 ADD MSTORE PUSH1 0x22 PUSH1 0x24 DUP3 ADD MSTORE PUSH32 0x45434453413A20696E76616C6964207369676E6174757265202776272076616C PUSH1 0x44 DUP3 ADD MSTORE PUSH2 0x7565 PUSH1 0xF0 SHL PUSH1 0x64 DUP3 ADD MSTORE PUSH1 0x84 ADD PUSH2 0x8F6 JUMP JUMPDEST PUSH1 0x0 PUSH2 0x25E4 PUSH2 0x2211 JUMP JUMPDEST SWAP1 POP DUP1 PUSH2 0x25F0 DUP5 PUSH2 0x29E5 JUMP JUMPDEST LT ISZERO PUSH2 0x868 JUMPI DUP3 SLOAD PUSH1 0x1 DUP1 DUP3 ADD DUP6 SSTORE PUSH1 0x0 DUP6 DUP2 MSTORE PUSH1 0x20 DUP1 DUP3 KECCAK256 SWAP1 SWAP4 ADD SWAP4 SWAP1 SWAP4 SSTORE SWAP4 DUP5 ADD DUP1 SLOAD SWAP5 DUP6 ADD DUP2 SSTORE DUP3 MSTORE SWAP1 KECCAK256 SWAP1 SWAP2 ADD SSTORE JUMP JUMPDEST PUSH1 0x60 PUSH1 0x0 PUSH2 0x2633 DUP4 PUSH1 0x2 PUSH2 0x2D77 JUMP JUMPDEST PUSH2 0x263E SWAP1 PUSH1 0x2 PUSH2 0x2D3D JUMP JUMPDEST PUSH8 0xFFFFFFFFFFFFFFFF DUP2 GT ISZERO PUSH2 0x2656 JUMPI PUSH2 0x2656 PUSH2 0x2E67 JUMP JUMPDEST PUSH1 0x40 MLOAD SWAP1 DUP1 DUP3 MSTORE DUP1 PUSH1 0x1F ADD PUSH1 0x1F NOT AND PUSH1 0x20 ADD DUP3 ADD PUSH1 0x40 MSTORE DUP1 ISZERO PUSH2 0x2680 JUMPI PUSH1 0x20 DUP3 ADD DUP2 DUP1 CALLDATASIZE DUP4 CALLDATACOPY ADD SWAP1 POP JUMPDEST POP SWAP1 POP PUSH32 0x3000000000000000000000000000000000000000000000000000000000000000 DUP2 PUSH1 0x0 DUP2 MLOAD DUP2 LT PUSH2 0x26B7 JUMPI PUSH2 0x26B7 PUSH2 0x2E51 JUMP JUMPDEST PUSH1 0x20 ADD ADD SWAP1 PUSH31 0xFFFFFFFFFFFFFFFFFFFFFFFFFFFFFFFFFFFFFFFFFFFFFFFFFFFFFFFFFFFFFF NOT AND SWAP1 DUP2 PUSH1 0x0 BYTE SWAP1 MSTORE8 POP PUSH32 0x7800000000000000000000000000000000000000000000000000000000000000 DUP2 PUSH1 0x1 DUP2 MLOAD DUP2 LT PUSH2 0x271A JUMPI PUSH2 0x271A PUSH2 0x2E51 JUMP JUMPDEST PUSH1 0x20 ADD ADD SWAP1 PUSH31 0xFFFFFFFFFFFFFFFFFFFFFFFFFFFFFFFFFFFFFFFFFFFFFFFFFFFFFFFFFFFFFF NOT AND SWAP1 DUP2 PUSH1 0x0 BYTE SWAP1 MSTORE8 POP PUSH1 0x0 PUSH2 0x2756 DUP5 PUSH1 0x2 PUSH2 0x2D77 JUMP JUMPDEST PUSH2 0x2761 SWAP1 PUSH1 0x1 PUSH2 0x2D3D JUMP JUMPDEST SWAP1 POP JUMPDEST PUSH1 0x1 DUP2 GT ISZERO PUSH2 0x27FE JUMPI PUSH32 0x3031323334353637383961626364656600000000000000000000000000000000 DUP6 PUSH1 0xF AND PUSH1 0x10 DUP2 LT PUSH2 0x27A2 JUMPI PUSH2 0x27A2 PUSH2 0x2E51 JUMP JUMPDEST BYTE PUSH1 0xF8 SHL DUP3 DUP3 DUP2 MLOAD DUP2 LT PUSH2 0x27B8 JUMPI PUSH2 0x27B8 PUSH2 0x2E51 JUMP JUMPDEST PUSH1 0x20 ADD ADD SWAP1 PUSH31 0xFFFFFFFFFFFFFFFFFFFFFFFFFFFFFFFFFFFFFFFFFFFFFFFFFFFFFFFFFFFFFF NOT AND SWAP1 DUP2 PUSH1 0x0 BYTE SWAP1 MSTORE8 POP PUSH1 0x4 SWAP5 SWAP1 SWAP5 SHR SWAP4 PUSH2 0x27F7 DUP2 PUSH2 0x2DD9 JUMP JUMPDEST SWAP1 POP PUSH2 0x2764 JUMP JUMPDEST POP DUP4 ISZERO PUSH2 0x9BF JUMPI PUSH1 0x40 MLOAD PUSH3 0x461BCD PUSH1 0xE5 SHL DUP2 MSTORE PUSH1 0x20 PUSH1 0x4 DUP3 ADD DUP2 SWAP1 MSTORE PUSH1 0x24 DUP3 ADD MSTORE PUSH32 0x537472696E67733A20686578206C656E67746820696E73756666696369656E74 PUSH1 0x44 DUP3 ADD MSTORE PUSH1 0x64 ADD PUSH2 0x8F6 JUMP JUMPDEST PUSH1 0x1 PUSH1 0x1 PUSH1 0xA0 SHL SUB DUP3 AND PUSH2 0x28C9 JUMPI PUSH1 0x40 MLOAD PUSH3 0x461BCD PUSH1 0xE5 SHL DUP2 MSTORE PUSH1 0x20 PUSH1 0x4 DUP3 ADD MSTORE PUSH1 0x21 PUSH1 0x24 DUP3 ADD MSTORE PUSH32 0x45524332303A206275726E2066726F6D20746865207A65726F20616464726573 PUSH1 0x44 DUP3 ADD MSTORE PUSH32 0x7300000000000000000000000000000000000000000000000000000000000000 PUSH1 0x64 DUP3 ADD MSTORE PUSH1 0x84 ADD PUSH2 0x8F6 JUMP JUMPDEST PUSH2 0x28D5 DUP3 PUSH1 0x0 DUP4 PUSH2 0x1F6F JUMP JUMPDEST PUSH1 0x1 PUSH1 0x1 PUSH1 0xA0 SHL SUB DUP3 AND PUSH1 0x0 SWAP1 DUP2 MSTORE PUSH1 0x20 DUP2 SWAP1 MSTORE PUSH1 0x40 SWAP1 KECCAK256 SLOAD DUP2 DUP2 LT ISZERO PUSH2 0x2964 JUMPI PUSH1 0x40 MLOAD PUSH3 0x461BCD PUSH1 0xE5 SHL DUP2 MSTORE PUSH1 0x20 PUSH1 0x4 DUP3 ADD MSTORE PUSH1 0x22 PUSH1 0x24 DUP3 ADD MSTORE PUSH32 0x45524332303A206275726E20616D6F756E7420657863656564732062616C616E PUSH1 0x44 DUP3 ADD MSTORE PUSH32 0x6365000000000000000000000000000000000000000000000000000000000000 PUSH1 0x64 DUP3 ADD MSTORE PUSH1 0x84 ADD PUSH2 0x8F6 JUMP JUMPDEST PUSH1 0x1 PUSH1 0x1 PUSH1 0xA0 SHL SUB DUP4 AND PUSH1 0x0 SWAP1 DUP2 MSTORE PUSH1 0x20 DUP2 SWAP1 MSTORE PUSH1 0x40 DUP2 KECCAK256 DUP4 DUP4 SUB SWAP1 SSTORE PUSH1 0x2 DUP1 SLOAD DUP5 SWAP3 SWAP1 PUSH2 0x2993 SWAP1 DUP5 SWAP1 PUSH2 0x2D96 JUMP JUMPDEST SWAP1 SWAP2 SSTORE POP POP PUSH1 0x40 MLOAD DUP3 DUP2 MSTORE PUSH1 0x0 SWAP1 PUSH1 0x1 PUSH1 0x1 PUSH1 0xA0 SHL SUB DUP6 AND SWAP1 PUSH32 0xDDF252AD1BE2C89B69C2B068FC378DAA952BA7F163C4A11628F55A4DF523B3EF SWAP1 PUSH1 0x20 ADD PUSH1 0x40 MLOAD DUP1 SWAP2 SUB SWAP1 LOG3 PUSH2 0x868 DUP4 PUSH1 0x0 DUP5 PUSH2 0x1F82 JUMP JUMPDEST DUP1 SLOAD PUSH1 0x0 SWAP1 PUSH2 0x29F6 JUMPI POP PUSH1 0x0 SWAP2 SWAP1 POP JUMP JUMPDEST DUP2 SLOAD DUP3 SWAP1 PUSH2 0x2A06 SWAP1 PUSH1 0x1 SWAP1 PUSH2 0x2D96 JUMP JUMPDEST DUP2 SLOAD DUP2 LT PUSH2 0x2A16 JUMPI PUSH2 0x2A16 PUSH2 0x2E51 JUMP JUMPDEST SWAP1 PUSH1 0x0 MSTORE PUSH1 0x20 PUSH1 0x0 KECCAK256 ADD SLOAD SWAP1 POP SWAP2 SWAP1 POP JUMP JUMPDEST SWAP2 SWAP1 POP JUMP JUMPDEST DUP1 CALLDATALOAD PUSH1 0x1 PUSH1 0x1 PUSH1 0xA0 SHL SUB DUP2 AND DUP2 EQ PUSH2 0x2A28 JUMPI PUSH1 0x0 DUP1 REVERT JUMPDEST DUP1 CALLDATALOAD PUSH1 0xFF DUP2 AND DUP2 EQ PUSH2 0x2A28 JUMPI PUSH1 0x0 DUP1 REVERT JUMPDEST PUSH1 0x0 PUSH1 0x20 DUP3 DUP5 SUB SLT ISZERO PUSH2 0x2A67 JUMPI PUSH1 0x0 DUP1 REVERT JUMPDEST PUSH2 0x9BF DUP3 PUSH2 0x2A2D JUMP JUMPDEST PUSH1 0x0 DUP1 PUSH1 0x40 DUP4 DUP6 SUB SLT ISZERO PUSH2 0x2A83 JUMPI PUSH1 0x0 DUP1 REVERT JUMPDEST PUSH2 0x2A8C DUP4 PUSH2 0x2A2D JUMP JUMPDEST SWAP2 POP PUSH2 0x2A9A PUSH1 0x20 DUP5 ADD PUSH2 0x2A2D JUMP JUMPDEST SWAP1 POP SWAP3 POP SWAP3 SWAP1 POP JUMP JUMPDEST PUSH1 0x0 DUP1 PUSH1 0x0 PUSH1 0x60 DUP5 DUP7 SUB SLT ISZERO PUSH2 0x2AB8 JUMPI PUSH1 0x0 DUP1 REVERT JUMPDEST PUSH2 0x2AC1 DUP5 PUSH2 0x2A2D JUMP JUMPDEST SWAP3 POP PUSH2 0x2ACF PUSH1 0x20 DUP6 ADD PUSH2 0x2A2D JUMP JUMPDEST SWAP2 POP PUSH1 0x40 DUP5 ADD CALLDATALOAD SWAP1 POP SWAP3 POP SWAP3 POP SWAP3 JUMP JUMPDEST PUSH1 0x0 DUP1 PUSH1 0x0 DUP1 PUSH1 0x0 DUP1 PUSH1 0x0 PUSH1 0xE0 DUP9 DUP11 SUB SLT ISZERO PUSH2 0x2AFA JUMPI PUSH1 0x0 DUP1 REVERT JUMPDEST PUSH2 0x2B03 DUP9 PUSH2 0x2A2D JUMP JUMPDEST SWAP7 POP PUSH2 0x2B11 PUSH1 0x20 DUP10 ADD PUSH2 0x2A2D JUMP JUMPDEST SWAP6 POP PUSH1 0x40 DUP9 ADD CALLDATALOAD SWAP5 POP PUSH1 0x60 DUP9 ADD CALLDATALOAD SWAP4 POP PUSH2 0x2B2D PUSH1 0x80 DUP10 ADD PUSH2 0x2A44 JUMP JUMPDEST SWAP3 POP PUSH1 0xA0 DUP9 ADD CALLDATALOAD SWAP2 POP PUSH1 0xC0 DUP9 ADD CALLDATALOAD SWAP1 POP SWAP3 SWAP6 SWAP9 SWAP2 SWAP5 SWAP8 POP SWAP3 SWAP6 POP JUMP JUMPDEST PUSH1 0x0 DUP1 PUSH1 0x40 DUP4 DUP6 SUB SLT ISZERO PUSH2 0x2B5C JUMPI PUSH1 0x0 DUP1 REVERT JUMPDEST PUSH2 0x2B65 DUP4 PUSH2 0x2A2D JUMP JUMPDEST SWAP5 PUSH1 0x20 SWAP4 SWAP1 SWAP4 ADD CALLDATALOAD SWAP4 POP POP POP JUMP JUMPDEST PUSH1 0x0 DUP1 PUSH1 0x0 DUP1 PUSH1 0x0 DUP1 PUSH1 0xC0 DUP8 DUP10 SUB SLT ISZERO PUSH2 0x2B8C JUMPI PUSH1 0x0 DUP1 REVERT JUMPDEST PUSH2 0x2B95 DUP8 PUSH2 0x2A2D JUMP JUMPDEST SWAP6 POP PUSH1 0x20 DUP8 ADD CALLDATALOAD SWAP5 POP PUSH1 0x40 DUP8 ADD CALLDATALOAD SWAP4 POP PUSH2 0x2BB1 PUSH1 0x60 DUP9 ADD PUSH2 0x2A44 JUMP JUMPDEST SWAP3 POP PUSH1 0x80 DUP8 ADD CALLDATALOAD SWAP2 POP PUSH1 0xA0 DUP8 ADD CALLDATALOAD SWAP1 POP SWAP3 SWAP6 POP SWAP3 SWAP6 POP SWAP3 SWAP6 JUMP JUMPDEST PUSH1 0x0 DUP1 PUSH1 0x40 DUP4 DUP6 SUB SLT ISZERO PUSH2 0x2BDE JUMPI PUSH1 0x0 DUP1 REVERT JUMPDEST PUSH2 0x2BE7 DUP4 PUSH2 0x2A2D JUMP JUMPDEST SWAP2 POP PUSH1 0x20 DUP4 ADD CALLDATALOAD PUSH4 0xFFFFFFFF DUP2 AND DUP2 EQ PUSH2 0x2C00 JUMPI PUSH1 0x0 DUP1 REVERT JUMPDEST DUP1 SWAP2 POP POP SWAP3 POP SWAP3 SWAP1 POP JUMP JUMPDEST PUSH1 0x0 PUSH1 0x20 DUP3 DUP5 SUB SLT ISZERO PUSH2 0x2C1D JUMPI PUSH1 0x0 DUP1 REVERT JUMPDEST POP CALLDATALOAD SWAP2 SWAP1 POP JUMP JUMPDEST PUSH1 0x0 DUP1 PUSH1 0x40 DUP4 DUP6 SUB SLT ISZERO PUSH2 0x2C37 JUMPI PUSH1 0x0 DUP1 REVERT JUMPDEST DUP3 CALLDATALOAD SWAP2 POP PUSH2 0x2A9A PUSH1 0x20 DUP5 ADD PUSH2 0x2A2D JUMP JUMPDEST PUSH1 0x0 PUSH1 0x20 DUP3 DUP5 SUB SLT ISZERO PUSH2 0x2C59 JUMPI PUSH1 0x0 DUP1 REVERT JUMPDEST DUP2 CALLDATALOAD PUSH32 0xFFFFFFFF00000000000000000000000000000000000000000000000000000000 DUP2 AND DUP2 EQ PUSH2 0x9BF JUMPI PUSH1 0x0 DUP1 REVERT JUMPDEST PUSH32 0x416363657373436F6E74726F6C3A206163636F756E7420000000000000000000 DUP2 MSTORE PUSH1 0x0 DUP4 MLOAD PUSH2 0x2CC1 DUP2 PUSH1 0x17 DUP6 ADD PUSH1 0x20 DUP9 ADD PUSH2 0x2DAD JUMP JUMPDEST PUSH32 0x206973206D697373696E6720726F6C6520000000000000000000000000000000 PUSH1 0x17 SWAP2 DUP5 ADD SWAP2 DUP3 ADD MSTORE DUP4 MLOAD PUSH2 0x2CFE DUP2 PUSH1 0x28 DUP5 ADD PUSH1 0x20 DUP9 ADD PUSH2 0x2DAD JUMP JUMPDEST ADD PUSH1 0x28 ADD SWAP5 SWAP4 POP POP POP POP JUMP JUMPDEST PUSH1 0x20 DUP2 MSTORE PUSH1 0x0 DUP3 MLOAD DUP1 PUSH1 0x20 DUP5 ADD MSTORE PUSH2 0x2D29 DUP2 PUSH1 0x40 DUP6 ADD PUSH1 0x20 DUP8 ADD PUSH2 0x2DAD JUMP JUMPDEST PUSH1 0x1F ADD PUSH1 0x1F NOT AND SWAP2 SWAP1 SWAP2 ADD PUSH1 0x40 ADD SWAP3 SWAP2 POP POP JUMP JUMPDEST PUSH1 0x0 DUP3 NOT DUP3 GT ISZERO PUSH2 0x2D50 JUMPI PUSH2 0x2D50 PUSH2 0x2E25 JUMP JUMPDEST POP ADD SWAP1 JUMP JUMPDEST PUSH1 0x0 DUP3 PUSH2 0x2D72 JUMPI PUSH4 0x4E487B71 PUSH1 0xE0 SHL PUSH1 0x0 MSTORE PUSH1 0x12 PUSH1 0x4 MSTORE PUSH1 0x24 PUSH1 0x0 REVERT JUMPDEST POP DIV SWAP1 JUMP JUMPDEST PUSH1 0x0 DUP2 PUSH1 0x0 NOT DIV DUP4 GT DUP3 ISZERO ISZERO AND ISZERO PUSH2 0x2D91 JUMPI PUSH2 0x2D91 PUSH2 0x2E25 JUMP JUMPDEST POP MUL SWAP1 JUMP JUMPDEST PUSH1 0x0 DUP3 DUP3 LT ISZERO PUSH2 0x2DA8 JUMPI PUSH2 0x2DA8 PUSH2 0x2E25 JUMP JUMPDEST POP SUB SWAP1 JUMP JUMPDEST PUSH1 0x0 JUMPDEST DUP4 DUP2 LT ISZERO PUSH2 0x2DC8 JUMPI DUP2 DUP2 ADD MLOAD DUP4 DUP3 ADD MSTORE PUSH1 0x20 ADD PUSH2 0x2DB0 JUMP JUMPDEST DUP4 DUP2 GT ISZERO PUSH2 0x1104 JUMPI POP POP PUSH1 0x0 SWAP2 ADD MSTORE JUMP JUMPDEST PUSH1 0x0 DUP2 PUSH2 0x2DE8 JUMPI PUSH2 0x2DE8 PUSH2 0x2E25 JUMP JUMPDEST POP PUSH1 0x0 NOT ADD SWAP1 JUMP JUMPDEST PUSH1 0x1 DUP2 DUP2 SHR SWAP1 DUP3 AND DUP1 PUSH2 0x2E04 JUMPI PUSH1 0x7F DUP3 AND SWAP2 POP JUMPDEST PUSH1 0x20 DUP3 LT DUP2 EQ ISZERO PUSH2 0x1DF0 JUMPI PUSH4 0x4E487B71 PUSH1 0xE0 SHL PUSH1 0x0 MSTORE PUSH1 0x22 PUSH1 0x4 MSTORE PUSH1 0x24 PUSH1 0x0 REVERT JUMPDEST PUSH4 0x4E487B71 PUSH1 0xE0 SHL PUSH1 0x0 MSTORE PUSH1 0x11 PUSH1 0x4 MSTORE PUSH1 0x24 PUSH1 0x0 REVERT JUMPDEST PUSH4 0x4E487B71 PUSH1 0xE0 SHL PUSH1 0x0 MSTORE PUSH1 0x21 PUSH1 0x4 MSTORE PUSH1 0x24 PUSH1 0x0 REVERT JUMPDEST PUSH4 0x4E487B71 PUSH1 0xE0 SHL PUSH1 0x0 MSTORE PUSH1 0x32 PUSH1 0x4 MSTORE PUSH1 0x24 PUSH1 0x0 REVERT JUMPDEST PUSH4 0x4E487B71 PUSH1 0xE0 SHL PUSH1 0x0 MSTORE PUSH1 0x41 PUSH1 0x4 MSTORE PUSH1 0x24 PUSH1 0x0 REVERT INVALID LOG2 PUSH5 0x6970667358 0x22 SLT KECCAK256 0xF8 PUSH17 0xB64EF3CFED23E3DACC21109F5AF2C9E2D4 0x2D 0xC2 PUSH17 0xE352E4A819522C35170364736F6C634300 ADDMOD SMOD STOP CALLER 0xDE 0xC2 0xBA 0xCD 0xD2 CREATE JUMPDEST MSIZE 0xDE CALLVALUE 0xDA SWAP12 MSTORE RETURNDATASIZE SELFDESTRUCT DUP12 0xE4 0x2E 0x5E CODESIZE 0xE8 XOR 0xC8 0x2F 0xDB SIGNEXTEND 0xAE PUSH24 0x4387A7240000000000000000000000000000000000000000 "
		},
		"gasEstimates": {
			"creation": {
				"codeDepositCost": "2391000",
				"executionCost": "infinite",
				"totalCost": "infinite"
			},
			"external": {
				"DEFAULT_ADMIN_ROLE()": "285",
				"DOMAIN_SEPARATOR()": "infinite",
				"MINTER_ROLE()": "284",
				"PAUSER_ROLE()": "283",
				"SNAPSHOT_ROLE()": "306",
				"allowance(address,address)": "infinite",
				"approve(address,uint256)": "24659",
				"balanceOf(address)": "2609",
				"balanceOfAt(address,uint256)": "infinite",
				"burn(uint256)": "infinite",
				"burnFrom(address,uint256)": "infinite",
				"checkpoints(address,uint32)": "5153",
				"decimals()": "245",
				"decreaseAllowance(address,uint256)": "26956",
				"delegate(address)": "infinite",
				"delegateBySig(address,uint256,uint256,uint8,bytes32,bytes32)": "infinite",
				"delegates(address)": "2657",
				"getPastTotalSupply(uint256)": "infinite",
				"getPastVotes(address,uint256)": "7214",
				"getRoleAdmin(bytes32)": "2513",
				"getVotes(address)": "7147",
				"grantRole(bytes32,address)": "infinite",
				"hasRole(bytes32,address)": "2732",
				"increaseAllowance(address,uint256)": "27003",
				"mint(address,uint256)": "infinite",
				"name()": "infinite",
				"nonces(address)": "2639",
				"numCheckpoints(address)": "2753",
				"owner()": "324",
				"pause()": "infinite",
				"paused()": "2360",
				"permit(address,address,uint256,uint256,uint8,bytes32,bytes32)": "infinite",
				"renounceRole(bytes32,address)": "29074",
				"revokeRole(bytes32,address)": "infinite",
				"snapshot()": "infinite",
				"supportsInterface(bytes4)": "439",
				"symbol()": "infinite",
				"totalSupply()": "2372",
				"totalSupplyAt(uint256)": "infinite",
				"transfer(address,uint256)": "infinite",
				"transferFrom(address,address,uint256)": "infinite",
				"unpause()": "infinite"
			},
			"internal": {
				"_afterTokenTransfer(address,address,uint256)": "infinite",
				"_beforeTokenTransfer(address,address,uint256)": "infinite",
				"_burn(address,uint256)": "infinite",
				"_mint(address,uint256)": "infinite"
			}
		},
		"methodIdentifiers": {
			"DEFAULT_ADMIN_ROLE()": "a217fddf",
			"DOMAIN_SEPARATOR()": "3644e515",
			"MINTER_ROLE()": "d5391393",
			"PAUSER_ROLE()": "e63ab1e9",
			"SNAPSHOT_ROLE()": "7028e2cd",
			"allowance(address,address)": "dd62ed3e",
			"approve(address,uint256)": "095ea7b3",
			"balanceOf(address)": "70a08231",
			"balanceOfAt(address,uint256)": "4ee2cd7e",
			"burn(uint256)": "42966c68",
			"burnFrom(address,uint256)": "79cc6790",
			"checkpoints(address,uint32)": "f1127ed8",
			"decimals()": "313ce567",
			"decreaseAllowance(address,uint256)": "a457c2d7",
			"delegate(address)": "5c19a95c",
			"delegateBySig(address,uint256,uint256,uint8,bytes32,bytes32)": "c3cda520",
			"delegates(address)": "587cde1e",
			"getPastTotalSupply(uint256)": "8e539e8c",
			"getPastVotes(address,uint256)": "3a46b1a8",
			"getRoleAdmin(bytes32)": "248a9ca3",
			"getVotes(address)": "9ab24eb0",
			"grantRole(bytes32,address)": "2f2ff15d",
			"hasRole(bytes32,address)": "91d14854",
			"increaseAllowance(address,uint256)": "39509351",
			"mint(address,uint256)": "40c10f19",
			"name()": "06fdde03",
			"nonces(address)": "7ecebe00",
			"numCheckpoints(address)": "6fcfff45",
			"owner()": "8da5cb5b",
			"pause()": "8456cb59",
			"paused()": "5c975abb",
			"permit(address,address,uint256,uint256,uint8,bytes32,bytes32)": "d505accf",
			"renounceRole(bytes32,address)": "36568abe",
			"revokeRole(bytes32,address)": "d547741f",
			"snapshot()": "9711715a",
			"supportsInterface(bytes4)": "01ffc9a7",
			"symbol()": "95d89b41",
			"totalSupply()": "18160ddd",
			"totalSupplyAt(uint256)": "981b24d0",
			"transfer(address,uint256)": "a9059cbb",
			"transferFrom(address,address,uint256)": "23b872dd",
			"unpause()": "3f4ba83a"
		}
	},
	"abi": [
		{
			"inputs": [],
			"stateMutability": "nonpayable",
			"type": "constructor"
		},
		{
			"anonymous": false,
			"inputs": [
				{
					"indexed": true,
					"internalType": "address",
					"name": "owner",
					"type": "address"
				},
				{
					"indexed": true,
					"internalType": "address",
					"name": "spender",
					"type": "address"
				},
				{
					"indexed": false,
					"internalType": "uint256",
					"name": "value",
					"type": "uint256"
				}
			],
			"name": "Approval",
			"type": "event"
		},
		{
			"anonymous": false,
			"inputs": [
				{
					"indexed": true,
					"internalType": "address",
					"name": "delegator",
					"type": "address"
				},
				{
					"indexed": true,
					"internalType": "address",
					"name": "fromDelegate",
					"type": "address"
				},
				{
					"indexed": true,
					"internalType": "address",
					"name": "toDelegate",
					"type": "address"
				}
			],
			"name": "DelegateChanged",
			"type": "event"
		},
		{
			"anonymous": false,
			"inputs": [
				{
					"indexed": true,
					"internalType": "address",
					"name": "delegate",
					"type": "address"
				},
				{
					"indexed": false,
					"internalType": "uint256",
					"name": "previousBalance",
					"type": "uint256"
				},
				{
					"indexed": false,
					"internalType": "uint256",
					"name": "newBalance",
					"type": "uint256"
				}
			],
			"name": "DelegateVotesChanged",
			"type": "event"
		},
		{
			"anonymous": false,
			"inputs": [
				{
					"indexed": false,
					"internalType": "address",
					"name": "account",
					"type": "address"
				}
			],
			"name": "Paused",
			"type": "event"
		},
		{
			"anonymous": false,
			"inputs": [
				{
					"indexed": true,
					"internalType": "bytes32",
					"name": "role",
					"type": "bytes32"
				},
				{
					"indexed": true,
					"internalType": "bytes32",
					"name": "previousAdminRole",
					"type": "bytes32"
				},
				{
					"indexed": true,
					"internalType": "bytes32",
					"name": "newAdminRole",
					"type": "bytes32"
				}
			],
			"name": "RoleAdminChanged",
			"type": "event"
		},
		{
			"anonymous": false,
			"inputs": [
				{
					"indexed": true,
					"internalType": "bytes32",
					"name": "role",
					"type": "bytes32"
				},
				{
					"indexed": true,
					"internalType": "address",
					"name": "account",
					"type": "address"
				},
				{
					"indexed": true,
					"internalType": "address",
					"name": "sender",
					"type": "address"
				}
			],
			"name": "RoleGranted",
			"type": "event"
		},
		{
			"anonymous": false,
			"inputs": [
				{
					"indexed": true,
					"internalType": "bytes32",
					"name": "role",
					"type": "bytes32"
				},
				{
					"indexed": true,
					"internalType": "address",
					"name": "account",
					"type": "address"
				},
				{
					"indexed": true,
					"internalType": "address",
					"name": "sender",
					"type": "address"
				}
			],
			"name": "RoleRevoked",
			"type": "event"
		},
		{
			"anonymous": false,
			"inputs": [
				{
					"indexed": false,
					"internalType": "uint256",
					"name": "id",
					"type": "uint256"
				}
			],
			"name": "Snapshot",
			"type": "event"
		},
		{
			"anonymous": false,
			"inputs": [
				{
					"indexed": true,
					"internalType": "address",
					"name": "from",
					"type": "address"
				},
				{
					"indexed": true,
					"internalType": "address",
					"name": "to",
					"type": "address"
				},
				{
					"indexed": false,
					"internalType": "uint256",
					"name": "value",
					"type": "uint256"
				}
			],
			"name": "Transfer",
			"type": "event"
		},
		{
			"anonymous": false,
			"inputs": [
				{
					"indexed": false,
					"internalType": "address",
					"name": "account",
					"type": "address"
				}
			],
			"name": "Unpaused",
			"type": "event"
		},
		{
			"inputs": [],
			"name": "DEFAULT_ADMIN_ROLE",
			"outputs": [
				{
					"internalType": "bytes32",
					"name": "",
					"type": "bytes32"
				}
			],
			"stateMutability": "view",
			"type": "function"
		},
		{
			"inputs": [],
			"name": "DOMAIN_SEPARATOR",
			"outputs": [
				{
					"internalType": "bytes32",
					"name": "",
					"type": "bytes32"
				}
			],
			"stateMutability": "view",
			"type": "function"
		},
		{
			"inputs": [],
			"name": "MINTER_ROLE",
			"outputs": [
				{
					"internalType": "bytes32",
					"name": "",
					"type": "bytes32"
				}
			],
			"stateMutability": "view",
			"type": "function"
		},
		{
			"inputs": [],
			"name": "PAUSER_ROLE",
			"outputs": [
				{
					"internalType": "bytes32",
					"name": "",
					"type": "bytes32"
				}
			],
			"stateMutability": "view",
			"type": "function"
		},
		{
			"inputs": [],
			"name": "SNAPSHOT_ROLE",
			"outputs": [
				{
					"internalType": "bytes32",
					"name": "",
					"type": "bytes32"
				}
			],
			"stateMutability": "view",
			"type": "function"
		},
		{
			"inputs": [
				{
					"internalType": "address",
					"name": "owner",
					"type": "address"
				},
				{
					"internalType": "address",
					"name": "spender",
					"type": "address"
				}
			],
			"name": "allowance",
			"outputs": [
				{
					"internalType": "uint256",
					"name": "",
					"type": "uint256"
				}
			],
			"stateMutability": "view",
			"type": "function"
		},
		{
			"inputs": [
				{
					"internalType": "address",
					"name": "spender",
					"type": "address"
				},
				{
					"internalType": "uint256",
					"name": "amount",
					"type": "uint256"
				}
			],
			"name": "approve",
			"outputs": [
				{
					"internalType": "bool",
					"name": "",
					"type": "bool"
				}
			],
			"stateMutability": "nonpayable",
			"type": "function"
		},
		{
			"inputs": [
				{
					"internalType": "address",
					"name": "account",
					"type": "address"
				}
			],
			"name": "balanceOf",
			"outputs": [
				{
					"internalType": "uint256",
					"name": "",
					"type": "uint256"
				}
			],
			"stateMutability": "view",
			"type": "function"
		},
		{
			"inputs": [
				{
					"internalType": "address",
					"name": "account",
					"type": "address"
				},
				{
					"internalType": "uint256",
					"name": "snapshotId",
					"type": "uint256"
				}
			],
			"name": "balanceOfAt",
			"outputs": [
				{
					"internalType": "uint256",
					"name": "",
					"type": "uint256"
				}
			],
			"stateMutability": "view",
			"type": "function"
		},
		{
			"inputs": [
				{
					"internalType": "uint256",
					"name": "amount",
					"type": "uint256"
				}
			],
			"name": "burn",
			"outputs": [],
			"stateMutability": "nonpayable",
			"type": "function"
		},
		{
			"inputs": [
				{
					"internalType": "address",
					"name": "account",
					"type": "address"
				},
				{
					"internalType": "uint256",
					"name": "amount",
					"type": "uint256"
				}
			],
			"name": "burnFrom",
			"outputs": [],
			"stateMutability": "nonpayable",
			"type": "function"
		},
		{
			"inputs": [
				{
					"internalType": "address",
					"name": "account",
					"type": "address"
				},
				{
					"internalType": "uint32",
					"name": "pos",
					"type": "uint32"
				}
			],
			"name": "checkpoints",
			"outputs": [
				{
					"components": [
						{
							"internalType": "uint32",
							"name": "fromBlock",
							"type": "uint32"
						},
						{
							"internalType": "uint224",
							"name": "votes",
							"type": "uint224"
						}
					],
					"internalType": "struct ERC20Votes.Checkpoint",
					"name": "",
					"type": "tuple"
				}
			],
			"stateMutability": "view",
			"type": "function"
		},
		{
			"inputs": [],
			"name": "decimals",
			"outputs": [
				{
					"internalType": "uint8",
					"name": "",
					"type": "uint8"
				}
			],
			"stateMutability": "view",
			"type": "function"
		},
		{
			"inputs": [
				{
					"internalType": "address",
					"name": "spender",
					"type": "address"
				},
				{
					"internalType": "uint256",
					"name": "subtractedValue",
					"type": "uint256"
				}
			],
			"name": "decreaseAllowance",
			"outputs": [
				{
					"internalType": "bool",
					"name": "",
					"type": "bool"
				}
			],
			"stateMutability": "nonpayable",
			"type": "function"
		},
		{
			"inputs": [
				{
					"internalType": "address",
					"name": "delegatee",
					"type": "address"
				}
			],
			"name": "delegate",
			"outputs": [],
			"stateMutability": "nonpayable",
			"type": "function"
		},
		{
			"inputs": [
				{
					"internalType": "address",
					"name": "delegatee",
					"type": "address"
				},
				{
					"internalType": "uint256",
					"name": "nonce",
					"type": "uint256"
				},
				{
					"internalType": "uint256",
					"name": "expiry",
					"type": "uint256"
				},
				{
					"internalType": "uint8",
					"name": "v",
					"type": "uint8"
				},
				{
					"internalType": "bytes32",
					"name": "r",
					"type": "bytes32"
				},
				{
					"internalType": "bytes32",
					"name": "s",
					"type": "bytes32"
				}
			],
			"name": "delegateBySig",
			"outputs": [],
			"stateMutability": "nonpayable",
			"type": "function"
		},
		{
			"inputs": [
				{
					"internalType": "address",
					"name": "account",
					"type": "address"
				}
			],
			"name": "delegates",
			"outputs": [
				{
					"internalType": "address",
					"name": "",
					"type": "address"
				}
			],
			"stateMutability": "view",
			"type": "function"
		},
		{
			"inputs": [
				{
					"internalType": "uint256",
					"name": "blockNumber",
					"type": "uint256"
				}
			],
			"name": "getPastTotalSupply",
			"outputs": [
				{
					"internalType": "uint256",
					"name": "",
					"type": "uint256"
				}
			],
			"stateMutability": "view",
			"type": "function"
		},
		{
			"inputs": [
				{
					"internalType": "address",
					"name": "account",
					"type": "address"
				},
				{
					"internalType": "uint256",
					"name": "blockNumber",
					"type": "uint256"
				}
			],
			"name": "getPastVotes",
			"outputs": [
				{
					"internalType": "uint256",
					"name": "",
					"type": "uint256"
				}
			],
			"stateMutability": "view",
			"type": "function"
		},
		{
			"inputs": [
				{
					"internalType": "bytes32",
					"name": "role",
					"type": "bytes32"
				}
			],
			"name": "getRoleAdmin",
			"outputs": [
				{
					"internalType": "bytes32",
					"name": "",
					"type": "bytes32"
				}
			],
			"stateMutability": "view",
			"type": "function"
		},
		{
			"inputs": [
				{
					"internalType": "address",
					"name": "account",
					"type": "address"
				}
			],
			"name": "getVotes",
			"outputs": [
				{
					"internalType": "uint256",
					"name": "",
					"type": "uint256"
				}
			],
			"stateMutability": "view",
			"type": "function"
		},
		{
			"inputs": [
				{
					"internalType": "bytes32",
					"name": "role",
					"type": "bytes32"
				},
				{
					"internalType": "address",
					"name": "account",
					"type": "address"
				}
			],
			"name": "grantRole",
			"outputs": [],
			"stateMutability": "nonpayable",
			"type": "function"
		},
		{
			"inputs": [
				{
					"internalType": "bytes32",
					"name": "role",
					"type": "bytes32"
				},
				{
					"internalType": "address",
					"name": "account",
					"type": "address"
				}
			],
			"name": "hasRole",
			"outputs": [
				{
					"internalType": "bool",
					"name": "",
					"type": "bool"
				}
			],
			"stateMutability": "view",
			"type": "function"
		},
		{
			"inputs": [
				{
					"internalType": "address",
					"name": "spender",
					"type": "address"
				},
				{
					"internalType": "uint256",
					"name": "addedValue",
					"type": "uint256"
				}
			],
			"name": "increaseAllowance",
			"outputs": [
				{
					"internalType": "bool",
					"name": "",
					"type": "bool"
				}
			],
			"stateMutability": "nonpayable",
			"type": "function"
		},
		{
			"inputs": [
				{
					"internalType": "address",
					"name": "to",
					"type": "address"
				},
				{
					"internalType": "uint256",
					"name": "amount",
					"type": "uint256"
				}
			],
			"name": "mint",
			"outputs": [],
			"stateMutability": "nonpayable",
			"type": "function"
		},
		{
			"inputs": [],
			"name": "name",
			"outputs": [
				{
					"internalType": "string",
					"name": "",
					"type": "string"
				}
			],
			"stateMutability": "view",
			"type": "function"
		},
		{
			"inputs": [
				{
					"internalType": "address",
					"name": "owner",
					"type": "address"
				}
			],
			"name": "nonces",
			"outputs": [
				{
					"internalType": "uint256",
					"name": "",
					"type": "uint256"
				}
			],
			"stateMutability": "view",
			"type": "function"
		},
		{
			"inputs": [
				{
					"internalType": "address",
					"name": "account",
					"type": "address"
				}
			],
			"name": "numCheckpoints",
			"outputs": [
				{
					"internalType": "uint32",
					"name": "",
					"type": "uint32"
				}
			],
			"stateMutability": "view",
			"type": "function"
		},
		{
			"inputs": [],
			"name": "owner",
			"outputs": [
				{
					"internalType": "address",
					"name": "",
					"type": "address"
				}
			],
			"stateMutability": "view",
			"type": "function"
		},
		{
			"inputs": [],
			"name": "pause",
			"outputs": [],
			"stateMutability": "nonpayable",
			"type": "function"
		},
		{
			"inputs": [],
			"name": "paused",
			"outputs": [
				{
					"internalType": "bool",
					"name": "",
					"type": "bool"
				}
			],
			"stateMutability": "view",
			"type": "function"
		},
		{
			"inputs": [
				{
					"internalType": "address",
					"name": "owner",
					"type": "address"
				},
				{
					"internalType": "address",
					"name": "spender",
					"type": "address"
				},
				{
					"internalType": "uint256",
					"name": "value",
					"type": "uint256"
				},
				{
					"internalType": "uint256",
					"name": "deadline",
					"type": "uint256"
				},
				{
					"internalType": "uint8",
					"name": "v",
					"type": "uint8"
				},
				{
					"internalType": "bytes32",
					"name": "r",
					"type": "bytes32"
				},
				{
					"internalType": "bytes32",
					"name": "s",
					"type": "bytes32"
				}
			],
			"name": "permit",
			"outputs": [],
			"stateMutability": "nonpayable",
			"type": "function"
		},
		{
			"inputs": [
				{
					"internalType": "bytes32",
					"name": "role",
					"type": "bytes32"
				},
				{
					"internalType": "address",
					"name": "account",
					"type": "address"
				}
			],
			"name": "renounceRole",
			"outputs": [],
			"stateMutability": "nonpayable",
			"type": "function"
		},
		{
			"inputs": [
				{
					"internalType": "bytes32",
					"name": "role",
					"type": "bytes32"
				},
				{
					"internalType": "address",
					"name": "account",
					"type": "address"
				}
			],
			"name": "revokeRole",
			"outputs": [],
			"stateMutability": "nonpayable",
			"type": "function"
		},
		{
			"inputs": [],
			"name": "snapshot",
			"outputs": [],
			"stateMutability": "nonpayable",
			"type": "function"
		},
		{
			"inputs": [
				{
					"internalType": "bytes4",
					"name": "interfaceId",
					"type": "bytes4"
				}
			],
			"name": "supportsInterface",
			"outputs": [
				{
					"internalType": "bool",
					"name": "",
					"type": "bool"
				}
			],
			"stateMutability": "view",
			"type": "function"
		},
		{
			"inputs": [],
			"name": "symbol",
			"outputs": [
				{
					"internalType": "string",
					"name": "",
					"type": "string"
				}
			],
			"stateMutability": "view",
			"type": "function"
		},
		{
			"inputs": [],
			"name": "totalSupply",
			"outputs": [
				{
					"internalType": "uint256",
					"name": "",
					"type": "uint256"
				}
			],
			"stateMutability": "view",
			"type": "function"
		},
		{
			"inputs": [
				{
					"internalType": "uint256",
					"name": "snapshotId",
					"type": "uint256"
				}
			],
			"name": "totalSupplyAt",
			"outputs": [
				{
					"internalType": "uint256",
					"name": "",
					"type": "uint256"
				}
			],
			"stateMutability": "view",
			"type": "function"
		},
		{
			"inputs": [
				{
					"internalType": "address",
					"name": "to",
					"type": "address"
				},
				{
					"internalType": "uint256",
					"name": "amount",
					"type": "uint256"
				}
			],
			"name": "transfer",
			"outputs": [
				{
					"internalType": "bool",
					"name": "",
					"type": "bool"
				}
			],
			"stateMutability": "nonpayable",
			"type": "function"
		},
		{
			"inputs": [
				{
					"internalType": "address",
					"name": "from",
					"type": "address"
				},
				{
					"internalType": "address",
					"name": "to",
					"type": "address"
				},
				{
					"internalType": "uint256",
					"name": "amount",
					"type": "uint256"
				}
			],
			"name": "transferFrom",
			"outputs": [
				{
					"internalType": "bool",
					"name": "",
					"type": "bool"
				}
			],
			"stateMutability": "nonpayable",
			"type": "function"
		},
		{
			"inputs": [],
			"name": "unpause",
			"outputs": [],
			"stateMutability": "nonpayable",
			"type": "function"
		}
	]
}