{
  "contractName": "GovermentToken",
  "abi": [
    {
      "inputs": [],
      "stateMutability": "nonpayable",
      "type": "constructor"
    },
    {
      "anonymous": false,
      "inputs": [
        {
          "indexed": true,
          "internalType": "address",
          "name": "owner",
          "type": "address"
        },
        {
          "indexed": true,
          "internalType": "address",
          "name": "spender",
          "type": "address"
        },
        {
          "indexed": false,
          "internalType": "uint256",
          "name": "value",
          "type": "uint256"
        }
      ],
      "name": "Approval",
      "type": "event"
    },
    {
      "anonymous": false,
      "inputs": [
        {
          "indexed": true,
          "internalType": "address",
          "name": "delegator",
          "type": "address"
        },
        {
          "indexed": true,
          "internalType": "address",
          "name": "fromDelegate",
          "type": "address"
        },
        {
          "indexed": true,
          "internalType": "address",
          "name": "toDelegate",
          "type": "address"
        }
      ],
      "name": "DelegateChanged",
      "type": "event"
    },
    {
      "anonymous": false,
      "inputs": [
        {
          "indexed": true,
          "internalType": "address",
          "name": "delegate",
          "type": "address"
        },
        {
          "indexed": false,
          "internalType": "uint256",
          "name": "previousBalance",
          "type": "uint256"
        },
        {
          "indexed": false,
          "internalType": "uint256",
          "name": "newBalance",
          "type": "uint256"
        }
      ],
      "name": "DelegateVotesChanged",
      "type": "event"
    },
    {
      "anonymous": false,
      "inputs": [
        {
          "indexed": false,
          "internalType": "address",
          "name": "account",
          "type": "address"
        }
      ],
      "name": "Paused",
      "type": "event"
    },
    {
      "anonymous": false,
      "inputs": [
        {
          "indexed": true,
          "internalType": "bytes32",
          "name": "role",
          "type": "bytes32"
        },
        {
          "indexed": true,
          "internalType": "bytes32",
          "name": "previousAdminRole",
          "type": "bytes32"
        },
        {
          "indexed": true,
          "internalType": "bytes32",
          "name": "newAdminRole",
          "type": "bytes32"
        }
      ],
      "name": "RoleAdminChanged",
      "type": "event"
    },
    {
      "anonymous": false,
      "inputs": [
        {
          "indexed": true,
          "internalType": "bytes32",
          "name": "role",
          "type": "bytes32"
        },
        {
          "indexed": true,
          "internalType": "address",
          "name": "account",
          "type": "address"
        },
        {
          "indexed": true,
          "internalType": "address",
          "name": "sender",
          "type": "address"
        }
      ],
      "name": "RoleGranted",
      "type": "event"
    },
    {
      "anonymous": false,
      "inputs": [
        {
          "indexed": true,
          "internalType": "bytes32",
          "name": "role",
          "type": "bytes32"
        },
        {
          "indexed": true,
          "internalType": "address",
          "name": "account",
          "type": "address"
        },
        {
          "indexed": true,
          "internalType": "address",
          "name": "sender",
          "type": "address"
        }
      ],
      "name": "RoleRevoked",
      "type": "event"
    },
    {
      "anonymous": false,
      "inputs": [
        {
          "indexed": false,
          "internalType": "uint256",
          "name": "id",
          "type": "uint256"
        }
      ],
      "name": "Snapshot",
      "type": "event"
    },
    {
      "anonymous": false,
      "inputs": [
        {
          "indexed": true,
          "internalType": "address",
          "name": "from",
          "type": "address"
        },
        {
          "indexed": true,
          "internalType": "address",
          "name": "to",
          "type": "address"
        },
        {
          "indexed": false,
          "internalType": "uint256",
          "name": "value",
          "type": "uint256"
        }
      ],
      "name": "Transfer",
      "type": "event"
    },
    {
      "anonymous": false,
      "inputs": [
        {
          "indexed": false,
          "internalType": "address",
          "name": "account",
          "type": "address"
        }
      ],
      "name": "Unpaused",
      "type": "event"
    },
    {
      "inputs": [],
      "name": "DEFAULT_ADMIN_ROLE",
      "outputs": [
        {
          "internalType": "bytes32",
          "name": "",
          "type": "bytes32"
        }
      ],
      "stateMutability": "view",
      "type": "function",
      "constant": true
    },
    {
      "inputs": [],
      "name": "DOMAIN_SEPARATOR",
      "outputs": [
        {
          "internalType": "bytes32",
          "name": "",
          "type": "bytes32"
        }
      ],
      "stateMutability": "view",
      "type": "function",
      "constant": true
    },
    {
      "inputs": [],
      "name": "MINTER_ROLE",
      "outputs": [
        {
          "internalType": "bytes32",
          "name": "",
          "type": "bytes32"
        }
      ],
      "stateMutability": "view",
      "type": "function",
      "constant": true
    },
    {
      "inputs": [],
      "name": "PAUSER_ROLE",
      "outputs": [
        {
          "internalType": "bytes32",
          "name": "",
          "type": "bytes32"
        }
      ],
      "stateMutability": "view",
      "type": "function",
      "constant": true
    },
    {
      "inputs": [],
      "name": "SNAPSHOT_ROLE",
      "outputs": [
        {
          "internalType": "bytes32",
          "name": "",
          "type": "bytes32"
        }
      ],
      "stateMutability": "view",
      "type": "function",
      "constant": true
    },
    {
      "inputs": [
        {
          "internalType": "address",
          "name": "owner",
          "type": "address"
        },
        {
          "internalType": "address",
          "name": "spender",
          "type": "address"
        }
      ],
      "name": "allowance",
      "outputs": [
        {
          "internalType": "uint256",
          "name": "",
          "type": "uint256"
        }
      ],
      "stateMutability": "view",
      "type": "function",
      "constant": true
    },
    {
      "inputs": [
        {
          "internalType": "address",
          "name": "spender",
          "type": "address"
        },
        {
          "internalType": "uint256",
          "name": "amount",
          "type": "uint256"
        }
      ],
      "name": "approve",
      "outputs": [
        {
          "internalType": "bool",
          "name": "",
          "type": "bool"
        }
      ],
      "stateMutability": "nonpayable",
      "type": "function"
    },
    {
      "inputs": [
        {
          "internalType": "address",
          "name": "account",
          "type": "address"
        }
      ],
      "name": "balanceOf",
      "outputs": [
        {
          "internalType": "uint256",
          "name": "",
          "type": "uint256"
        }
      ],
      "stateMutability": "view",
      "type": "function",
      "constant": true
    },
    {
      "inputs": [
        {
          "internalType": "address",
          "name": "account",
          "type": "address"
        },
        {
          "internalType": "uint256",
          "name": "snapshotId",
          "type": "uint256"
        }
      ],
      "name": "balanceOfAt",
      "outputs": [
        {
          "internalType": "uint256",
          "name": "",
          "type": "uint256"
        }
      ],
      "stateMutability": "view",
      "type": "function",
      "constant": true
    },
    {
      "inputs": [
        {
          "internalType": "uint256",
          "name": "amount",
          "type": "uint256"
        }
      ],
      "name": "burn",
      "outputs": [],
      "stateMutability": "nonpayable",
      "type": "function"
    },
    {
      "inputs": [
        {
          "internalType": "address",
          "name": "account",
          "type": "address"
        },
        {
          "internalType": "uint256",
          "name": "amount",
          "type": "uint256"
        }
      ],
      "name": "burnFrom",
      "outputs": [],
      "stateMutability": "nonpayable",
      "type": "function"
    },
    {
      "inputs": [
        {
          "internalType": "address",
          "name": "account",
          "type": "address"
        },
        {
          "internalType": "uint32",
          "name": "pos",
          "type": "uint32"
        }
      ],
      "name": "checkpoints",
      "outputs": [
        {
          "components": [
            {
              "internalType": "uint32",
              "name": "fromBlock",
              "type": "uint32"
            },
            {
              "internalType": "uint224",
              "name": "votes",
              "type": "uint224"
            }
          ],
          "internalType": "struct ERC20Votes.Checkpoint",
          "name": "",
          "type": "tuple"
        }
      ],
      "stateMutability": "view",
      "type": "function",
      "constant": true
    },
    {
      "inputs": [],
      "name": "decimals",
      "outputs": [
        {
          "internalType": "uint8",
          "name": "",
          "type": "uint8"
        }
      ],
      "stateMutability": "view",
      "type": "function",
      "constant": true
    },
    {
      "inputs": [
        {
          "internalType": "address",
          "name": "spender",
          "type": "address"
        },
        {
          "internalType": "uint256",
          "name": "subtractedValue",
          "type": "uint256"
        }
      ],
      "name": "decreaseAllowance",
      "outputs": [
        {
          "internalType": "bool",
          "name": "",
          "type": "bool"
        }
      ],
      "stateMutability": "nonpayable",
      "type": "function"
    },
    {
      "inputs": [
        {
          "internalType": "address",
          "name": "delegatee",
          "type": "address"
        }
      ],
      "name": "delegate",
      "outputs": [],
      "stateMutability": "nonpayable",
      "type": "function"
    },
    {
      "inputs": [
        {
          "internalType": "address",
          "name": "delegatee",
          "type": "address"
        },
        {
          "internalType": "uint256",
          "name": "nonce",
          "type": "uint256"
        },
        {
          "internalType": "uint256",
          "name": "expiry",
          "type": "uint256"
        },
        {
          "internalType": "uint8",
          "name": "v",
          "type": "uint8"
        },
        {
          "internalType": "bytes32",
          "name": "r",
          "type": "bytes32"
        },
        {
          "internalType": "bytes32",
          "name": "s",
          "type": "bytes32"
        }
      ],
      "name": "delegateBySig",
      "outputs": [],
      "stateMutability": "nonpayable",
      "type": "function"
    },
    {
      "inputs": [
        {
          "internalType": "address",
          "name": "account",
          "type": "address"
        }
      ],
      "name": "delegates",
      "outputs": [
        {
          "internalType": "address",
          "name": "",
          "type": "address"
        }
      ],
      "stateMutability": "view",
      "type": "function",
      "constant": true
    },
    {
      "inputs": [
        {
          "internalType": "uint256",
          "name": "blockNumber",
          "type": "uint256"
        }
      ],
      "name": "getPastTotalSupply",
      "outputs": [
        {
          "internalType": "uint256",
          "name": "",
          "type": "uint256"
        }
      ],
      "stateMutability": "view",
      "type": "function",
      "constant": true
    },
    {
      "inputs": [
        {
          "internalType": "address",
          "name": "account",
          "type": "address"
        },
        {
          "internalType": "uint256",
          "name": "blockNumber",
          "type": "uint256"
        }
      ],
      "name": "getPastVotes",
      "outputs": [
        {
          "internalType": "uint256",
          "name": "",
          "type": "uint256"
        }
      ],
      "stateMutability": "view",
      "type": "function",
      "constant": true
    },
    {
      "inputs": [
        {
          "internalType": "bytes32",
          "name": "role",
          "type": "bytes32"
        }
      ],
      "name": "getRoleAdmin",
      "outputs": [
        {
          "internalType": "bytes32",
          "name": "",
          "type": "bytes32"
        }
      ],
      "stateMutability": "view",
      "type": "function",
      "constant": true
    },
    {
      "inputs": [
        {
          "internalType": "address",
          "name": "account",
          "type": "address"
        }
      ],
      "name": "getVotes",
      "outputs": [
        {
          "internalType": "uint256",
          "name": "",
          "type": "uint256"
        }
      ],
      "stateMutability": "view",
      "type": "function",
      "constant": true
    },
    {
      "inputs": [
        {
          "internalType": "bytes32",
          "name": "role",
          "type": "bytes32"
        },
        {
          "internalType": "address",
          "name": "account",
          "type": "address"
        }
      ],
      "name": "grantRole",
      "outputs": [],
      "stateMutability": "nonpayable",
      "type": "function"
    },
    {
      "inputs": [
        {
          "internalType": "bytes32",
          "name": "role",
          "type": "bytes32"
        },
        {
          "internalType": "address",
          "name": "account",
          "type": "address"
        }
      ],
      "name": "hasRole",
      "outputs": [
        {
          "internalType": "bool",
          "name": "",
          "type": "bool"
        }
      ],
      "stateMutability": "view",
      "type": "function",
      "constant": true
    },
    {
      "inputs": [
        {
          "internalType": "address",
          "name": "spender",
          "type": "address"
        },
        {
          "internalType": "uint256",
          "name": "addedValue",
          "type": "uint256"
        }
      ],
      "name": "increaseAllowance",
      "outputs": [
        {
          "internalType": "bool",
          "name": "",
          "type": "bool"
        }
      ],
      "stateMutability": "nonpayable",
      "type": "function"
    },
    {
      "inputs": [],
      "name": "name",
      "outputs": [
        {
          "internalType": "string",
          "name": "",
          "type": "string"
        }
      ],
      "stateMutability": "view",
      "type": "function",
      "constant": true
    },
    {
      "inputs": [
        {
          "internalType": "address",
          "name": "owner",
          "type": "address"
        }
      ],
      "name": "nonces",
      "outputs": [
        {
          "internalType": "uint256",
          "name": "",
          "type": "uint256"
        }
      ],
      "stateMutability": "view",
      "type": "function",
      "constant": true
    },
    {
      "inputs": [
        {
          "internalType": "address",
          "name": "account",
          "type": "address"
        }
      ],
      "name": "numCheckpoints",
      "outputs": [
        {
          "internalType": "uint32",
          "name": "",
          "type": "uint32"
        }
      ],
      "stateMutability": "view",
      "type": "function",
      "constant": true
    },
    {
      "inputs": [],
      "name": "paused",
      "outputs": [
        {
          "internalType": "bool",
          "name": "",
          "type": "bool"
        }
      ],
      "stateMutability": "view",
      "type": "function",
      "constant": true
    },
    {
      "inputs": [
        {
          "internalType": "address",
          "name": "owner",
          "type": "address"
        },
        {
          "internalType": "address",
          "name": "spender",
          "type": "address"
        },
        {
          "internalType": "uint256",
          "name": "value",
          "type": "uint256"
        },
        {
          "internalType": "uint256",
          "name": "deadline",
          "type": "uint256"
        },
        {
          "internalType": "uint8",
          "name": "v",
          "type": "uint8"
        },
        {
          "internalType": "bytes32",
          "name": "r",
          "type": "bytes32"
        },
        {
          "internalType": "bytes32",
          "name": "s",
          "type": "bytes32"
        }
      ],
      "name": "permit",
      "outputs": [],
      "stateMutability": "nonpayable",
      "type": "function"
    },
    {
      "inputs": [
        {
          "internalType": "bytes32",
          "name": "role",
          "type": "bytes32"
        },
        {
          "internalType": "address",
          "name": "account",
          "type": "address"
        }
      ],
      "name": "renounceRole",
      "outputs": [],
      "stateMutability": "nonpayable",
      "type": "function"
    },
    {
      "inputs": [
        {
          "internalType": "bytes32",
          "name": "role",
          "type": "bytes32"
        },
        {
          "internalType": "address",
          "name": "account",
          "type": "address"
        }
      ],
      "name": "revokeRole",
      "outputs": [],
      "stateMutability": "nonpayable",
      "type": "function"
    },
    {
      "inputs": [
        {
          "internalType": "bytes4",
          "name": "interfaceId",
          "type": "bytes4"
        }
      ],
      "name": "supportsInterface",
      "outputs": [
        {
          "internalType": "bool",
          "name": "",
          "type": "bool"
        }
      ],
      "stateMutability": "view",
      "type": "function",
      "constant": true
    },
    {
      "inputs": [],
      "name": "symbol",
      "outputs": [
        {
          "internalType": "string",
          "name": "",
          "type": "string"
        }
      ],
      "stateMutability": "view",
      "type": "function",
      "constant": true
    },
    {
      "inputs": [],
      "name": "totalSupply",
      "outputs": [
        {
          "internalType": "uint256",
          "name": "",
          "type": "uint256"
        }
      ],
      "stateMutability": "view",
      "type": "function",
      "constant": true
    },
    {
      "inputs": [
        {
          "internalType": "uint256",
          "name": "snapshotId",
          "type": "uint256"
        }
      ],
      "name": "totalSupplyAt",
      "outputs": [
        {
          "internalType": "uint256",
          "name": "",
          "type": "uint256"
        }
      ],
      "stateMutability": "view",
      "type": "function",
      "constant": true
    },
    {
      "inputs": [
        {
          "internalType": "address",
          "name": "to",
          "type": "address"
        },
        {
          "internalType": "uint256",
          "name": "amount",
          "type": "uint256"
        }
      ],
      "name": "transfer",
      "outputs": [
        {
          "internalType": "bool",
          "name": "",
          "type": "bool"
        }
      ],
      "stateMutability": "nonpayable",
      "type": "function"
    },
    {
      "inputs": [
        {
          "internalType": "address",
          "name": "from",
          "type": "address"
        },
        {
          "internalType": "address",
          "name": "to",
          "type": "address"
        },
        {
          "internalType": "uint256",
          "name": "amount",
          "type": "uint256"
        }
      ],
      "name": "transferFrom",
      "outputs": [
        {
          "internalType": "bool",
          "name": "",
          "type": "bool"
        }
      ],
      "stateMutability": "nonpayable",
      "type": "function"
    },
    {
      "inputs": [],
      "name": "snapshot",
      "outputs": [],
      "stateMutability": "nonpayable",
      "type": "function"
    },
    {
      "inputs": [],
      "name": "pause",
      "outputs": [],
      "stateMutability": "nonpayable",
      "type": "function"
    },
    {
      "inputs": [],
      "name": "unpause",
      "outputs": [],
      "stateMutability": "nonpayable",
      "type": "function"
    },
    {
      "inputs": [
        {
          "internalType": "address",
          "name": "to",
          "type": "address"
        },
        {
          "internalType": "uint256",
          "name": "amount",
          "type": "uint256"
        }
      ],
      "name": "mint",
      "outputs": [],
      "stateMutability": "nonpayable",
      "type": "function"
    },
    {
      "inputs": [],
      "name": "owner",
      "outputs": [
        {
          "internalType": "address",
          "name": "",
          "type": "address"
        }
      ],
      "stateMutability": "view",
      "type": "function",
      "constant": true
    }
  ],
  "bytecode": "0x6101406040523480156200001257600080fd5b506040518060400160405280600e81526020016d23b7bb32b936b2b73a2a37b5b2b760911b81525080604051806040016040528060018152602001603160f81b8152506040518060400160405280600e81526020016d23b7bb32b936b2b73a2a37b5b2b760911b8152506040518060400160405280600381526020016211d59560ea1b8152508160039081620000a9919062000b5a565b506004620000b8828262000b5a565b5050600a805460ff1916905550815160209283012081519183019190912060e08290526101008190524660a0818152604080517f8b73c3c69bb8fe3d512ecc4cf759cc79239f7b179b0ffacaa9a75d522b39400f818801819052818301969096526060810194909452608080850193909352308483018190528151808603909301835260c09485019091528151919095012090529190915261012052506200016260003362000202565b6200018e7f5fdbd35e8da83ee755d5e62a539e5ed7f47126abede0b8b10f9ea43dc6eed07f3362000202565b620001ba7f65d7a28e3265b37a6474929f336521b332c1681b933f6cb9f3376673440d862a3362000202565b620001e67f9f2df0fed2c77648de5860a4cc508cd0818c85b8b8a1ab4ceeef8d981c8956a63362000202565b620001fc3369152d02c7e14af68000006200028d565b62000c7e565b6200020e8282620002a4565b620002895760008281526009602090815260408083206001600160a01b03851684529091529020805460ff19166001179055620002483390565b6001600160a01b0316816001600160a01b0316837f2f8788117e7eff1d82e926ec794901d17c78024a50270940304540a733656f0d60405160405180910390a45b5050565b620002898282620002d160201b6200106d1760201c565b60008281526009602090815260408083206001600160a01b038516845290915290205460ff165b92915050565b620002e882826200038860201b6200110a1760201c565b6001600160e01b03620002fc620004858216565b1115620003695760405162461bcd60e51b815260206004820152603060248201527f4552433230566f7465733a20746f74616c20737570706c79207269736b73206f60448201526f766572666c6f77696e6720766f74657360801b60648201526084015b60405180910390fd5b62000382600f620011fd6200048b60201b1783620004a0565b50505050565b6001600160a01b038216620003e05760405162461bcd60e51b815260206004820152601f60248201527f45524332303a206d696e7420746f20746865207a65726f206164647265737300604482015260640162000360565b620003ee6000838362000652565b806002600082825462000402919062000c3c565b90915550506001600160a01b038216600090815260208190526040812080548392906200043190849062000c3c565b90915550506040518181526001600160a01b038316906000907fddf252ad1be2c89b69c2b068fc378daa952ba7f163c4a11628f55a4df523b3ef9060200160405180910390a3620002896000838362000679565b60025490565b600062000499828462000c3c565b9392505050565b825460009081908015620004f25785620004bc60018362000c52565b81548110620004cf57620004cf62000c68565b60009182526020909120015464010000000090046001600160e01b0316620004f5565b60005b6001600160e01b031692506200050c83858760201c565b915060008111801562000550575043866200052960018462000c52565b815481106200053c576200053c62000c68565b60009182526020909120015463ffffffff16145b15620005c4576200056c826200069160201b620012091760201c565b866200057a60018462000c52565b815481106200058d576200058d62000c68565b9060005260206000200160000160046101000a8154816001600160e01b0302191690836001600160e01b0316021790555062000649565b856040518060400160405280620005e6436200070060201b6200128c1760201c565b63ffffffff16815260200162000607856200069160201b620012091760201c565b6001600160e01b0390811690915282546001810184556000938452602093849020835194909301519091166401000000000263ffffffff909316929092179101555b50935093915050565b6200065c62000767565b62000674838383620007b160201b620013081760201c565b505050565b620006748383836200081d60201b620013501760201c565b60006001600160e01b03821115620006fc5760405162461bcd60e51b815260206004820152602760248201527f53616665436173743a2076616c756520646f65736e27742066697420696e20326044820152663234206269747360c81b606482015260840162000360565b5090565b600063ffffffff821115620006fc5760405162461bcd60e51b815260206004820152602660248201527f53616665436173743a2076616c756520646f65736e27742066697420696e203360448201526532206269747360d01b606482015260840162000360565b600a5460ff1615620007af5760405162461bcd60e51b815260206004820152601060248201526f14185d5cd8589b194e881c185d5cd95960821b604482015260640162000360565b565b620007c98383836200067460201b620008681760201c565b6001600160a01b038316620007ed57620007e38262000869565b62000674620008a1565b6001600160a01b0382166200080757620007e38362000869565b620008128362000869565b620006748262000869565b620008358383836200067460201b620008681760201c565b6001600160a01b038381166000908152600d60205260408082205485841683529120546200067492918216911683620008b1565b6001600160a01b038116600090815260056020908152604080832091839052909120546200089e9190620009ec565b620009ec565b50565b620007af60066200089860025490565b816001600160a01b0316836001600160a01b031614158015620008d45750600081115b1562000674576001600160a01b0383161562000961576001600160a01b0383166000908152600e60209081526040822082916200091e919062000a3b901b620013821785620004a0565b91509150846001600160a01b031660008051602062003b6d833981519152838360405162000956929190918252602082015260400190565b60405180910390a250505b6001600160a01b0382161562000674576001600160a01b0382166000908152600e6020908152604082208291620009a591906200048b901b620011fd1785620004a0565b91509150836001600160a01b031660008051602062003b6d8339815191528383604051620009dd929190918252602082015260400190565b60405180910390a25050505050565b6000620009f862000a49565b90508062000a068462000a67565b101562000674578254600180820185556000858152602080822090930193909355938401805494850181558252902090910155565b600062000499828462000c52565b600062000a62600862000ab260201b6200138e1760201c565b905090565b8054600090810362000a7b57506000919050565b8154829062000a8d9060019062000c52565b8154811062000aa05762000aa062000c68565b90600052602060002001549050919050565b5490565b634e487b7160e01b600052604160045260246000fd5b600181811c9082168062000ae157607f821691505b60208210810362000b0257634e487b7160e01b600052602260045260246000fd5b50919050565b601f8211156200067457600081815260208120601f850160051c8101602086101562000b315750805b601f850160051c820191505b8181101562000b525782815560010162000b3d565b505050505050565b81516001600160401b0381111562000b765762000b7662000ab6565b62000b8e8162000b87845462000acc565b8462000b08565b602080601f83116001811462000bc6576000841562000bad5750858301515b600019600386901b1c1916600185901b17855562000b52565b600085815260208120601f198616915b8281101562000bf75788860151825594840194600190910190840162000bd6565b508582101562000c165787850151600019600388901b60f8161c191681555b5050505050600190811b01905550565b634e487b7160e01b600052601160045260246000fd5b80820180821115620002cb57620002cb62000c26565b81810381811115620002cb57620002cb62000c26565b634e487b7160e01b600052603260045260246000fd5b60805160a05160c05160e0516101005161012051612e9f62000cce60003960006118d401526000611923015260006118fe0152600061185701526000611881015260006118ab0152612e9f6000f3fe608060405234801561001057600080fd5b50600436106102de5760003560e01c806370a08231116101865780639ab24eb0116100e3578063d505accf11610097578063dd62ed3e11610071578063dd62ed3e1461063f578063e63ab1e914610678578063f1127ed81461069f57600080fd5b8063d505accf146105f2578063d539139314610605578063d547741f1461062c57600080fd5b8063a457c2d7116100c8578063a457c2d7146105b9578063a9059cbb146105cc578063c3cda520146105df57600080fd5b80639ab24eb01461059e578063a217fddf146105b157600080fd5b80638e539e8c1161013a57806395d89b411161011f57806395d89b411461057b5780639711715a14610583578063981b24d01461058b57600080fd5b80638e539e8c1461052f57806391d148541461054257600080fd5b80637ecebe001161016b5780637ecebe001461050e5780638456cb59146105215780638da5cb5b1461052957600080fd5b806370a08231146104d257806379cc6790146104fb57600080fd5b8063395093511161023f5780634ee2cd7e116101f35780635c975abb116101cd5780635c975abb146104785780636fcfff45146104835780637028e2cd146104ab57600080fd5b80634ee2cd7e1461040e578063587cde1e146104215780635c19a95c1461046557600080fd5b80633f4ba83a116102245780633f4ba83a146103e057806340c10f19146103e857806342966c68146103fb57600080fd5b806339509351146103ba5780633a46b1a8146103cd57600080fd5b8063248a9ca311610296578063313ce5671161027b578063313ce567146103905780633644e5151461039f57806336568abe146103a757600080fd5b8063248a9ca3146103585780632f2ff15d1461037b57600080fd5b8063095ea7b3116102c7578063095ea7b31461032057806318160ddd1461033357806323b872dd1461034557600080fd5b806301ffc9a7146102e357806306fdde031461030b575b600080fd5b6102f66102f1366004612a2b565b6106dc565b60405190151581526020015b60405180910390f35b610313610775565b6040516103029190612a91565b6102f661032e366004612adb565b610807565b6002545b604051908152602001610302565b6102f6610353366004612b05565b61081f565b610337610366366004612b41565b60009081526009602052604090206001015490565b61038e610389366004612b5a565b610843565b005b60405160128152602001610302565b61033761086d565b61038e6103b5366004612b5a565b61087c565b6102f66103c8366004612adb565b61090d565b6103376103db366004612adb565b61094c565b61038e6109c6565b61038e6103f6366004612adb565b6109fb565b61038e610409366004612b41565b610a2f565b61033761041c366004612adb565b610a39565b61044d61042f366004612b86565b6001600160a01b039081166000908152600d60205260409020541690565b6040516001600160a01b039091168152602001610302565b61038e610473366004612b86565b610a92565b600a5460ff166102f6565b610496610491366004612b86565b610a9c565b60405163ffffffff9091168152602001610302565b6103377f5fdbd35e8da83ee755d5e62a539e5ed7f47126abede0b8b10f9ea43dc6eed07f81565b6103376104e0366004612b86565b6001600160a01b031660009081526020819052604090205490565b61038e610509366004612adb565b610abe565b61033761051c366004612b86565b610ad3565b61038e610af1565b3361044d565b61033761053d366004612b41565b610b23565b6102f6610550366004612b5a565b60009182526009602090815260408084206001600160a01b0393909316845291905290205460ff1690565b610313610b7f565b61038e610b8e565b610337610599366004612b41565b610bc0565b6103376105ac366004612b86565b610beb565b610337600081565b6102f66105c7366004612adb565b610c72565b6102f66105da366004612adb565b610d1c565b61038e6105ed366004612bb2565b610d2a565b61038e610600366004612c0a565b610e60565b6103377f9f2df0fed2c77648de5860a4cc508cd0818c85b8b8a1ab4ceeef8d981c8956a681565b61038e61063a366004612b5a565b610fc4565b61033761064d366004612c74565b6001600160a01b03918216600090815260016020908152604080832093909416825291909152205490565b6103377f65d7a28e3265b37a6474929f336521b332c1681b933f6cb9f3376673440d862a81565b6106b26106ad366004612c9e565b610fe9565b60408051825163ffffffff1681526020928301516001600160e01b03169281019290925201610302565b60007fffffffff0000000000000000000000000000000000000000000000000000000082167f7965db0b00000000000000000000000000000000000000000000000000000000148061076f57507f01ffc9a7000000000000000000000000000000000000000000000000000000007fffffffff000000000000000000000000000000000000000000000000000000008316145b92915050565b60606003805461078490612cde565b80601f01602080910402602001604051908101604052809291908181526020018280546107b090612cde565b80156107fd5780601f106107d2576101008083540402835291602001916107fd565b820191906000526020600020905b8154815290600101906020018083116107e057829003601f168201915b5050505050905090565b600033610815818585611392565b5060019392505050565b60003361082d8582856114ea565b610838858585611576565b506001949350505050565b60008281526009602052604090206001015461085e8161179e565b61086883836117a8565b505050565b600061087761184a565b905090565b6001600160a01b03811633146108ff5760405162461bcd60e51b815260206004820152602f60248201527f416363657373436f6e74726f6c3a2063616e206f6e6c792072656e6f756e636560448201527f20726f6c657320666f722073656c66000000000000000000000000000000000060648201526084015b60405180910390fd5b6109098282611971565b5050565b3360008181526001602090815260408083206001600160a01b03871684529091528120549091906108159082908690610947908790612d28565b611392565b600043821061099d5760405162461bcd60e51b815260206004820152601f60248201527f4552433230566f7465733a20626c6f636b206e6f7420796574206d696e65640060448201526064016108f6565b6001600160a01b0383166000908152600e602052604090206109bf90836119f4565b9392505050565b7f65d7a28e3265b37a6474929f336521b332c1681b933f6cb9f3376673440d862a6109f08161179e565b6109f8611ab1565b50565b7f9f2df0fed2c77648de5860a4cc508cd0818c85b8b8a1ab4ceeef8d981c8956a6610a258161179e565b6108688383611b03565b6109f83382611b0d565b6001600160a01b038216600090815260056020526040812081908190610a60908590611b17565b9150915081610a87576001600160a01b038516600090815260208190526040902054610a89565b805b95945050505050565b6109f83382611c14565b6001600160a01b0381166000908152600e602052604081205461076f9061128c565b610ac98233836114ea565b6109098282611b0d565b6001600160a01b0381166000908152600b602052604081205461076f565b7f65d7a28e3265b37a6474929f336521b332c1681b933f6cb9f3376673440d862a610b1b8161179e565b6109f8611ca5565b6000438210610b745760405162461bcd60e51b815260206004820152601f60248201527f4552433230566f7465733a20626c6f636b206e6f7420796574206d696e65640060448201526064016108f6565b61076f600f836119f4565b60606004805461078490612cde565b7f5fdbd35e8da83ee755d5e62a539e5ed7f47126abede0b8b10f9ea43dc6eed07f610bb88161179e565b610909611ce2565b6000806000610bd0846006611b17565b9150915081610be157600254610be3565b805b949350505050565b6001600160a01b0381166000908152600e60205260408120548015610c5f576001600160a01b0383166000908152600e60205260409020610c2d600183612d3b565b81548110610c3d57610c3d612d4e565b60009182526020909120015464010000000090046001600160e01b0316610c62565b60005b6001600160e01b03169392505050565b3360008181526001602090815260408083206001600160a01b038716845290915281205490919083811015610d0f5760405162461bcd60e51b815260206004820152602560248201527f45524332303a2064656372656173656420616c6c6f77616e63652062656c6f7760448201527f207a65726f00000000000000000000000000000000000000000000000000000060648201526084016108f6565b6108388286868403611392565b600033610815818585611576565b83421115610d7a5760405162461bcd60e51b815260206004820152601d60248201527f4552433230566f7465733a207369676e6174757265206578706972656400000060448201526064016108f6565b604080517fe48329057bfd03d55e49b547132e39cffd9c1820ad7b9d4c5307691425d15adf60208201526001600160a01b038816918101919091526060810186905260808101859052600090610df490610dec9060a00160405160208183030381529060405280519060200120611d3c565b858585611da5565b9050610dff81611dcd565b8614610e4d5760405162461bcd60e51b815260206004820152601960248201527f4552433230566f7465733a20696e76616c6964206e6f6e63650000000000000060448201526064016108f6565b610e578188611c14565b50505050505050565b83421115610eb05760405162461bcd60e51b815260206004820152601d60248201527f45524332305065726d69743a206578706972656420646561646c696e6500000060448201526064016108f6565b60007f6e71edae12b1b97f4d1f60370fef10105fa2faae0126114a169c64845d6126c9888888610edf8c611dcd565b6040805160208101969096526001600160a01b0394851690860152929091166060840152608083015260a082015260c0810186905260e0016040516020818303038152906040528051906020012090506000610f3a82611d3c565b90506000610f4a82878787611da5565b9050896001600160a01b0316816001600160a01b031614610fad5760405162461bcd60e51b815260206004820152601e60248201527f45524332305065726d69743a20696e76616c6964207369676e6174757265000060448201526064016108f6565b610fb88a8a8a611392565b50505050505050505050565b600082815260096020526040902060010154610fdf8161179e565b6108688383611971565b60408051808201909152600080825260208201526001600160a01b0383166000908152600e60205260409020805463ffffffff841690811061102d5761102d612d4e565b60009182526020918290206040805180820190915291015463ffffffff8116825264010000000090046001600160e01b0316918101919091529392505050565b611077828261110a565b6002546001600160e01b0310156110f65760405162461bcd60e51b815260206004820152603060248201527f4552433230566f7465733a20746f74616c20737570706c79207269736b73206f60448201527f766572666c6f77696e6720766f7465730000000000000000000000000000000060648201526084016108f6565b611104600f6111fd83611df5565b50505050565b6001600160a01b0382166111605760405162461bcd60e51b815260206004820152601f60248201527f45524332303a206d696e7420746f20746865207a65726f20616464726573730060448201526064016108f6565b61116c60008383611f6e565b806002600082825461117e9190612d28565b90915550506001600160a01b038216600090815260208190526040812080548392906111ab908490612d28565b90915550506040518181526001600160a01b038316906000907fddf252ad1be2c89b69c2b068fc378daa952ba7f163c4a11628f55a4df523b3ef9060200160405180910390a361090960008383611f81565b60006109bf8284612d28565b60006001600160e01b038211156112885760405162461bcd60e51b815260206004820152602760248201527f53616665436173743a2076616c756520646f65736e27742066697420696e203260448201527f323420626974730000000000000000000000000000000000000000000000000060648201526084016108f6565b5090565b600063ffffffff8211156112885760405162461bcd60e51b815260206004820152602660248201527f53616665436173743a2076616c756520646f65736e27742066697420696e203360448201527f322062697473000000000000000000000000000000000000000000000000000060648201526084016108f6565b6001600160a01b0383166113275761131f82611f8c565b610868611fbe565b6001600160a01b03821661133e5761131f83611f8c565b61134783611f8c565b61086882611f8c565b6001600160a01b038381166000908152600d602052604080822054858416835291205461086892918216911683611fce565b60006109bf8284612d3b565b5490565b6001600160a01b03831661140d5760405162461bcd60e51b8152602060048201526024808201527f45524332303a20617070726f76652066726f6d20746865207a65726f2061646460448201527f726573730000000000000000000000000000000000000000000000000000000060648201526084016108f6565b6001600160a01b0382166114895760405162461bcd60e51b815260206004820152602260248201527f45524332303a20617070726f766520746f20746865207a65726f20616464726560448201527f737300000000000000000000000000000000000000000000000000000000000060648201526084016108f6565b6001600160a01b0383811660008181526001602090815260408083209487168084529482529182902085905590518481527f8c5be1e5ebec7d5bd14f71427d1e84f3dd0314c0f7b2291e5b200ac8c7c3b925910160405180910390a3505050565b6001600160a01b03838116600090815260016020908152604080832093861683529290522054600019811461110457818110156115695760405162461bcd60e51b815260206004820152601d60248201527f45524332303a20696e73756666696369656e7420616c6c6f77616e636500000060448201526064016108f6565b6111048484848403611392565b6001600160a01b0383166115f25760405162461bcd60e51b815260206004820152602560248201527f45524332303a207472616e736665722066726f6d20746865207a65726f20616460448201527f647265737300000000000000000000000000000000000000000000000000000060648201526084016108f6565b6001600160a01b03821661166e5760405162461bcd60e51b815260206004820152602360248201527f45524332303a207472616e7366657220746f20746865207a65726f206164647260448201527f657373000000000000000000000000000000000000000000000000000000000060648201526084016108f6565b611679838383611f6e565b6001600160a01b038316600090815260208190526040902054818110156117085760405162461bcd60e51b815260206004820152602660248201527f45524332303a207472616e7366657220616d6f756e742065786365656473206260448201527f616c616e6365000000000000000000000000000000000000000000000000000060648201526084016108f6565b6001600160a01b0380851660009081526020819052604080822085850390559185168152908120805484929061173f908490612d28565b92505081905550826001600160a01b0316846001600160a01b03167fddf252ad1be2c89b69c2b068fc378daa952ba7f163c4a11628f55a4df523b3ef8460405161178b91815260200190565b60405180910390a3611104848484611f81565b6109f8813361210b565b60008281526009602090815260408083206001600160a01b038516845290915290205460ff166109095760008281526009602090815260408083206001600160a01b03851684529091529020805460ff191660011790556118063390565b6001600160a01b0316816001600160a01b0316837f2f8788117e7eff1d82e926ec794901d17c78024a50270940304540a733656f0d60405160405180910390a45050565b6000306001600160a01b037f0000000000000000000000000000000000000000000000000000000000000000161480156118a357507f000000000000000000000000000000000000000000000000000000000000000046145b156118cd57507f000000000000000000000000000000000000000000000000000000000000000090565b50604080517f00000000000000000000000000000000000000000000000000000000000000006020808301919091527f0000000000000000000000000000000000000000000000000000000000000000828401527f000000000000000000000000000000000000000000000000000000000000000060608301524660808301523060a0808401919091528351808403909101815260c0909201909252805191012090565b60008281526009602090815260408083206001600160a01b038516845290915290205460ff16156109095760008281526009602090815260408083206001600160a01b0385168085529252808320805460ff1916905551339285917ff6391f5c32d9c69d2a47ea670b442974b53935d1edc7fd64eb21e047a839171b9190a45050565b8154600090815b81811015611a58576000611a0f828461218b565b905084868281548110611a2457611a24612d4e565b60009182526020909120015463ffffffff161115611a4457809250611a52565b611a4f816001612d28565b91505b506119fb565b8115611a9c5784611a6a600184612d3b565b81548110611a7a57611a7a612d4e565b60009182526020909120015464010000000090046001600160e01b0316611a9f565b60005b6001600160e01b031695945050505050565b611ab96121a6565b600a805460ff191690557f5db9ee0a495bf2e6ff9c91a7834c1ba4fdd244a5e8aa4e537bd38aeae4b073aa335b6040516001600160a01b03909116815260200160405180910390a1565b610909828261106d565b61090982826121f8565b60008060008411611b6a5760405162461bcd60e51b815260206004820152601660248201527f4552433230536e617073686f743a20696420697320300000000000000000000060448201526064016108f6565b611b72612210565b841115611bc15760405162461bcd60e51b815260206004820152601d60248201527f4552433230536e617073686f743a206e6f6e6578697374656e7420696400000060448201526064016108f6565b6000611bcd848661221b565b84549091508103611be5576000809250925050611c0d565b6001846001018281548110611bfc57611bfc612d4e565b906000526020600020015492509250505b9250929050565b6001600160a01b038281166000818152600d60208181526040808420805485845282862054949093528787167fffffffffffffffffffffffff00000000000000000000000000000000000000008416811790915590519190951694919391928592917f3134e8a2e6d97e929a7e54011ea5485d7d196dd5f0ba4d4ef95803e8e3fc257f9190a4611104828483611fce565b611cad6122e0565b600a805460ff191660011790557f62e78cea01bee320cd4e420270b5ea74000d11b0c9f74754ebdbfc544b05a258611ae63390565b6000611cf2600880546001019055565b6000611cfc612210565b90507f8030e83b04d87bef53480e26263266d6ca66863aa8506aca6f2559d18aa1cb6781604051611d2f91815260200190565b60405180910390a1919050565b600061076f611d4961184a565b836040517f19010000000000000000000000000000000000000000000000000000000000006020820152602281018390526042810182905260009060620160405160208183030381529060405280519060200120905092915050565b6000806000611db687878787612333565b91509150611dc381612420565b5095945050505050565b6001600160a01b0381166000908152600b602052604090208054600181018255905b50919050565b825460009081908015611e405785611e0e600183612d3b565b81548110611e1e57611e1e612d4e565b60009182526020909120015464010000000090046001600160e01b0316611e43565b60005b6001600160e01b03169250611e5c83858763ffffffff16565b9150600081118015611e9a57504386611e76600184612d3b565b81548110611e8657611e86612d4e565b60009182526020909120015463ffffffff16145b15611efa57611ea882611209565b86611eb4600184612d3b565b81548110611ec457611ec4612d4e565b9060005260206000200160000160046101000a8154816001600160e01b0302191690836001600160e01b03160217905550611f65565b856040518060400160405280611f0f4361128c565b63ffffffff168152602001611f2385611209565b6001600160e01b0390811690915282546001810184556000938452602093849020835194909301519091166401000000000263ffffffff909316929092179101555b50935093915050565b611f766122e0565b610868838383611308565b610868838383611350565b6001600160a01b038116600090815260056020908152604080832091839052909120546109f891906125d6565b6125d6565b611fcc6006611fb960025490565b565b816001600160a01b0316836001600160a01b031614158015611ff05750600081115b15610868576001600160a01b0383161561207e576001600160a01b0383166000908152600e60205260408120819061202b9061138285611df5565b91509150846001600160a01b03167fdec2bacdd2f05b59de34da9b523dff8be42e5e38e818c82fdb0bae774387a7248383604051612073929190918252602082015260400190565b60405180910390a250505b6001600160a01b03821615610868576001600160a01b0382166000908152600e6020526040812081906120b4906111fd85611df5565b91509150836001600160a01b03167fdec2bacdd2f05b59de34da9b523dff8be42e5e38e818c82fdb0bae774387a72483836040516120fc929190918252602082015260400190565b60405180910390a25050505050565b60008281526009602090815260408083206001600160a01b038516845290915290205460ff1661090957612149816001600160a01b03166014612620565b612154836020612620565b604051602001612165929190612d64565b60408051601f198184030181529082905262461bcd60e51b82526108f691600401612a91565b600061219a6002848418612de5565b6109bf90848416612d28565b600a5460ff16611fcc5760405162461bcd60e51b815260206004820152601460248201527f5061757361626c653a206e6f742070617573656400000000000000000000000060448201526064016108f6565b6122028282612849565b611104600f61138283611df5565b600061087760085490565b8154600090810361222e5750600061076f565b82546000905b8082101561228a576000612248838361218b565b90508486828154811061225d5761225d612d4e565b9060005260206000200154111561227657809150612284565b612281816001612d28565b92505b50612234565b6000821180156122bf575083856122a2600185612d3b565b815481106122b2576122b2612d4e565b9060005260206000200154145b156122d8576122cf600183612d3b565b9250505061076f565b50905061076f565b600a5460ff1615611fcc5760405162461bcd60e51b815260206004820152601060248201527f5061757361626c653a207061757365640000000000000000000000000000000060448201526064016108f6565b6000807f7fffffffffffffffffffffffffffffff5d576e7357a4501ddfe92f46681b20a083111561236a5750600090506003612417565b8460ff16601b1415801561238257508460ff16601c14155b156123935750600090506004612417565b6040805160008082526020820180845289905260ff881692820192909252606081018690526080810185905260019060a0016020604051602081039080840390855afa1580156123e7573d6000803e3d6000fd5b5050604051601f1901519150506001600160a01b03811661241057600060019250925050612417565b9150600090505b94509492505050565b600081600481111561243457612434612e07565b0361243c5750565b600181600481111561245057612450612e07565b0361249d5760405162461bcd60e51b815260206004820152601860248201527f45434453413a20696e76616c6964207369676e6174757265000000000000000060448201526064016108f6565b60028160048111156124b1576124b1612e07565b036124fe5760405162461bcd60e51b815260206004820152601f60248201527f45434453413a20696e76616c6964207369676e6174757265206c656e6774680060448201526064016108f6565b600381600481111561251257612512612e07565b0361256a5760405162461bcd60e51b815260206004820152602260248201527f45434453413a20696e76616c6964207369676e6174757265202773272076616c604482015261756560f01b60648201526084016108f6565b600481600481111561257e5761257e612e07565b036109f85760405162461bcd60e51b815260206004820152602260248201527f45434453413a20696e76616c6964207369676e6174757265202776272076616c604482015261756560f01b60648201526084016108f6565b60006125e0612210565b9050806125ec846129e1565b1015610868578254600180820185556000858152602080822090930193909355938401805494850181558252902090910155565b6060600061262f836002612e1d565b61263a906002612d28565b67ffffffffffffffff81111561265257612652612e3c565b6040519080825280601f01601f19166020018201604052801561267c576020820181803683370190505b5090507f3000000000000000000000000000000000000000000000000000000000000000816000815181106126b3576126b3612d4e565b60200101907effffffffffffffffffffffffffffffffffffffffffffffffffffffffffffff1916908160001a9053507f78000000000000000000000000000000000000000000000000000000000000008160018151811061271657612716612d4e565b60200101907effffffffffffffffffffffffffffffffffffffffffffffffffffffffffffff1916908160001a9053506000612752846002612e1d565b61275d906001612d28565b90505b60018111156127fa577f303132333435363738396162636465660000000000000000000000000000000085600f166010811061279e5761279e612d4e565b1a60f81b8282815181106127b4576127b4612d4e565b60200101907effffffffffffffffffffffffffffffffffffffffffffffffffffffffffffff1916908160001a90535060049490941c936127f381612e52565b9050612760565b5083156109bf5760405162461bcd60e51b815260206004820181905260248201527f537472696e67733a20686578206c656e67746820696e73756666696369656e7460448201526064016108f6565b6001600160a01b0382166128c55760405162461bcd60e51b815260206004820152602160248201527f45524332303a206275726e2066726f6d20746865207a65726f2061646472657360448201527f730000000000000000000000000000000000000000000000000000000000000060648201526084016108f6565b6128d182600083611f6e565b6001600160a01b038216600090815260208190526040902054818110156129605760405162461bcd60e51b815260206004820152602260248201527f45524332303a206275726e20616d6f756e7420657863656564732062616c616e60448201527f636500000000000000000000000000000000000000000000000000000000000060648201526084016108f6565b6001600160a01b038316600090815260208190526040812083830390556002805484929061298f908490612d3b565b90915550506040518281526000906001600160a01b038516907fddf252ad1be2c89b69c2b068fc378daa952ba7f163c4a11628f55a4df523b3ef9060200160405180910390a361086883600084611f81565b805460009081036129f457506000919050565b81548290612a0490600190612d3b565b81548110612a1457612a14612d4e565b90600052602060002001549050919050565b919050565b600060208284031215612a3d57600080fd5b81357fffffffff00000000000000000000000000000000000000000000000000000000811681146109bf57600080fd5b60005b83811015612a88578181015183820152602001612a70565b50506000910152565b6020815260008251806020840152612ab0816040850160208701612a6d565b601f01601f19169190910160400192915050565b80356001600160a01b0381168114612a2657600080fd5b60008060408385031215612aee57600080fd5b612af783612ac4565b946020939093013593505050565b600080600060608486031215612b1a57600080fd5b612b2384612ac4565b9250612b3160208501612ac4565b9150604084013590509250925092565b600060208284031215612b5357600080fd5b5035919050565b60008060408385031215612b6d57600080fd5b82359150612b7d60208401612ac4565b90509250929050565b600060208284031215612b9857600080fd5b6109bf82612ac4565b803560ff81168114612a2657600080fd5b60008060008060008060c08789031215612bcb57600080fd5b612bd487612ac4565b95506020870135945060408701359350612bf060608801612ba1565b92506080870135915060a087013590509295509295509295565b600080600080600080600060e0888a031215612c2557600080fd5b612c2e88612ac4565b9650612c3c60208901612ac4565b95506040880135945060608801359350612c5860808901612ba1565b925060a0880135915060c0880135905092959891949750929550565b60008060408385031215612c8757600080fd5b612c9083612ac4565b9150612b7d60208401612ac4565b60008060408385031215612cb157600080fd5b612cba83612ac4565b9150602083013563ffffffff81168114612cd357600080fd5b809150509250929050565b600181811c90821680612cf257607f821691505b602082108103611def57634e487b7160e01b600052602260045260246000fd5b634e487b7160e01b600052601160045260246000fd5b8082018082111561076f5761076f612d12565b8181038181111561076f5761076f612d12565b634e487b7160e01b600052603260045260246000fd5b7f416363657373436f6e74726f6c3a206163636f756e7420000000000000000000815260008351612d9c816017850160208801612a6d565b7f206973206d697373696e6720726f6c65200000000000000000000000000000006017918401918201528351612dd9816028840160208801612a6d565b01602801949350505050565b600082612e0257634e487b7160e01b600052601260045260246000fd5b500490565b634e487b7160e01b600052602160045260246000fd5b6000816000190483118215151615612e3757612e37612d12565b500290565b634e487b7160e01b600052604160045260246000fd5b600081612e6157612e61612d12565b50600019019056fea2646970667358221220c54cb3b9249152d18ad857c2db45035c8f3609111665820a0ee92cad78d5912264736f6c63430008100033dec2bacdd2f05b59de34da9b523dff8be42e5e38e818c82fdb0bae774387a724",
  "immutableReferences": {
    "7653": [
      {
        "length": 32,
        "start": 6315
      }
    ],
    "7655": [
      {
        "length": 32,
        "start": 6273
      }
    ],
    "7657": [
      {
        "length": 32,
        "start": 6231
      }
    ],
    "7659": [
      {
        "length": 32,
        "start": 6398
      }
    ],
    "7661": [
      {
        "length": 32,
        "start": 6435
      }
    ],
    "7663": [
      {
        "length": 32,
        "start": 6356
      }
    ]
  },
  "source": "// SPDX-License-Identifier: MIT\r\npragma solidity ^0.8.4;\r\n\r\nimport \"@openzeppelin/contracts/token/ERC20/ERC20.sol\";\r\nimport \"@openzeppelin/contracts/token/ERC20/extensions/ERC20Burnable.sol\";\r\nimport \"@openzeppelin/contracts/token/ERC20/extensions/ERC20Snapshot.sol\";\r\nimport \"@openzeppelin/contracts/access/AccessControl.sol\";\r\nimport \"@openzeppelin/contracts/security/Pausable.sol\";\r\nimport \"@openzeppelin/contracts/token/ERC20/extensions/draft-ERC20Permit.sol\";\r\nimport \"@openzeppelin/contracts/token/ERC20/extensions/ERC20Votes.sol\";\r\n\r\ncontract GovermentToken is ERC20, ERC20Burnable, ERC20Snapshot, AccessControl, Pausable, ERC20Permit, ERC20Votes {\r\n    bytes32 public constant SNAPSHOT_ROLE = keccak256(\"SNAPSHOT_ROLE\");\r\n    bytes32 public constant PAUSER_ROLE = keccak256(\"PAUSER_ROLE\");\r\n    bytes32 public constant MINTER_ROLE = keccak256(\"MINTER_ROLE\");\r\n\r\n    constructor() ERC20(\"GovermentToken\", \"GVT\") ERC20Permit(\"GovermentToken\") {\r\n        _grantRole(DEFAULT_ADMIN_ROLE, msg.sender);\r\n        _grantRole(SNAPSHOT_ROLE, msg.sender);\r\n        _grantRole(PAUSER_ROLE, msg.sender);\r\n        _grantRole(MINTER_ROLE, msg.sender);\r\n        _mint(msg.sender, 100000000000000000000000);\r\n    }\r\n\r\n    function snapshot() public onlyRole(SNAPSHOT_ROLE) {\r\n        _snapshot();\r\n    }\r\n\r\n    function pause() public onlyRole(PAUSER_ROLE) {\r\n        _pause();\r\n    }\r\n\r\n    function unpause() public onlyRole(PAUSER_ROLE) {\r\n        _unpause();\r\n    }\r\n\r\n    function mint(address to, uint256 amount) public onlyRole(MINTER_ROLE) {\r\n        _mint(to, amount);\r\n    }\r\n\r\n    function _beforeTokenTransfer(address from, address to, uint256 amount)\r\n        internal\r\n        whenNotPaused\r\n        override(ERC20, ERC20Snapshot)\r\n    {\r\n        super._beforeTokenTransfer(from, to, amount);\r\n    }\r\n\r\n    // The following functions are overrides required by Solidity.\r\n\r\n    function _afterTokenTransfer(address from, address to, uint256 amount)\r\n        internal\r\n        override(ERC20, ERC20Votes)\r\n    {\r\n        super._afterTokenTransfer(from, to, amount);\r\n    }\r\n\r\n    function _mint(address to, uint256 amount)\r\n        internal\r\n        override(ERC20, ERC20Votes)\r\n    {\r\n        super._mint(to, amount);\r\n    }\r\n\r\n    function _burn(address account, uint256 amount)\r\n        internal\r\n        override(ERC20, ERC20Votes)\r\n    {\r\n        super._burn(account, amount);\r\n    }\r\n\r\n    function owner() public view returns(address) {\r\n        return msg.sender;\r\n    }\r\n}",
  "sourcePath": "D:\\ProjectSolidity\\MoralisDaoToken\\DAOTutorial-BackEndv2\\contracts\\GovermentToken.sol",
  "compiler": {
    "name": "solc",
    "version": "0.8.16+commit.07a7930e.Emscripten.clang"
  },
  "schemaVersion": "3.4.9",
  "updatedAt": "2022-09-15T03:51:33.671Z",
  "networkType": "ethereum",
  "devdoc": {
    "kind": "dev",
    "methods": {
      "DOMAIN_SEPARATOR()": {
        "details": "See {IERC20Permit-DOMAIN_SEPARATOR}."
      },
      "allowance(address,address)": {
        "details": "See {IERC20-allowance}."
      },
      "approve(address,uint256)": {
        "details": "See {IERC20-approve}. NOTE: If `amount` is the maximum `uint256`, the allowance is not updated on `transferFrom`. This is semantically equivalent to an infinite approval. Requirements: - `spender` cannot be the zero address."
      },
      "balanceOf(address)": {
        "details": "See {IERC20-balanceOf}."
      },
      "balanceOfAt(address,uint256)": {
        "details": "Retrieves the balance of `account` at the time `snapshotId` was created."
      },
      "burn(uint256)": {
        "details": "Destroys `amount` tokens from the caller. See {ERC20-_burn}."
      },
      "burnFrom(address,uint256)": {
        "details": "Destroys `amount` tokens from `account`, deducting from the caller's allowance. See {ERC20-_burn} and {ERC20-allowance}. Requirements: - the caller must have allowance for ``accounts``'s tokens of at least `amount`."
      },
      "checkpoints(address,uint32)": {
        "details": "Get the `pos`-th checkpoint for `account`."
      },
      "decimals()": {
        "details": "Returns the number of decimals used to get its user representation. For example, if `decimals` equals `2`, a balance of `505` tokens should be displayed to a user as `5.05` (`505 / 10 ** 2`). Tokens usually opt for a value of 18, imitating the relationship between Ether and Wei. This is the value {ERC20} uses, unless this function is overridden; NOTE: This information is only used for _display_ purposes: it in no way affects any of the arithmetic of the contract, including {IERC20-balanceOf} and {IERC20-transfer}."
      },
      "decreaseAllowance(address,uint256)": {
        "details": "Atomically decreases the allowance granted to `spender` by the caller. This is an alternative to {approve} that can be used as a mitigation for problems described in {IERC20-approve}. Emits an {Approval} event indicating the updated allowance. Requirements: - `spender` cannot be the zero address. - `spender` must have allowance for the caller of at least `subtractedValue`."
      },
      "delegate(address)": {
        "details": "Delegate votes from the sender to `delegatee`."
      },
      "delegateBySig(address,uint256,uint256,uint8,bytes32,bytes32)": {
        "details": "Delegates votes from signer to `delegatee`"
      },
      "delegates(address)": {
        "details": "Get the address `account` is currently delegating to."
      },
      "getPastTotalSupply(uint256)": {
        "details": "Retrieve the `totalSupply` at the end of `blockNumber`. Note, this value is the sum of all balances. It is but NOT the sum of all the delegated votes! Requirements: - `blockNumber` must have been already mined"
      },
      "getPastVotes(address,uint256)": {
        "details": "Retrieve the number of votes for `account` at the end of `blockNumber`. Requirements: - `blockNumber` must have been already mined"
      },
      "getRoleAdmin(bytes32)": {
        "details": "Returns the admin role that controls `role`. See {grantRole} and {revokeRole}. To change a role's admin, use {_setRoleAdmin}."
      },
      "getVotes(address)": {
        "details": "Gets the current votes balance for `account`"
      },
      "grantRole(bytes32,address)": {
        "details": "Grants `role` to `account`. If `account` had not been already granted `role`, emits a {RoleGranted} event. Requirements: - the caller must have ``role``'s admin role. May emit a {RoleGranted} event."
      },
      "hasRole(bytes32,address)": {
        "details": "Returns `true` if `account` has been granted `role`."
      },
      "increaseAllowance(address,uint256)": {
        "details": "Atomically increases the allowance granted to `spender` by the caller. This is an alternative to {approve} that can be used as a mitigation for problems described in {IERC20-approve}. Emits an {Approval} event indicating the updated allowance. Requirements: - `spender` cannot be the zero address."
      },
      "name()": {
        "details": "Returns the name of the token."
      },
      "nonces(address)": {
        "details": "See {IERC20Permit-nonces}."
      },
      "numCheckpoints(address)": {
        "details": "Get number of checkpoints for `account`."
      },
      "paused()": {
        "details": "Returns true if the contract is paused, and false otherwise."
      },
      "permit(address,address,uint256,uint256,uint8,bytes32,bytes32)": {
        "details": "See {IERC20Permit-permit}."
      },
      "renounceRole(bytes32,address)": {
        "details": "Revokes `role` from the calling account. Roles are often managed via {grantRole} and {revokeRole}: this function's purpose is to provide a mechanism for accounts to lose their privileges if they are compromised (such as when a trusted device is misplaced). If the calling account had been revoked `role`, emits a {RoleRevoked} event. Requirements: - the caller must be `account`. May emit a {RoleRevoked} event."
      },
      "revokeRole(bytes32,address)": {
        "details": "Revokes `role` from `account`. If `account` had been granted `role`, emits a {RoleRevoked} event. Requirements: - the caller must have ``role``'s admin role. May emit a {RoleRevoked} event."
      },
      "supportsInterface(bytes4)": {
        "details": "See {IERC165-supportsInterface}."
      },
      "symbol()": {
        "details": "Returns the symbol of the token, usually a shorter version of the name."
      },
      "totalSupply()": {
        "details": "See {IERC20-totalSupply}."
      },
      "totalSupplyAt(uint256)": {
        "details": "Retrieves the total supply at the time `snapshotId` was created."
      },
      "transfer(address,uint256)": {
        "details": "See {IERC20-transfer}. Requirements: - `to` cannot be the zero address. - the caller must have a balance of at least `amount`."
      },
      "transferFrom(address,address,uint256)": {
        "details": "See {IERC20-transferFrom}. Emits an {Approval} event indicating the updated allowance. This is not required by the EIP. See the note at the beginning of {ERC20}. NOTE: Does not update the allowance if the current allowance is the maximum `uint256`. Requirements: - `from` and `to` cannot be the zero address. - `from` must have a balance of at least `amount`. - the caller must have allowance for ``from``'s tokens of at least `amount`."
      }
    },
    "version": 1
  },
  "userdoc": {
    "kind": "user",
    "methods": {},
    "version": 1
  }
}