{
  "contractName": "MyGovernor",
  "abi": [
    {
      "inputs": [
        {
          "internalType": "contract IVotes",
          "name": "_token",
          "type": "address"
        },
        {
          "internalType": "contract TimelockController",
          "name": "_timelock",
          "type": "address"
        }
      ],
      "stateMutability": "nonpayable",
      "type": "constructor"
    },
    {
      "inputs": [],
      "name": "Empty",
      "type": "error"
    },
    {
      "anonymous": false,
      "inputs": [
        {
          "indexed": false,
          "internalType": "uint256",
          "name": "proposalId",
          "type": "uint256"
        }
      ],
      "name": "ProposalCanceled",
      "type": "event"
    },
    {
      "anonymous": false,
      "inputs": [
        {
          "indexed": false,
          "internalType": "uint256",
          "name": "proposalId",
          "type": "uint256"
        },
        {
          "indexed": false,
          "internalType": "address",
          "name": "proposer",
          "type": "address"
        },
        {
          "indexed": false,
          "internalType": "address[]",
          "name": "targets",
          "type": "address[]"
        },
        {
          "indexed": false,
          "internalType": "uint256[]",
          "name": "values",
          "type": "uint256[]"
        },
        {
          "indexed": false,
          "internalType": "string[]",
          "name": "signatures",
          "type": "string[]"
        },
        {
          "indexed": false,
          "internalType": "bytes[]",
          "name": "calldatas",
          "type": "bytes[]"
        },
        {
          "indexed": false,
          "internalType": "uint256",
          "name": "startBlock",
          "type": "uint256"
        },
        {
          "indexed": false,
          "internalType": "uint256",
          "name": "endBlock",
          "type": "uint256"
        },
        {
          "indexed": false,
          "internalType": "string",
          "name": "description",
          "type": "string"
        }
      ],
      "name": "ProposalCreated",
      "type": "event"
    },
    {
      "anonymous": false,
      "inputs": [
        {
          "indexed": false,
          "internalType": "uint256",
          "name": "proposalId",
          "type": "uint256"
        }
      ],
      "name": "ProposalExecuted",
      "type": "event"
    },
    {
      "anonymous": false,
      "inputs": [
        {
          "indexed": false,
          "internalType": "uint256",
          "name": "proposalId",
          "type": "uint256"
        },
        {
          "indexed": false,
          "internalType": "uint256",
          "name": "eta",
          "type": "uint256"
        }
      ],
      "name": "ProposalQueued",
      "type": "event"
    },
    {
      "anonymous": false,
      "inputs": [
        {
          "indexed": false,
          "internalType": "uint256",
          "name": "oldProposalThreshold",
          "type": "uint256"
        },
        {
          "indexed": false,
          "internalType": "uint256",
          "name": "newProposalThreshold",
          "type": "uint256"
        }
      ],
      "name": "ProposalThresholdSet",
      "type": "event"
    },
    {
      "anonymous": false,
      "inputs": [
        {
          "indexed": false,
          "internalType": "uint256",
          "name": "oldQuorumNumerator",
          "type": "uint256"
        },
        {
          "indexed": false,
          "internalType": "uint256",
          "name": "newQuorumNumerator",
          "type": "uint256"
        }
      ],
      "name": "QuorumNumeratorUpdated",
      "type": "event"
    },
    {
      "anonymous": false,
      "inputs": [
        {
          "indexed": false,
          "internalType": "address",
          "name": "oldTimelock",
          "type": "address"
        },
        {
          "indexed": false,
          "internalType": "address",
          "name": "newTimelock",
          "type": "address"
        }
      ],
      "name": "TimelockChange",
      "type": "event"
    },
    {
      "anonymous": false,
      "inputs": [
        {
          "indexed": true,
          "internalType": "address",
          "name": "voter",
          "type": "address"
        },
        {
          "indexed": false,
          "internalType": "uint256",
          "name": "proposalId",
          "type": "uint256"
        },
        {
          "indexed": false,
          "internalType": "uint8",
          "name": "support",
          "type": "uint8"
        },
        {
          "indexed": false,
          "internalType": "uint256",
          "name": "weight",
          "type": "uint256"
        },
        {
          "indexed": false,
          "internalType": "string",
          "name": "reason",
          "type": "string"
        }
      ],
      "name": "VoteCast",
      "type": "event"
    },
    {
      "anonymous": false,
      "inputs": [
        {
          "indexed": true,
          "internalType": "address",
          "name": "voter",
          "type": "address"
        },
        {
          "indexed": false,
          "internalType": "uint256",
          "name": "proposalId",
          "type": "uint256"
        },
        {
          "indexed": false,
          "internalType": "uint8",
          "name": "support",
          "type": "uint8"
        },
        {
          "indexed": false,
          "internalType": "uint256",
          "name": "weight",
          "type": "uint256"
        },
        {
          "indexed": false,
          "internalType": "string",
          "name": "reason",
          "type": "string"
        },
        {
          "indexed": false,
          "internalType": "bytes",
          "name": "params",
          "type": "bytes"
        }
      ],
      "name": "VoteCastWithParams",
      "type": "event"
    },
    {
      "anonymous": false,
      "inputs": [
        {
          "indexed": false,
          "internalType": "uint256",
          "name": "oldVotingDelay",
          "type": "uint256"
        },
        {
          "indexed": false,
          "internalType": "uint256",
          "name": "newVotingDelay",
          "type": "uint256"
        }
      ],
      "name": "VotingDelaySet",
      "type": "event"
    },
    {
      "anonymous": false,
      "inputs": [
        {
          "indexed": false,
          "internalType": "uint256",
          "name": "oldVotingPeriod",
          "type": "uint256"
        },
        {
          "indexed": false,
          "internalType": "uint256",
          "name": "newVotingPeriod",
          "type": "uint256"
        }
      ],
      "name": "VotingPeriodSet",
      "type": "event"
    },
    {
      "inputs": [],
      "name": "BALLOT_TYPEHASH",
      "outputs": [
        {
          "internalType": "bytes32",
          "name": "",
          "type": "bytes32"
        }
      ],
      "stateMutability": "view",
      "type": "function"
    },
    {
      "inputs": [],
      "name": "COUNTING_MODE",
      "outputs": [
        {
          "internalType": "string",
          "name": "",
          "type": "string"
        }
      ],
      "stateMutability": "pure",
      "type": "function"
    },
    {
      "inputs": [],
      "name": "EXTENDED_BALLOT_TYPEHASH",
      "outputs": [
        {
          "internalType": "bytes32",
          "name": "",
          "type": "bytes32"
        }
      ],
      "stateMutability": "view",
      "type": "function"
    },
    {
      "inputs": [
        {
          "internalType": "uint256",
          "name": "proposalId",
          "type": "uint256"
        },
        {
          "internalType": "uint8",
          "name": "support",
          "type": "uint8"
        }
      ],
      "name": "castVote",
      "outputs": [
        {
          "internalType": "uint256",
          "name": "",
          "type": "uint256"
        }
      ],
      "stateMutability": "nonpayable",
      "type": "function"
    },
    {
      "inputs": [
        {
          "internalType": "uint256",
          "name": "proposalId",
          "type": "uint256"
        },
        {
          "internalType": "uint8",
          "name": "support",
          "type": "uint8"
        },
        {
          "internalType": "uint8",
          "name": "v",
          "type": "uint8"
        },
        {
          "internalType": "bytes32",
          "name": "r",
          "type": "bytes32"
        },
        {
          "internalType": "bytes32",
          "name": "s",
          "type": "bytes32"
        }
      ],
      "name": "castVoteBySig",
      "outputs": [
        {
          "internalType": "uint256",
          "name": "",
          "type": "uint256"
        }
      ],
      "stateMutability": "nonpayable",
      "type": "function"
    },
    {
      "inputs": [
        {
          "internalType": "uint256",
          "name": "proposalId",
          "type": "uint256"
        },
        {
          "internalType": "uint8",
          "name": "support",
          "type": "uint8"
        },
        {
          "internalType": "string",
          "name": "reason",
          "type": "string"
        }
      ],
      "name": "castVoteWithReason",
      "outputs": [
        {
          "internalType": "uint256",
          "name": "",
          "type": "uint256"
        }
      ],
      "stateMutability": "nonpayable",
      "type": "function"
    },
    {
      "inputs": [
        {
          "internalType": "uint256",
          "name": "proposalId",
          "type": "uint256"
        },
        {
          "internalType": "uint8",
          "name": "support",
          "type": "uint8"
        },
        {
          "internalType": "string",
          "name": "reason",
          "type": "string"
        },
        {
          "internalType": "bytes",
          "name": "params",
          "type": "bytes"
        }
      ],
      "name": "castVoteWithReasonAndParams",
      "outputs": [
        {
          "internalType": "uint256",
          "name": "",
          "type": "uint256"
        }
      ],
      "stateMutability": "nonpayable",
      "type": "function"
    },
    {
      "inputs": [
        {
          "internalType": "uint256",
          "name": "proposalId",
          "type": "uint256"
        },
        {
          "internalType": "uint8",
          "name": "support",
          "type": "uint8"
        },
        {
          "internalType": "string",
          "name": "reason",
          "type": "string"
        },
        {
          "internalType": "bytes",
          "name": "params",
          "type": "bytes"
        },
        {
          "internalType": "uint8",
          "name": "v",
          "type": "uint8"
        },
        {
          "internalType": "bytes32",
          "name": "r",
          "type": "bytes32"
        },
        {
          "internalType": "bytes32",
          "name": "s",
          "type": "bytes32"
        }
      ],
      "name": "castVoteWithReasonAndParamsBySig",
      "outputs": [
        {
          "internalType": "uint256",
          "name": "",
          "type": "uint256"
        }
      ],
      "stateMutability": "nonpayable",
      "type": "function"
    },
    {
      "inputs": [
        {
          "internalType": "address[]",
          "name": "targets",
          "type": "address[]"
        },
        {
          "internalType": "uint256[]",
          "name": "values",
          "type": "uint256[]"
        },
        {
          "internalType": "bytes[]",
          "name": "calldatas",
          "type": "bytes[]"
        },
        {
          "internalType": "bytes32",
          "name": "descriptionHash",
          "type": "bytes32"
        }
      ],
      "name": "execute",
      "outputs": [
        {
          "internalType": "uint256",
          "name": "",
          "type": "uint256"
        }
      ],
      "stateMutability": "payable",
      "type": "function"
    },
    {
      "inputs": [
        {
          "internalType": "address",
          "name": "account",
          "type": "address"
        },
        {
          "internalType": "uint256",
          "name": "blockNumber",
          "type": "uint256"
        }
      ],
      "name": "getVotes",
      "outputs": [
        {
          "internalType": "uint256",
          "name": "",
          "type": "uint256"
        }
      ],
      "stateMutability": "view",
      "type": "function"
    },
    {
      "inputs": [
        {
          "internalType": "address",
          "name": "account",
          "type": "address"
        },
        {
          "internalType": "uint256",
          "name": "blockNumber",
          "type": "uint256"
        },
        {
          "internalType": "bytes",
          "name": "params",
          "type": "bytes"
        }
      ],
      "name": "getVotesWithParams",
      "outputs": [
        {
          "internalType": "uint256",
          "name": "",
          "type": "uint256"
        }
      ],
      "stateMutability": "view",
      "type": "function"
    },
    {
      "inputs": [
        {
          "internalType": "uint256",
          "name": "proposalId",
          "type": "uint256"
        },
        {
          "internalType": "address",
          "name": "account",
          "type": "address"
        }
      ],
      "name": "hasVoted",
      "outputs": [
        {
          "internalType": "bool",
          "name": "",
          "type": "bool"
        }
      ],
      "stateMutability": "view",
      "type": "function"
    },
    {
      "inputs": [
        {
          "internalType": "address[]",
          "name": "targets",
          "type": "address[]"
        },
        {
          "internalType": "uint256[]",
          "name": "values",
          "type": "uint256[]"
        },
        {
          "internalType": "bytes[]",
          "name": "calldatas",
          "type": "bytes[]"
        },
        {
          "internalType": "bytes32",
          "name": "descriptionHash",
          "type": "bytes32"
        }
      ],
      "name": "hashProposal",
      "outputs": [
        {
          "internalType": "uint256",
          "name": "",
          "type": "uint256"
        }
      ],
      "stateMutability": "pure",
      "type": "function"
    },
    {
      "inputs": [],
      "name": "name",
      "outputs": [
        {
          "internalType": "string",
          "name": "",
          "type": "string"
        }
      ],
      "stateMutability": "view",
      "type": "function"
    },
    {
      "inputs": [
        {
          "internalType": "address",
          "name": "",
          "type": "address"
        },
        {
          "internalType": "address",
          "name": "",
          "type": "address"
        },
        {
          "internalType": "uint256[]",
          "name": "",
          "type": "uint256[]"
        },
        {
          "internalType": "uint256[]",
          "name": "",
          "type": "uint256[]"
        },
        {
          "internalType": "bytes",
          "name": "",
          "type": "bytes"
        }
      ],
      "name": "onERC1155BatchReceived",
      "outputs": [
        {
          "internalType": "bytes4",
          "name": "",
          "type": "bytes4"
        }
      ],
      "stateMutability": "nonpayable",
      "type": "function"
    },
    {
      "inputs": [
        {
          "internalType": "address",
          "name": "",
          "type": "address"
        },
        {
          "internalType": "address",
          "name": "",
          "type": "address"
        },
        {
          "internalType": "uint256",
          "name": "",
          "type": "uint256"
        },
        {
          "internalType": "uint256",
          "name": "",
          "type": "uint256"
        },
        {
          "internalType": "bytes",
          "name": "",
          "type": "bytes"
        }
      ],
      "name": "onERC1155Received",
      "outputs": [
        {
          "internalType": "bytes4",
          "name": "",
          "type": "bytes4"
        }
      ],
      "stateMutability": "nonpayable",
      "type": "function"
    },
    {
      "inputs": [
        {
          "internalType": "address",
          "name": "",
          "type": "address"
        },
        {
          "internalType": "address",
          "name": "",
          "type": "address"
        },
        {
          "internalType": "uint256",
          "name": "",
          "type": "uint256"
        },
        {
          "internalType": "bytes",
          "name": "",
          "type": "bytes"
        }
      ],
      "name": "onERC721Received",
      "outputs": [
        {
          "internalType": "bytes4",
          "name": "",
          "type": "bytes4"
        }
      ],
      "stateMutability": "nonpayable",
      "type": "function"
    },
    {
      "inputs": [
        {
          "internalType": "uint256",
          "name": "proposalId",
          "type": "uint256"
        }
      ],
      "name": "proposalDeadline",
      "outputs": [
        {
          "internalType": "uint256",
          "name": "",
          "type": "uint256"
        }
      ],
      "stateMutability": "view",
      "type": "function"
    },
    {
      "inputs": [
        {
          "internalType": "uint256",
          "name": "proposalId",
          "type": "uint256"
        }
      ],
      "name": "proposalEta",
      "outputs": [
        {
          "internalType": "uint256",
          "name": "",
          "type": "uint256"
        }
      ],
      "stateMutability": "view",
      "type": "function"
    },
    {
      "inputs": [
        {
          "internalType": "uint256",
          "name": "proposalId",
          "type": "uint256"
        }
      ],
      "name": "proposalSnapshot",
      "outputs": [
        {
          "internalType": "uint256",
          "name": "",
          "type": "uint256"
        }
      ],
      "stateMutability": "view",
      "type": "function"
    },
    {
      "inputs": [
        {
          "internalType": "uint256",
          "name": "proposalId",
          "type": "uint256"
        }
      ],
      "name": "proposalVotes",
      "outputs": [
        {
          "internalType": "uint256",
          "name": "againstVotes",
          "type": "uint256"
        },
        {
          "internalType": "uint256",
          "name": "forVotes",
          "type": "uint256"
        },
        {
          "internalType": "uint256",
          "name": "abstainVotes",
          "type": "uint256"
        }
      ],
      "stateMutability": "view",
      "type": "function"
    },
    {
      "inputs": [
        {
          "internalType": "address[]",
          "name": "targets",
          "type": "address[]"
        },
        {
          "internalType": "uint256[]",
          "name": "values",
          "type": "uint256[]"
        },
        {
          "internalType": "bytes[]",
          "name": "calldatas",
          "type": "bytes[]"
        },
        {
          "internalType": "bytes32",
          "name": "descriptionHash",
          "type": "bytes32"
        }
      ],
      "name": "queue",
      "outputs": [
        {
          "internalType": "uint256",
          "name": "",
          "type": "uint256"
        }
      ],
      "stateMutability": "nonpayable",
      "type": "function"
    },
    {
      "inputs": [],
      "name": "quorumDenominator",
      "outputs": [
        {
          "internalType": "uint256",
          "name": "",
          "type": "uint256"
        }
      ],
      "stateMutability": "view",
      "type": "function"
    },
    {
      "inputs": [
        {
          "internalType": "uint256",
          "name": "blockNumber",
          "type": "uint256"
        }
      ],
      "name": "quorumNumerator",
      "outputs": [
        {
          "internalType": "uint256",
          "name": "",
          "type": "uint256"
        }
      ],
      "stateMutability": "view",
      "type": "function"
    },
    {
      "inputs": [],
      "name": "quorumNumerator",
      "outputs": [
        {
          "internalType": "uint256",
          "name": "",
          "type": "uint256"
        }
      ],
      "stateMutability": "view",
      "type": "function"
    },
    {
      "inputs": [
        {
          "internalType": "address",
          "name": "target",
          "type": "address"
        },
        {
          "internalType": "uint256",
          "name": "value",
          "type": "uint256"
        },
        {
          "internalType": "bytes",
          "name": "data",
          "type": "bytes"
        }
      ],
      "name": "relay",
      "outputs": [],
      "stateMutability": "nonpayable",
      "type": "function"
    },
    {
      "inputs": [
        {
          "internalType": "uint256",
          "name": "newProposalThreshold",
          "type": "uint256"
        }
      ],
      "name": "setProposalThreshold",
      "outputs": [],
      "stateMutability": "nonpayable",
      "type": "function"
    },
    {
      "inputs": [
        {
          "internalType": "uint256",
          "name": "newVotingDelay",
          "type": "uint256"
        }
      ],
      "name": "setVotingDelay",
      "outputs": [],
      "stateMutability": "nonpayable",
      "type": "function"
    },
    {
      "inputs": [
        {
          "internalType": "uint256",
          "name": "newVotingPeriod",
          "type": "uint256"
        }
      ],
      "name": "setVotingPeriod",
      "outputs": [],
      "stateMutability": "nonpayable",
      "type": "function"
    },
    {
      "inputs": [],
      "name": "timelock",
      "outputs": [
        {
          "internalType": "address",
          "name": "",
          "type": "address"
        }
      ],
      "stateMutability": "view",
      "type": "function"
    },
    {
      "inputs": [],
      "name": "token",
      "outputs": [
        {
          "internalType": "contract IVotes",
          "name": "",
          "type": "address"
        }
      ],
      "stateMutability": "view",
      "type": "function"
    },
    {
      "inputs": [
        {
          "internalType": "uint256",
          "name": "newQuorumNumerator",
          "type": "uint256"
        }
      ],
      "name": "updateQuorumNumerator",
      "outputs": [],
      "stateMutability": "nonpayable",
      "type": "function"
    },
    {
      "inputs": [
        {
          "internalType": "contract TimelockController",
          "name": "newTimelock",
          "type": "address"
        }
      ],
      "name": "updateTimelock",
      "outputs": [],
      "stateMutability": "nonpayable",
      "type": "function"
    },
    {
      "inputs": [],
      "name": "version",
      "outputs": [
        {
          "internalType": "string",
          "name": "",
          "type": "string"
        }
      ],
      "stateMutability": "view",
      "type": "function"
    },
    {
      "stateMutability": "payable",
      "type": "receive"
    },
    {
      "inputs": [],
      "name": "votingDelay",
      "outputs": [
        {
          "internalType": "uint256",
          "name": "",
          "type": "uint256"
        }
      ],
      "stateMutability": "view",
      "type": "function"
    },
    {
      "inputs": [],
      "name": "votingPeriod",
      "outputs": [
        {
          "internalType": "uint256",
          "name": "",
          "type": "uint256"
        }
      ],
      "stateMutability": "view",
      "type": "function"
    },
    {
      "inputs": [
        {
          "internalType": "uint256",
          "name": "blockNumber",
          "type": "uint256"
        }
      ],
      "name": "quorum",
      "outputs": [
        {
          "internalType": "uint256",
          "name": "",
          "type": "uint256"
        }
      ],
      "stateMutability": "view",
      "type": "function"
    },
    {
      "inputs": [
        {
          "internalType": "uint256",
          "name": "proposalId",
          "type": "uint256"
        }
      ],
      "name": "state",
      "outputs": [
        {
          "internalType": "enum IGovernor.ProposalState",
          "name": "",
          "type": "uint8"
        }
      ],
      "stateMutability": "view",
      "type": "function"
    },
    {
      "inputs": [
        {
          "internalType": "address[]",
          "name": "targets",
          "type": "address[]"
        },
        {
          "internalType": "uint256[]",
          "name": "values",
          "type": "uint256[]"
        },
        {
          "internalType": "bytes[]",
          "name": "calldatas",
          "type": "bytes[]"
        },
        {
          "internalType": "string",
          "name": "description",
          "type": "string"
        }
      ],
      "name": "propose",
      "outputs": [
        {
          "internalType": "uint256",
          "name": "",
          "type": "uint256"
        }
      ],
      "stateMutability": "nonpayable",
      "type": "function"
    },
    {
      "inputs": [],
      "name": "proposalThreshold",
      "outputs": [
        {
          "internalType": "uint256",
          "name": "",
          "type": "uint256"
        }
      ],
      "stateMutability": "view",
      "type": "function"
    },
    {
      "inputs": [
        {
          "internalType": "bytes4",
          "name": "interfaceId",
          "type": "bytes4"
        }
      ],
      "name": "supportsInterface",
      "outputs": [
        {
          "internalType": "bool",
          "name": "",
          "type": "bool"
        }
      ],
      "stateMutability": "view",
      "type": "function"
    }
  ],
  "bytecode": "0x6101606040523480156200001257600080fd5b5060405162004ab338038062004ab3833981016040819052620000359162000766565b806004836000602d60006040518060400160405280600a81526020016926bca3b7bb32b93737b960b11b81525080620000736200016460201b60201c565b815160209283012081519183019190912060e08290526101008190524660a0818152604080517f8b73c3c69bb8fe3d512ecc4cf759cc79239f7b179b0ffacaa9a75d522b39400f818801819052818301969096526060810194909452608080850193909352308483018190528151808603909301835260c0948501909152815191909501209052919091526101205260006200011082826200084a565b506200011e9050836200017f565b6200012982620001c0565b620001348162000267565b5050506001600160a01b0316610140526200014f81620002a8565b506200015b8162000420565b50505062000954565b6040805180820190915260018152603160f81b602082015290565b60045460408051918252602082018390527fc565b045403dc03c2eea82b81a0465edad9e2e7fc4d97e11421c209da93d7a93910160405180910390a1600455565b60008111620002265760405162461bcd60e51b815260206004820152602760248201527f476f7665726e6f7253657474696e67733a20766f74696e6720706572696f6420604482015266746f6f206c6f7760c81b60648201526084015b60405180910390fd5b60055460408051918252602082018390527f7e3f7f0708a84de9203036abaa450dccc85ad5ff52f78c170f3edb55cf5e8828910160405180910390a1600555565b60065460408051918252602082018390527fccb45da8d5717e6c4544694297c4ba5cf151d455c9bb0ed4fc7a38411bc05461910160405180910390a1600655565b60648111156200032d5760405162461bcd60e51b815260206004820152604360248201527f476f7665726e6f72566f74657351756f72756d4672616374696f6e3a2071756f60448201527f72756d4e756d657261746f72206f7665722071756f72756d44656e6f6d696e616064820152623a37b960e91b608482015260a4016200021d565b60006200033962000489565b905080158015906200034b5750600954155b15620003c65760096000016040518060400160405280600063ffffffff1681526020016200038484620004b860201b6200173c1760201c565b6001600160e01b0390811690915282546001810184556000938452602093849020835194909301519091166401000000000263ffffffff909316929092179101555b620003e18260096200052760201b620017bf1790919060201c565b505060408051828152602081018490527f0553476bf02ef2726e8ce5ced78d63e26e602e4a2257b1f559418e24b4633997910160405180910390a15050565b600a54604080516001600160a01b03928316815291831660208301527f08f74ea46ef7894f65eabfb5e6e695de773a000b47c529ab559178069b226401910160405180910390a1600a80546001600160a01b0319166001600160a01b0392909216919091179055565b60095460009015620004b157620004ac60096200068360201b620018ea1760201c565b905090565b5060085490565b60006001600160e01b03821115620005235760405162461bcd60e51b815260206004820152602760248201527f53616665436173743a2076616c756520646f65736e27742066697420696e20326044820152663234206269747360c81b60648201526084016200021d565b5090565b81546000908190816200053a8662000683565b90506000821180156200057e575043866200055760018562000916565b815481106200056a576200056a6200093e565b60009182526020909120015463ffffffff16145b15620005f2576200059a85620004b860201b6200173c1760201c565b86620005a860018562000916565b81548110620005bb57620005bb6200093e565b9060005260206000200160000160046101000a8154816001600160e01b0302191690836001600160e01b031602179055506200067a565b8560000160405180604001604052806200061743620006e660201b620019461760201c565b63ffffffff1681526020016200063888620004b860201b6200173c1760201c565b6001600160e01b0390811690915282546001810184556000938452602093849020835194909301519091166401000000000263ffffffff909316929092179101555b95939450505050565b80546000908015620006d357826200069d60018362000916565b81548110620006b057620006b06200093e565b60009182526020909120015464010000000090046001600160e01b0316620006d6565b60005b6001600160e01b03169392505050565b600063ffffffff821115620005235760405162461bcd60e51b815260206004820152602660248201527f53616665436173743a2076616c756520646f65736e27742066697420696e203360448201526532206269747360d01b60648201526084016200021d565b6001600160a01b03811681146200076357600080fd5b50565b600080604083850312156200077a57600080fd5b825162000787816200074d565b60208401519092506200079a816200074d565b809150509250929050565b634e487b7160e01b600052604160045260246000fd5b600181811c90821680620007d057607f821691505b602082108103620007f157634e487b7160e01b600052602260045260246000fd5b50919050565b601f8211156200084557600081815260208120601f850160051c81016020861015620008205750805b601f850160051c820191505b8181101562000841578281556001016200082c565b5050505b505050565b81516001600160401b03811115620008665762000866620007a5565b6200087e81620008778454620007bb565b84620007f7565b602080601f831160018114620008b657600084156200089d5750858301515b600019600386901b1c1916600185901b17855562000841565b600085815260208120601f198616915b82811015620008e757888601518255948401946001909101908401620008c6565b5085821015620009065787850151600019600388901b60f8161c191681555b5050505050600190811b01905550565b818103818111156200093857634e487b7160e01b600052601160045260246000fd5b92915050565b634e487b7160e01b600052603260045260246000fd5b60805160a05160c05160e0516101005161012051610140516140f6620009bd6000396000818161095d0152818161259901526127e1015260006129c101526000612a10015260006129eb015260006129440152600061296e0152600061299801526140f66000f3fe6080604052600436106102ca5760003560e01c80637b3c71d311610179578063c28bc2fa116100d6578063ea0217cf1161008a578063f23a6e6111610064578063f23a6e61146108e6578063f8ce560a1461092b578063fc0c546a1461094b57600080fd5b8063ea0217cf14610886578063eb9019d4146108a6578063ece40cc1146108c657600080fd5b8063d33219b4116100bb578063d33219b4146107da578063dd4e2ba51461080c578063deaaa7cc1461085257600080fd5b8063c28bc2fa1461079a578063c59057e4146107ba57600080fd5b8063a890c9101161012d578063b58131b011610112578063b58131b014610720578063bc197c8114610735578063c01f9e371461077a57600080fd5b8063a890c910146106e0578063ab58fb8e1461070057600080fd5b806397c3d3341161015e57806397c3d334146106975780639a802a6d146106ab578063a7713a70146106cb57600080fd5b80637b3c71d3146106575780637d5e81e21461067757600080fd5b80633932abb11161022757806354fd4d50116101db5780635f398a14116101c05780635f398a14146105f757806360c4247f1461061757806370b0f6601461063757600080fd5b806354fd4d501461059157806356781388146105d757600080fd5b80633e4f49e61161020c5780633e4f49e6146104c557806343859632146104f2578063544ffc9c1461053c57600080fd5b80633932abb1146104905780633bccf4fd146104a557600080fd5b8063150b7a021161027e5780632656227d116102635780632656227d146104295780632d63f6931461043c5780632fe3e2611461045c57600080fd5b8063150b7a02146103ac578063160cbed71461040957600080fd5b806303420181116102af578063034201811461034a57806306f3f9e61461036a57806306fdde031461038a57600080fd5b806301ffc9a7146102f257806302a251a31461032757600080fd5b366102ed57306102d861097f565b6001600160a01b0316146102eb57600080fd5b005b600080fd5b3480156102fe57600080fd5b5061031261030d3660046132c2565b610998565b60405190151581526020015b60405180910390f35b34801561033357600080fd5b5061033c6109a9565b60405190815260200161031e565b34801561035657600080fd5b5061033c610365366004613403565b6109b4565b34801561037657600080fd5b506102eb6103853660046134aa565b610aac565b34801561039657600080fd5b5061039f610b6b565b60405161031e9190613513565b3480156103b857600080fd5b506103f06103c736600461353b565b7f150b7a0200000000000000000000000000000000000000000000000000000000949350505050565b6040516001600160e01b0319909116815260200161031e565b34801561041557600080fd5b5061033c61042436600461371a565b610bfd565b61033c61043736600461371a565b610e82565b34801561044857600080fd5b5061033c6104573660046134aa565b610fa9565b34801561046857600080fd5b5061033c7fb3b3f3b703cd84ce352197dcff232b1b5d3cfb2025ce47cf04742d0651f1af8881565b34801561049c57600080fd5b5061033c610fe2565b3480156104b157600080fd5b5061033c6104c03660046137aa565b610fed565b3480156104d157600080fd5b506104e56104e03660046134aa565b611063565b60405161031e919061380e565b3480156104fe57600080fd5b5061031261050d366004613836565b60008281526007602090815260408083206001600160a01b038516845260030190915290205460ff1692915050565b34801561054857600080fd5b506105766105573660046134aa565b6000908152600760205260409020805460018201546002909201549092565b6040805193845260208401929092529082015260600161031e565b34801561059d57600080fd5b5060408051808201909152600181527f3100000000000000000000000000000000000000000000000000000000000000602082015261039f565b3480156105e357600080fd5b5061033c6105f2366004613866565b61106e565b34801561060357600080fd5b5061033c610612366004613892565b611097565b34801561062357600080fd5b5061033c6106323660046134aa565b6110e1565b34801561064357600080fd5b506102eb6106523660046134aa565b611179565b34801561066357600080fd5b5061033c610672366004613916565b611230565b34801561068357600080fd5b5061033c610692366004613970565b611282565b3480156106a357600080fd5b50606461033c565b3480156106b757600080fd5b5061033c6106c6366004613a25565b611299565b3480156106d757600080fd5b5061033c6112b0565b3480156106ec57600080fd5b506102eb6106fb366004613a7e565b6112cc565b34801561070c57600080fd5b5061033c61071b3660046134aa565b611383565b34801561072c57600080fd5b5061033c611436565b34801561074157600080fd5b506103f0610750366004613a9b565b7fbc197c810000000000000000000000000000000000000000000000000000000095945050505050565b34801561078657600080fd5b5061033c6107953660046134aa565b611441565b3480156107a657600080fd5b506102eb6107b5366004613b2f565b611471565b3480156107c657600080fd5b5061033c6107d536600461371a565b611568565b3480156107e657600080fd5b50600a546001600160a01b03165b6040516001600160a01b03909116815260200161031e565b34801561081857600080fd5b506040805180820190915260208082527f737570706f72743d627261766f2671756f72756d3d666f722c6162737461696e9082015261039f565b34801561085e57600080fd5b5061033c7f150214d74d59b7d1e90c73fc22ef3d991dd0a76b046543d4d80ab92d2a50328f81565b34801561089257600080fd5b506102eb6108a13660046134aa565b6115a2565b3480156108b257600080fd5b5061033c6108c1366004613b73565b611659565b3480156108d257600080fd5b506102eb6108e13660046134aa565b61167a565b3480156108f257600080fd5b506103f0610901366004613b9f565b7ff23a6e610000000000000000000000000000000000000000000000000000000095945050505050565b34801561093757600080fd5b5061033c6109463660046134aa565b611731565b34801561095757600080fd5b506107f47f000000000000000000000000000000000000000000000000000000000000000081565b6000610993600a546001600160a01b031690565b905090565b60006109a3826119c2565b92915050565b600061099360055490565b600080610a58610a507fb3b3f3b703cd84ce352197dcff232b1b5d3cfb2025ce47cf04742d0651f1af888c8c8c8c6040516109f0929190613c08565b60405180910390208b80519060200120604051602001610a35959493929190948552602085019390935260ff9190911660408401526060830152608082015260a00190565b60405160208183030381529060405280519060200120611a00565b868686611a69565b9050610a9e8a828b8b8b8080601f0160208091040260200160405190810160405280939291908181526020018383808284376000920191909152508d9250611a87915050565b9a9950505050505050505050565b610ab461097f565b6001600160a01b0316336001600160a01b031614610b195760405162461bcd60e51b815260206004820152601860248201527f476f7665726e6f723a206f6e6c79476f7665726e616e6365000000000000000060448201526064015b60405180910390fd5b30610b2261097f565b6001600160a01b031614610b5f5760008036604051610b42929190613c08565b604051809103902090505b80610b586002611c07565b03610b4d57505b610b6881611cb7565b50565b606060008054610b7a90613c18565b80601f0160208091040260200160405190810160405280929190818152602001828054610ba690613c18565b8015610bf35780601f10610bc857610100808354040283529160200191610bf3565b820191906000526020600020905b815481529060010190602001808311610bd657829003601f168201915b5050505050905090565b600080610c0c86868686611568565b90506004610c1982611063565b6007811115610c2a57610c2a6137f8565b14610c815760405162461bcd60e51b815260206004820152602160248201527f476f7665726e6f723a2070726f706f73616c206e6f74207375636365737366756044820152601b60fa1b6064820152608401610b10565b600a54604080517ff27a0c9200000000000000000000000000000000000000000000000000000000815290516000926001600160a01b03169163f27a0c929160048083019260209291908290030181865afa158015610ce4573d6000803e3d6000fd5b505050506040513d601f19601f82011682018060405250810190610d089190613c52565b600a546040517fb1c5f4270000000000000000000000000000000000000000000000000000000081529192506001600160a01b03169063b1c5f42790610d5b908a908a908a906000908b90600401613d34565b602060405180830381865afa158015610d78573d6000803e3d6000fd5b505050506040513d601f19601f82011682018060405250810190610d9c9190613c52565b6000838152600b602052604080822092909255600a5491517f8f2a0bb00000000000000000000000000000000000000000000000000000000081526001600160a01b0390921691638f2a0bb091610e00918b918b918b91908b908990600401613d82565b600060405180830381600087803b158015610e1a57600080fd5b505af1158015610e2e573d6000803e3d6000fd5b505050507f9a2e42fd6722813d69113e7d0079d3d940171428df7373df9c7f7617cfda2892828242610e609190613df0565b6040805192835260208301919091520160405180910390a15095945050505050565b600080610e9186868686611568565b90506000610e9e82611063565b90506004816007811115610eb457610eb46137f8565b1480610ed157506005816007811115610ecf57610ecf6137f8565b145b610f275760405162461bcd60e51b815260206004820152602160248201527f476f7665726e6f723a2070726f706f73616c206e6f74207375636365737366756044820152601b60fa1b6064820152608401610b10565b600082815260016020818152604092839020600201805460ff191690921790915590518381527f712ae1383f79ac853f8d882153778e0260ef8f03b504e2866e0593e04d2b291f910160405180910390a1610f858288888888611e1e565b610f928288888888611ebf565b610f9f8288888888611ecc565b5095945050505050565b600081815260016020908152604080832081519283019091525467ffffffffffffffff16908190525b67ffffffffffffffff1692915050565b600061099360045490565b604080517f150214d74d59b7d1e90c73fc22ef3d991dd0a76b046543d4d80ab92d2a50328f602082015290810186905260ff85166060820152600090819061103b90610a5090608001610a35565b905061105887828860405180602001604052806000815250611f05565b979650505050505050565b60006109a382611f28565b60008033905061108f84828560405180602001604052806000815250611f05565b949350505050565b60008033905061105887828888888080601f0160208091040260200160405190810160405280939291908181526020018383808284376000920191909152508a9250611a87915050565b6009546000908082036110f8575050600854919050565b60006009611107600184613e03565b8154811061111757611117613e16565b60009182526020918290206040805180820190915291015463ffffffff81168083526401000000009091046001600160e01b0316928201929092529150841061116e57602001516001600160e01b03169392505050565b61108f6009856120a4565b61118161097f565b6001600160a01b0316336001600160a01b0316146111e15760405162461bcd60e51b815260206004820152601860248201527f476f7665726e6f723a206f6e6c79476f7665726e616e636500000000000000006044820152606401610b10565b306111ea61097f565b6001600160a01b031614611227576000803660405161120a929190613c08565b604051809103902090505b806112206002611c07565b0361121557505b610b68816121b3565b60008033905061127886828787878080601f016020809104026020016040519081016040528093929190818152602001838380828437600092019190915250611f0592505050565b9695505050505050565b6000611290858585856121f4565b95945050505050565b60006112a6848484612557565b90505b9392505050565b600954600090156112c55761099360096118ea565b5060085490565b6112d461097f565b6001600160a01b0316336001600160a01b0316146113345760405162461bcd60e51b815260206004820152601860248201527f476f7665726e6f723a206f6e6c79476f7665726e616e636500000000000000006044820152606401610b10565b3061133d61097f565b6001600160a01b03161461137a576000803660405161135d929190613c08565b604051809103902090505b806113736002611c07565b0361136857505b610b6881612606565b600a546000828152600b60205260408082205490517fd45c44350000000000000000000000000000000000000000000000000000000081526004810191909152909182916001600160a01b039091169063d45c443590602401602060405180830381865afa1580156113f9573d6000803e3d6000fd5b505050506040513d601f19601f8201168201806040525081019061141d9190613c52565b90508060011461142d57806112a9565b60009392505050565b600061099360065490565b600081815260016020818152604080842081519283019091529091015467ffffffffffffffff1690819052610fd2565b61147961097f565b6001600160a01b0316336001600160a01b0316146114d95760405162461bcd60e51b815260206004820152601860248201527f476f7665726e6f723a206f6e6c79476f7665726e616e636500000000000000006044820152606401610b10565b306114e261097f565b6001600160a01b03161461151f5760008036604051611502929190613c08565b604051809103902090505b806115186002611c07565b0361150d57505b6115618483838080601f016020809104026020016040519081016040528093929190818152602001838380828437600092019190915250889250612687915050565b5050505050565b6000848484846040516020016115819493929190613e2c565b60408051601f19818403018152919052805160209091012095945050505050565b6115aa61097f565b6001600160a01b0316336001600160a01b03161461160a5760405162461bcd60e51b815260206004820152601860248201527f476f7665726e6f723a206f6e6c79476f7665726e616e636500000000000000006044820152606401610b10565b3061161361097f565b6001600160a01b0316146116505760008036604051611633929190613c08565b604051809103902090505b806116496002611c07565b0361163e57505b610b68816126ad565b60006112a9838361167560408051602081019091526000815290565b612557565b61168261097f565b6001600160a01b0316336001600160a01b0316146116e25760405162461bcd60e51b815260206004820152601860248201527f476f7665726e6f723a206f6e6c79476f7665726e616e636500000000000000006044820152606401610b10565b306116eb61097f565b6001600160a01b031614611728576000803660405161170b929190613c08565b604051809103902090505b806117216002611c07565b0361171657505b610b6881612764565b60006109a3826127a5565b60006001600160e01b038211156117bb5760405162461bcd60e51b815260206004820152602760248201527f53616665436173743a2076616c756520646f65736e27742066697420696e203260448201527f32342062697473000000000000000000000000000000000000000000000000006064820152608401610b10565b5090565b81546000908190816117d0866118ea565b905060008211801561180e575043866117ea600185613e03565b815481106117fa576117fa613e16565b60009182526020909120015463ffffffff16145b1561186e5761181c8561173c565b86611828600185613e03565b8154811061183857611838613e16565b9060005260206000200160000160046101000a8154816001600160e01b0302191690836001600160e01b031602179055506118dc565b85600001604051806040016040528061188643611946565b63ffffffff16815260200161189a8861173c565b6001600160e01b0390811690915282546001810184556000938452602093849020835194909301519091166401000000000263ffffffff909316929092179101555b9250839150505b9250929050565b805460009080156119335782611901600183613e03565b8154811061191157611911613e16565b60009182526020909120015464010000000090046001600160e01b0316611936565b60005b6001600160e01b03169392505050565b600063ffffffff8211156117bb5760405162461bcd60e51b815260206004820152602660248201527f53616665436173743a2076616c756520646f65736e27742066697420696e203360448201527f32206269747300000000000000000000000000000000000000000000000000006064820152608401610b10565b60006001600160e01b031982167f6e665ced0000000000000000000000000000000000000000000000000000000014806109a357506109a382612868565b60006109a3611a0d612937565b836040517f19010000000000000000000000000000000000000000000000000000000000006020820152602281018390526042810182905260009060620160405160208183030381529060405280519060200120905092915050565b6000806000611a7a87878787612a5e565b91509150610f9f81612b4b565b6000858152600160208190526040822090611aa188611063565b6007811115611ab257611ab26137f8565b14611b255760405162461bcd60e51b815260206004820152602360248201527f476f7665726e6f723a20766f7465206e6f742063757272656e746c792061637460448201527f69766500000000000000000000000000000000000000000000000000000000006064820152608401610b10565b6040805160208101909152815467ffffffffffffffff1690819052600090611b4f90889086612557565b9050611b5e8888888488612d01565b8351600003611bb357866001600160a01b03167fb8e138887d0aa13bab447e82de9d5c1777041ecd21ca36ba824ff1e6c07ddda489888489604051611ba69493929190613e77565b60405180910390a2611058565b866001600160a01b03167fe2babfbac5889a709b63bb7f598b324e08bc5a4fb9ec647fb3cbc9ec07eb87128988848989604051611bf4959493929190613e9f565b60405180910390a2979650505050505050565b6000611c228254600f81810b600160801b909204900b131590565b15611c59576040517f3db2a12a00000000000000000000000000000000000000000000000000000000815260040160405180910390fd5b508054600f0b6000818152600180840160205260408220805492905583547fffffffffffffffffffffffffffffffff000000000000000000000000000000001692016fffffffffffffffffffffffffffffffff169190911790915590565b6064811115611d545760405162461bcd60e51b815260206004820152604360248201527f476f7665726e6f72566f74657351756f72756d4672616374696f6e3a2071756f60448201527f72756d4e756d657261746f72206f7665722071756f72756d44656e6f6d696e6160648201527f746f720000000000000000000000000000000000000000000000000000000000608482015260a401610b10565b6000611d5e6112b0565b90508015801590611d6f5750600954155b15611dd457604080518082019091526000815260099060208101611d928461173c565b6001600160e01b0390811690915282546001810184556000938452602093849020835194909301519091166401000000000263ffffffff909316929092179101555b611ddf6009836117bf565b505060408051828152602081018490527f0553476bf02ef2726e8ce5ced78d63e26e602e4a2257b1f559418e24b4633997910160405180910390a15050565b30611e2761097f565b6001600160a01b0316146115615760005b8451811015611eb757306001600160a01b0316858281518110611e5d57611e5d613e16565b60200260200101516001600160a01b031603611ea757611ea7838281518110611e8857611e88613e16565b6020026020010151805190602001206002612e9990919063ffffffff16565b611eb081613ee5565b9050611e38565b505050505050565b6115618585858585612ede565b30611ed561097f565b6001600160a01b03161461156157600254600f81810b600160801b909204900b1315611561576000600255611561565b600061129085858585611f2360408051602081019091526000815290565b611a87565b600080611f3483612f6b565b90506004816007811115611f4a57611f4a6137f8565b14611f555792915050565b6000838152600b602052604090205480611f70575092915050565b600a546040517f2ab0f529000000000000000000000000000000000000000000000000000000008152600481018390526001600160a01b0390911690632ab0f52990602401602060405180830381865afa158015611fd2573d6000803e3d6000fd5b505050506040513d601f19601f82011682018060405250810190611ff69190613efe565b15612005575060079392505050565b600a546040517f584b153e000000000000000000000000000000000000000000000000000000008152600481018390526001600160a01b039091169063584b153e90602401602060405180830381865afa158015612067573d6000803e3d6000fd5b505050506040513d601f19601f8201168201806040525081019061208b9190613efe565b1561209a575060059392505050565b5060029392505050565b60004382106120f55760405162461bcd60e51b815260206004820181905260248201527f436865636b706f696e74733a20626c6f636b206e6f7420796574206d696e65646044820152606401610b10565b825460005b8181101561215a57600061210e828461307a565b90508486600001828154811061212657612126613e16565b60009182526020909120015463ffffffff16111561214657809250612154565b612151816001613df0565b91505b506120fa565b811561219e578461216c600184613e03565b8154811061217c5761217c613e16565b60009182526020909120015464010000000090046001600160e01b03166121a1565b60005b6001600160e01b031695945050505050565b60045460408051918252602082018390527fc565b045403dc03c2eea82b81a0465edad9e2e7fc4d97e11421c209da93d7a93910160405180910390a1600455565b60006121fe611436565b61220d336108c1600143613e03565b10156122815760405162461bcd60e51b815260206004820152603160248201527f476f7665726e6f723a2070726f706f73657220766f7465732062656c6f77207060448201527f726f706f73616c207468726573686f6c640000000000000000000000000000006064820152608401610b10565b60006122968686868680519060200120611568565b905084518651146122f35760405162461bcd60e51b815260206004820152602160248201527f476f7665726e6f723a20696e76616c69642070726f706f73616c206c656e67746044820152600d60fb1b6064820152608401610b10565b835186511461234e5760405162461bcd60e51b815260206004820152602160248201527f476f7665726e6f723a20696e76616c69642070726f706f73616c206c656e67746044820152600d60fb1b6064820152608401610b10565b600086511161239f5760405162461bcd60e51b815260206004820152601860248201527f476f7665726e6f723a20656d7074792070726f706f73616c00000000000000006044820152606401610b10565b6000818152600160209081526040918290208251918201909252815467ffffffffffffffff16908190521561243c5760405162461bcd60e51b815260206004820152602160248201527f476f7665726e6f723a2070726f706f73616c20616c726561647920657869737460448201527f73000000000000000000000000000000000000000000000000000000000000006064820152608401610b10565b600061244e612449610fe2565b613095565b61245743613095565b6124619190613f20565b905060006124706124496109a9565b61247a9083613f20565b835467ffffffffffffffff191667ffffffffffffffff8416178455905060018301805467ffffffffffffffff191667ffffffffffffffff83161790557f7d84a6263ae0d98d3329bd7b46bb4e8d6f98cd35a7adb45c274c8b7fd5ebd5e084338b8b8d5167ffffffffffffffff8111156124f5576124f5613344565b60405190808252806020026020018201604052801561252857816020015b60608152602001906001900390816125135790505b508c88888e60405161254299989796959493929190613f48565b60405180910390a15091979650505050505050565b6040517f3a46b1a80000000000000000000000000000000000000000000000000000000081526001600160a01b038481166004830152602482018490526000917f000000000000000000000000000000000000000000000000000000000000000090911690633a46b1a890604401602060405180830381865afa1580156125e2573d6000803e3d6000fd5b505050506040513d601f19601f820116820180604052508101906112a69190613c52565b600a54604080516001600160a01b03928316815291831660208301527f08f74ea46ef7894f65eabfb5e6e695de773a000b47c529ab559178069b226401910160405180910390a1600a80547fffffffffffffffffffffffff0000000000000000000000000000000000000000166001600160a01b0392909216919091179055565b60606112a684848460405180606001604052806029815260200161409860299139613115565b600081116127235760405162461bcd60e51b815260206004820152602760248201527f476f7665726e6f7253657474696e67733a20766f74696e6720706572696f642060448201527f746f6f206c6f77000000000000000000000000000000000000000000000000006064820152608401610b10565b60055460408051918252602082018390527f7e3f7f0708a84de9203036abaa450dccc85ad5ff52f78c170f3edb55cf5e8828910160405180910390a1600555565b60065460408051918252602082018390527fccb45da8d5717e6c4544694297c4ba5cf151d455c9bb0ed4fc7a38411bc05461910160405180910390a1600655565b600060646127b2836110e1565b6040517f8e539e8c000000000000000000000000000000000000000000000000000000008152600481018590527f00000000000000000000000000000000000000000000000000000000000000006001600160a01b031690638e539e8c90602401602060405180830381865afa158015612830573d6000803e3d6000fd5b505050506040513d601f19601f820116820180604052508101906128549190613c52565b61285e919061403a565b6109a39190614059565b60006001600160e01b031982167fbf26d8970000000000000000000000000000000000000000000000000000000014806128cb57506001600160e01b031982167f79dd796f00000000000000000000000000000000000000000000000000000000145b806128ff57506001600160e01b031982167f4e2312e000000000000000000000000000000000000000000000000000000000145b806109a357507f01ffc9a7000000000000000000000000000000000000000000000000000000006001600160e01b03198316146109a3565b6000306001600160a01b037f00000000000000000000000000000000000000000000000000000000000000001614801561299057507f000000000000000000000000000000000000000000000000000000000000000046145b156129ba57507f000000000000000000000000000000000000000000000000000000000000000090565b50604080517f00000000000000000000000000000000000000000000000000000000000000006020808301919091527f0000000000000000000000000000000000000000000000000000000000000000828401527f000000000000000000000000000000000000000000000000000000000000000060608301524660808301523060a0808401919091528351808403909101815260c0909201909252805191012090565b6000807f7fffffffffffffffffffffffffffffff5d576e7357a4501ddfe92f46681b20a0831115612a955750600090506003612b42565b8460ff16601b14158015612aad57508460ff16601c14155b15612abe5750600090506004612b42565b6040805160008082526020820180845289905260ff881692820192909252606081018690526080810185905260019060a0016020604051602081039080840390855afa158015612b12573d6000803e3d6000fd5b5050604051601f1901519150506001600160a01b038116612b3b57600060019250925050612b42565b9150600090505b94509492505050565b6000816004811115612b5f57612b5f6137f8565b03612b675750565b6001816004811115612b7b57612b7b6137f8565b03612bc85760405162461bcd60e51b815260206004820152601860248201527f45434453413a20696e76616c6964207369676e617475726500000000000000006044820152606401610b10565b6002816004811115612bdc57612bdc6137f8565b03612c295760405162461bcd60e51b815260206004820152601f60248201527f45434453413a20696e76616c6964207369676e6174757265206c656e677468006044820152606401610b10565b6003816004811115612c3d57612c3d6137f8565b03612c955760405162461bcd60e51b815260206004820152602260248201527f45434453413a20696e76616c6964207369676e6174757265202773272076616c604482015261756560f01b6064820152608401610b10565b6004816004811115612ca957612ca96137f8565b03610b685760405162461bcd60e51b815260206004820152602260248201527f45434453413a20696e76616c6964207369676e6174757265202776272076616c604482015261756560f01b6064820152608401610b10565b60008581526007602090815260408083206001600160a01b0388168452600381019092529091205460ff1615612d9f5760405162461bcd60e51b815260206004820152602760248201527f476f7665726e6f72566f74696e6753696d706c653a20766f746520616c72656160448201527f64792063617374000000000000000000000000000000000000000000000000006064820152608401610b10565b6001600160a01b03851660009081526003820160205260409020805460ff1916600117905560ff8416612deb5782816000016000828254612de09190613df0565b90915550611eb79050565b60001960ff851601612e0b5782816001016000828254612de09190613df0565b60011960ff851601612e2b5782816002016000828254612de09190613df0565b60405162461bcd60e51b815260206004820152603560248201527f476f7665726e6f72566f74696e6753696d706c653a20696e76616c696420766160448201527f6c756520666f7220656e756d20566f74655479706500000000000000000000006064820152608401610b10565b8154600160801b90819004600f0b6000818152600180860160205260409091209390935583546fffffffffffffffffffffffffffffffff908116939091011602179055565b600a546040517fe38335e50000000000000000000000000000000000000000000000000000000081526001600160a01b039091169063e38335e5903490612f32908890889088906000908990600401613d34565b6000604051808303818588803b158015612f4b57600080fd5b505af1158015612f5f573d6000803e3d6000fd5b50505050505050505050565b6000818152600160205260408120600281015460ff1615612f8f5750600792915050565b6002810154610100900460ff1615612faa5750600292915050565b6000612fb584610fa9565b9050806000036130075760405162461bcd60e51b815260206004820152601d60248201527f476f7665726e6f723a20756e6b6e6f776e2070726f706f73616c2069640000006044820152606401610b10565b438110613018575060009392505050565b600061302385611441565b905043811061303757506001949350505050565b61304085613252565b801561305f575060008581526007602052604090208054600190910154115b1561306f57506004949350505050565b506003949350505050565b60006130896002848418614059565b6112a990848416613df0565b600067ffffffffffffffff8211156117bb5760405162461bcd60e51b815260206004820152602660248201527f53616665436173743a2076616c756520646f65736e27742066697420696e203660448201527f34206269747300000000000000000000000000000000000000000000000000006064820152608401610b10565b60608247101561318d5760405162461bcd60e51b815260206004820152602660248201527f416464726573733a20696e73756666696369656e742062616c616e636520666f60448201527f722063616c6c00000000000000000000000000000000000000000000000000006064820152608401610b10565b6001600160a01b0385163b6131e45760405162461bcd60e51b815260206004820152601d60248201527f416464726573733a2063616c6c20746f206e6f6e2d636f6e74726163740000006044820152606401610b10565b600080866001600160a01b03168587604051613200919061407b565b60006040518083038185875af1925050503d806000811461323d576040519150601f19603f3d011682016040523d82523d6000602084013e613242565b606091505b5091509150611058828286613289565b6000818152600760205260408120600281015460018201546132749190613df0565b61328061094685610fa9565b11159392505050565b606083156132985750816112a9565b8251156132a85782518084602001fd5b8160405162461bcd60e51b8152600401610b109190613513565b6000602082840312156132d457600080fd5b81356001600160e01b0319811681146112a957600080fd5b803560ff811681146132fd57600080fd5b919050565b60008083601f84011261331457600080fd5b50813567ffffffffffffffff81111561332c57600080fd5b6020830191508360208285010111156118e357600080fd5b634e487b7160e01b600052604160045260246000fd5b604051601f8201601f1916810167ffffffffffffffff8111828210171561338357613383613344565b604052919050565b600067ffffffffffffffff8311156133a5576133a5613344565b6133b8601f8401601f191660200161335a565b90508281528383830111156133cc57600080fd5b828260208301376000602084830101529392505050565b600082601f8301126133f457600080fd5b6112a98383356020850161338b565b60008060008060008060008060e0898b03121561341f57600080fd5b8835975061342f60208a016132ec565b9650604089013567ffffffffffffffff8082111561344c57600080fd5b6134588c838d01613302565b909850965060608b013591508082111561347157600080fd5b5061347e8b828c016133e3565b94505061348d60808a016132ec565b925060a0890135915060c089013590509295985092959890939650565b6000602082840312156134bc57600080fd5b5035919050565b60005b838110156134de5781810151838201526020016134c6565b50506000910152565b600081518084526134ff8160208601602086016134c3565b601f01601f19169290920160200192915050565b6020815260006112a960208301846134e7565b6001600160a01b0381168114610b6857600080fd5b6000806000806080858703121561355157600080fd5b843561355c81613526565b9350602085013561356c81613526565b925060408501359150606085013567ffffffffffffffff81111561358f57600080fd5b61359b878288016133e3565b91505092959194509250565b600067ffffffffffffffff8211156135c1576135c1613344565b5060051b60200190565b600082601f8301126135dc57600080fd5b813560206135f16135ec836135a7565b61335a565b82815260059290921b8401810191818101908684111561361057600080fd5b8286015b8481101561363457803561362781613526565b8352918301918301613614565b509695505050505050565b600082601f83011261365057600080fd5b813560206136606135ec836135a7565b82815260059290921b8401810191818101908684111561367f57600080fd5b8286015b848110156136345780358352918301918301613683565b600082601f8301126136ab57600080fd5b813560206136bb6135ec836135a7565b82815260059290921b840181019181810190868411156136da57600080fd5b8286015b8481101561363457803567ffffffffffffffff8111156136fe5760008081fd5b61370c8986838b01016133e3565b8452509183019183016136de565b6000806000806080858703121561373057600080fd5b843567ffffffffffffffff8082111561374857600080fd5b613754888389016135cb565b9550602087013591508082111561376a57600080fd5b6137768883890161363f565b9450604087013591508082111561378c57600080fd5b506137998782880161369a565b949793965093946060013593505050565b600080600080600060a086880312156137c257600080fd5b853594506137d2602087016132ec565b93506137e0604087016132ec565b94979396509394606081013594506080013592915050565b634e487b7160e01b600052602160045260246000fd5b602081016008831061383057634e487b7160e01b600052602160045260246000fd5b91905290565b6000806040838503121561384957600080fd5b82359150602083013561385b81613526565b809150509250929050565b6000806040838503121561387957600080fd5b82359150613889602084016132ec565b90509250929050565b6000806000806000608086880312156138aa57600080fd5b853594506138ba602087016132ec565b9350604086013567ffffffffffffffff808211156138d757600080fd5b6138e389838a01613302565b909550935060608801359150808211156138fc57600080fd5b50613909888289016133e3565b9150509295509295909350565b6000806000806060858703121561392c57600080fd5b8435935061393c602086016132ec565b9250604085013567ffffffffffffffff81111561395857600080fd5b61396487828801613302565b95989497509550505050565b6000806000806080858703121561398657600080fd5b843567ffffffffffffffff8082111561399e57600080fd5b6139aa888389016135cb565b955060208701359150808211156139c057600080fd5b6139cc8883890161363f565b945060408701359150808211156139e257600080fd5b6139ee8883890161369a565b93506060870135915080821115613a0457600080fd5b508501601f81018713613a1657600080fd5b61359b8782356020840161338b565b600080600060608486031215613a3a57600080fd5b8335613a4581613526565b925060208401359150604084013567ffffffffffffffff811115613a6857600080fd5b613a74868287016133e3565b9150509250925092565b600060208284031215613a9057600080fd5b81356112a981613526565b600080600080600060a08688031215613ab357600080fd5b8535613abe81613526565b94506020860135613ace81613526565b9350604086013567ffffffffffffffff80821115613aeb57600080fd5b613af789838a0161363f565b94506060880135915080821115613b0d57600080fd5b613b1989838a0161363f565b935060808801359150808211156138fc57600080fd5b60008060008060608587031215613b4557600080fd5b8435613b5081613526565b935060208501359250604085013567ffffffffffffffff81111561395857600080fd5b60008060408385031215613b8657600080fd5b8235613b9181613526565b946020939093013593505050565b600080600080600060a08688031215613bb757600080fd5b8535613bc281613526565b94506020860135613bd281613526565b93506040860135925060608601359150608086013567ffffffffffffffff811115613bfc57600080fd5b613909888289016133e3565b8183823760009101908152919050565b600181811c90821680613c2c57607f821691505b602082108103613c4c57634e487b7160e01b600052602260045260246000fd5b50919050565b600060208284031215613c6457600080fd5b5051919050565b600081518084526020808501945080840160005b83811015613ca45781516001600160a01b031687529582019590820190600101613c7f565b509495945050505050565b600081518084526020808501945080840160005b83811015613ca457815187529582019590820190600101613cc3565b600081518084526020808501808196508360051b8101915082860160005b85811015613d27578284038952613d158483516134e7565b98850198935090840190600101613cfd565b5091979650505050505050565b60a081526000613d4760a0830188613c6b565b8281036020840152613d598188613caf565b90508281036040840152613d6d8187613cdf565b60608401959095525050608001529392505050565b60c081526000613d9560c0830189613c6b565b8281036020840152613da78189613caf565b90508281036040840152613dbb8188613cdf565b60608401969096525050608081019290925260a0909101529392505050565b634e487b7160e01b600052601160045260246000fd5b808201808211156109a3576109a3613dda565b818103818111156109a3576109a3613dda565b634e487b7160e01b600052603260045260246000fd5b608081526000613e3f6080830187613c6b565b8281036020840152613e518187613caf565b90508281036040840152613e658186613cdf565b91505082606083015295945050505050565b84815260ff8416602082015282604082015260806060820152600061127860808301846134e7565b85815260ff8516602082015283604082015260a060608201526000613ec760a08301856134e7565b8281036080840152613ed981856134e7565b98975050505050505050565b600060018201613ef757613ef7613dda565b5060010190565b600060208284031215613f1057600080fd5b815180151581146112a957600080fd5b67ffffffffffffffff818116838216019080821115613f4157613f41613dda565b5092915050565b60006101208b835260206001600160a01b038c1681850152816040850152613f728285018c613c6b565b91508382036060850152613f86828b613caf565b915083820360808501528189518084528284019150828160051b850101838c0160005b83811015613fd757601f19878403018552613fc58383516134e7565b94860194925090850190600101613fa9565b505086810360a0880152613feb818c613cdf565b94505050505061400760c084018767ffffffffffffffff169052565b67ffffffffffffffff851660e084015282810361010084015261402a81856134e7565b9c9b505050505050505050505050565b600081600019048311821515161561405457614054613dda565b500290565b60008261407657634e487b7160e01b600052601260045260246000fd5b500490565b6000825161408d8184602087016134c3565b919091019291505056fe416464726573733a206c6f772d6c6576656c2063616c6c20776974682076616c7565206661696c6564a264697066735822122041b66a1dc2b6f9775587a2fe408d9d565808e47c60585078ad396ba2b32cae1164736f6c63430008100033",
  "immutableReferences": {
    "3682": [
      {
        "length": 32,
        "start": 2397
      },
      {
        "length": 32,
        "start": 9625
      },
      {
        "length": 32,
        "start": 10209
      }
    ],
    "7653": [
      {
        "length": 32,
        "start": 10648
      }
    ],
    "7655": [
      {
        "length": 32,
        "start": 10606
      }
    ],
    "7657": [
      {
        "length": 32,
        "start": 10564
      }
    ],
    "7659": [
      {
        "length": 32,
        "start": 10731
      }
    ],
    "7661": [
      {
        "length": 32,
        "start": 10768
      }
    ],
    "7663": [
      {
        "length": 32,
        "start": 10689
      }
    ]
  },
  "source": "// SPDX-License-Identifier: MIT\r\npragma solidity ^0.8.4;\r\n\r\nimport \"@openzeppelin/contracts/governance/Governor.sol\";\r\nimport \"@openzeppelin/contracts/governance/extensions/GovernorSettings.sol\";\r\nimport \"@openzeppelin/contracts/governance/extensions/GovernorCountingSimple.sol\";\r\nimport \"@openzeppelin/contracts/governance/extensions/GovernorVotes.sol\";\r\nimport \"@openzeppelin/contracts/governance/extensions/GovernorVotesQuorumFraction.sol\";\r\nimport \"@openzeppelin/contracts/governance/extensions/GovernorTimelockControl.sol\";\r\n\r\ncontract MyGovernor is Governor, GovernorSettings, GovernorCountingSimple, GovernorVotes, GovernorVotesQuorumFraction, GovernorTimelockControl {\r\n    // IVotes _token = IVotes(0xd9145CCE52D386f254917e481eB44e9943F39138);\r\n    // TimelockController _timelock = TimelockController(payable(0xd8b934580fcE35a11B58C6D73aDeE468a2833fa8));\r\n\r\n    constructor(IVotes _token, TimelockController _timelock)\r\n        Governor(\"MyGovernor\")\r\n        GovernorSettings(0 /* 0 block */, 45 /* 10 minutes */, 0)\r\n        GovernorVotes(_token)\r\n        GovernorVotesQuorumFraction(4)\r\n        GovernorTimelockControl(_timelock)\r\n    {}\r\n\r\n    // The following functions are overrides required by Solidity.\r\n\r\n    function votingDelay()\r\n        public\r\n        view\r\n        override(IGovernor, GovernorSettings)\r\n        returns (uint256)\r\n    {\r\n        return super.votingDelay();\r\n    }\r\n\r\n    function votingPeriod()\r\n        public\r\n        view\r\n        override(IGovernor, GovernorSettings)\r\n        returns (uint256)\r\n    {\r\n        return super.votingPeriod();\r\n    }\r\n\r\n    function quorum(uint256 blockNumber)\r\n        public\r\n        view\r\n        override(IGovernor, GovernorVotesQuorumFraction)\r\n        returns (uint256)\r\n    {\r\n        return super.quorum(blockNumber);\r\n    }\r\n\r\n    function state(uint256 proposalId)\r\n        public\r\n        view\r\n        override(Governor, GovernorTimelockControl)\r\n        returns (ProposalState)\r\n    {\r\n        return super.state(proposalId);\r\n    }\r\n\r\n    function propose(address[] memory targets, uint256[] memory values, bytes[] memory calldatas, string memory description)\r\n        public\r\n        override(Governor, IGovernor)\r\n        returns (uint256)\r\n    {\r\n        return super.propose(targets, values, calldatas, description);\r\n    }\r\n\r\n    function proposalThreshold()\r\n        public\r\n        view\r\n        override(Governor, GovernorSettings)\r\n        returns (uint256)\r\n    {\r\n        return super.proposalThreshold();\r\n    }\r\n\r\n    function _execute(uint256 proposalId, address[] memory targets, uint256[] memory values, bytes[] memory calldatas, bytes32 descriptionHash)\r\n        internal\r\n        override(Governor, GovernorTimelockControl)\r\n    {\r\n        super._execute(proposalId, targets, values, calldatas, descriptionHash);\r\n    }\r\n\r\n    function _cancel(address[] memory targets, uint256[] memory values, bytes[] memory calldatas, bytes32 descriptionHash)\r\n        internal\r\n        override(Governor, GovernorTimelockControl)\r\n        returns (uint256)\r\n    {\r\n        return super._cancel(targets, values, calldatas, descriptionHash);\r\n    }\r\n\r\n    function _executor()\r\n        internal\r\n        view\r\n        override(Governor, GovernorTimelockControl)\r\n        returns (address)\r\n    {\r\n        return super._executor();\r\n    }\r\n\r\n    function supportsInterface(bytes4 interfaceId)\r\n        public\r\n        view\r\n        override(Governor, GovernorTimelockControl)\r\n        returns (bool)\r\n    {\r\n        return super.supportsInterface(interfaceId);\r\n    }\r\n}",
  "sourcePath": "D:\\ProjectSolidity\\MoralisDaoToken\\DAOTutorial-BackEndv2\\contracts\\MyGovernor.sol",
  "compiler": {
    "name": "solc",
    "version": "0.8.16+commit.07a7930e.Emscripten.clang"
  },
  "schemaVersion": "3.4.9",
  "updatedAt": "2022-09-16T02:18:58.501Z",
  "devdoc": {
    "errors": {
      "Empty()": [
        {
          "details": "An operation (e.g. {front}) couldn't be completed due to the queue being empty."
        }
      ]
    },
    "kind": "dev",
    "methods": {
      "COUNTING_MODE()": {
        "details": "See {IGovernor-COUNTING_MODE}."
      },
      "castVote(uint256,uint8)": {
        "details": "See {IGovernor-castVote}."
      },
      "castVoteBySig(uint256,uint8,uint8,bytes32,bytes32)": {
        "details": "See {IGovernor-castVoteBySig}."
      },
      "castVoteWithReason(uint256,uint8,string)": {
        "details": "See {IGovernor-castVoteWithReason}."
      },
      "castVoteWithReasonAndParams(uint256,uint8,string,bytes)": {
        "details": "See {IGovernor-castVoteWithReasonAndParams}."
      },
      "castVoteWithReasonAndParamsBySig(uint256,uint8,string,bytes,uint8,bytes32,bytes32)": {
        "details": "See {IGovernor-castVoteWithReasonAndParamsBySig}."
      },
      "execute(address[],uint256[],bytes[],bytes32)": {
        "details": "See {IGovernor-execute}."
      },
      "getVotes(address,uint256)": {
        "details": "See {IGovernor-getVotes}."
      },
      "getVotesWithParams(address,uint256,bytes)": {
        "details": "See {IGovernor-getVotesWithParams}."
      },
      "hasVoted(uint256,address)": {
        "details": "See {IGovernor-hasVoted}."
      },
      "hashProposal(address[],uint256[],bytes[],bytes32)": {
        "details": "See {IGovernor-hashProposal}. The proposal id is produced by hashing the ABI encoded `targets` array, the `values` array, the `calldatas` array and the descriptionHash (bytes32 which itself is the keccak256 hash of the description string). This proposal id can be produced from the proposal data which is part of the {ProposalCreated} event. It can even be computed in advance, before the proposal is submitted. Note that the chainId and the governor address are not part of the proposal id computation. Consequently, the same proposal (with same operation and same description) will have the same id if submitted on multiple governors across multiple networks. This also means that in order to execute the same operation twice (on the same governor) the proposer will have to change the description in order to avoid proposal id conflicts."
      },
      "name()": {
        "details": "See {IGovernor-name}."
      },
      "onERC1155BatchReceived(address,address,uint256[],uint256[],bytes)": {
        "details": "See {IERC1155Receiver-onERC1155BatchReceived}."
      },
      "onERC1155Received(address,address,uint256,uint256,bytes)": {
        "details": "See {IERC1155Receiver-onERC1155Received}."
      },
      "onERC721Received(address,address,uint256,bytes)": {
        "details": "See {IERC721Receiver-onERC721Received}."
      },
      "proposalDeadline(uint256)": {
        "details": "See {IGovernor-proposalDeadline}."
      },
      "proposalEta(uint256)": {
        "details": "Public accessor to check the eta of a queued proposal"
      },
      "proposalSnapshot(uint256)": {
        "details": "See {IGovernor-proposalSnapshot}."
      },
      "proposalVotes(uint256)": {
        "details": "Accessor to the internal vote counts."
      },
      "queue(address[],uint256[],bytes[],bytes32)": {
        "details": "Function to queue a proposal to the timelock."
      },
      "quorumDenominator()": {
        "details": "Returns the quorum denominator. Defaults to 100, but may be overridden."
      },
      "quorumNumerator()": {
        "details": "Returns the current quorum numerator. See {quorumDenominator}."
      },
      "quorumNumerator(uint256)": {
        "details": "Returns the quorum numerator at a specific block number. See {quorumDenominator}."
      },
      "relay(address,uint256,bytes)": {
        "details": "Relays a transaction or function call to an arbitrary target. In cases where the governance executor is some contract other than the governor itself, like when using a timelock, this function can be invoked in a governance proposal to recover tokens or Ether that was sent to the governor contract by mistake. Note that if the executor is simply the governor itself, use of `relay` is redundant."
      },
      "setProposalThreshold(uint256)": {
        "details": "Update the proposal threshold. This operation can only be performed through a governance proposal. Emits a {ProposalThresholdSet} event."
      },
      "setVotingDelay(uint256)": {
        "details": "Update the voting delay. This operation can only be performed through a governance proposal. Emits a {VotingDelaySet} event."
      },
      "setVotingPeriod(uint256)": {
        "details": "Update the voting period. This operation can only be performed through a governance proposal. Emits a {VotingPeriodSet} event."
      },
      "timelock()": {
        "details": "Public accessor to check the address of the timelock"
      },
      "updateQuorumNumerator(uint256)": {
        "details": "Changes the quorum numerator. Emits a {QuorumNumeratorUpdated} event. Requirements: - Must be called through a governance proposal. - New numerator must be smaller or equal to the denominator."
      },
      "updateTimelock(address)": {
        "details": "Public endpoint to update the underlying timelock instance. Restricted to the timelock itself, so updates must be proposed, scheduled, and executed through governance proposals. CAUTION: It is not recommended to change the timelock while there are other queued governance proposals."
      },
      "version()": {
        "details": "See {IGovernor-version}."
      }
    },
    "version": 1
  },
  "userdoc": {
    "kind": "user",
    "methods": {},
    "version": 1
  }
}